{
  "contractName": "NFTAuction",
  "abi": [
    {
      "inputs": [
        {
          "internalType": "address",
          "name": "_verifierAddress",
          "type": "address"
        }
      ],
      "stateMutability": "nonpayable",
      "type": "constructor"
    },
    {
      "anonymous": false,
      "inputs": [
        {
          "indexed": false,
          "internalType": "uint256",
          "name": "auctionId",
          "type": "uint256"
        }
      ],
      "name": "AuctionCancelled",
      "type": "event"
    },
    {
      "anonymous": false,
      "inputs": [
        {
          "indexed": false,
          "internalType": "uint256",
          "name": "auctionId",
          "type": "uint256"
        },
        {
          "indexed": false,
          "internalType": "address",
          "name": "creator",
          "type": "address"
        },
        {
          "indexed": false,
          "internalType": "address",
          "name": "nftContract",
          "type": "address"
        },
        {
          "indexed": false,
          "internalType": "uint256",
          "name": "tokenId",
          "type": "uint256"
        },
        {
          "indexed": false,
          "internalType": "uint256",
          "name": "startPrice",
          "type": "uint256"
        },
        {
          "indexed": false,
          "internalType": "uint256",
          "name": "endTime",
          "type": "uint256"
        }
      ],
      "name": "AuctionCreated",
      "type": "event"
    },
    {
      "anonymous": false,
      "inputs": [
        {
          "indexed": false,
          "internalType": "uint256",
          "name": "auctionId",
          "type": "uint256"
        },
        {
          "indexed": false,
          "internalType": "address",
          "name": "winner",
          "type": "address"
        },
        {
          "indexed": false,
          "internalType": "uint256",
          "name": "amount",
          "type": "uint256"
        }
      ],
      "name": "AuctionEnded",
      "type": "event"
    },
    {
      "anonymous": false,
      "inputs": [
        {
          "indexed": false,
          "internalType": "uint256",
          "name": "auctionId",
          "type": "uint256"
        },
        {
          "indexed": false,
          "internalType": "address",
          "name": "starter",
          "type": "address"
        }
      ],
      "name": "AuctionStarted",
      "type": "event"
    },
    {
      "anonymous": false,
      "inputs": [
        {
          "indexed": false,
          "internalType": "string",
          "name": "message",
          "type": "string"
        },
        {
          "indexed": false,
          "internalType": "uint256",
          "name": "value",
          "type": "uint256"
        }
      ],
      "name": "DebugLog",
      "type": "event"
    },
    {
      "anonymous": false,
      "inputs": [
        {
          "indexed": false,
          "internalType": "uint256",
          "name": "auctionId",
          "type": "uint256"
        },
        {
          "indexed": false,
          "internalType": "address",
          "name": "bidder",
          "type": "address"
        },
        {
          "indexed": false,
          "internalType": "uint256",
          "name": "amount",
          "type": "uint256"
        }
      ],
      "name": "NewBid",
      "type": "event"
    },
    {
      "anonymous": false,
      "inputs": [
        {
          "indexed": false,
          "internalType": "address",
          "name": "bidder",
          "type": "address"
        },
        {
          "indexed": false,
          "internalType": "uint256",
          "name": "amount",
          "type": "uint256"
        }
      ],
      "name": "Refunded",
      "type": "event"
    },
    {
      "anonymous": false,
      "inputs": [
        {
          "indexed": false,
          "internalType": "uint256",
          "name": "tokenId",
          "type": "uint256"
        },
        {
          "indexed": false,
          "internalType": "address",
          "name": "creator",
          "type": "address"
        }
      ],
      "name": "VerificationRequired",
      "type": "event"
    },
    {
      "inputs": [
        {
          "internalType": "uint256",
          "name": "",
          "type": "uint256"
        }
      ],
      "name": "activeAuctionByToken",
      "outputs": [
        {
          "internalType": "uint256",
          "name": "",
          "type": "uint256"
        }
      ],
      "stateMutability": "view",
      "type": "function",
      "constant": true
    },
    {
      "inputs": [],
      "name": "auctionCounter",
      "outputs": [
        {
          "internalType": "uint256",
          "name": "",
          "type": "uint256"
        }
      ],
      "stateMutability": "view",
      "type": "function",
      "constant": true
    },
    {
      "inputs": [
        {
          "internalType": "uint256",
          "name": "",
          "type": "uint256"
        }
      ],
      "name": "auctions",
      "outputs": [
        {
          "internalType": "address",
          "name": "creator",
          "type": "address"
        },
        {
          "internalType": "contract IERC721",
          "name": "nftContract",
          "type": "address"
        },
        {
          "internalType": "uint256",
          "name": "tokenId",
          "type": "uint256"
        },
        {
          "internalType": "uint256",
          "name": "startPrice",
          "type": "uint256"
        },
        {
          "internalType": "uint256",
          "name": "endTime",
          "type": "uint256"
        },
        {
          "internalType": "address",
          "name": "highestBidder",
          "type": "address"
        },
        {
          "internalType": "uint256",
          "name": "highestBid",
          "type": "uint256"
        },
        {
          "internalType": "enum NFTAuction.AuctionState",
          "name": "state",
          "type": "uint8"
        },
        {
          "internalType": "bool",
          "name": "nftDeposited",
          "type": "bool"
        }
      ],
      "stateMutability": "view",
      "type": "function",
      "constant": true
    },
    {
      "inputs": [
        {
          "internalType": "uint256",
          "name": "",
          "type": "uint256"
        },
        {
          "internalType": "address",
          "name": "",
          "type": "address"
        }
      ],
      "name": "pendingReturns",
      "outputs": [
        {
          "internalType": "uint256",
          "name": "",
          "type": "uint256"
        }
      ],
      "stateMutability": "view",
      "type": "function",
      "constant": true
    },
    {
      "inputs": [],
      "name": "verifier",
      "outputs": [
        {
          "internalType": "contract NFTVerifier",
          "name": "",
          "type": "address"
        }
      ],
      "stateMutability": "view",
      "type": "function",
      "constant": true
    },
    {
      "inputs": [
        {
          "internalType": "address",
          "name": "_verifierAddress",
          "type": "address"
        }
      ],
      "name": "setVerifier",
      "outputs": [],
      "stateMutability": "nonpayable",
      "type": "function"
    },
    {
      "inputs": [
        {
          "internalType": "address",
          "name": "_nftContract",
          "type": "address"
        },
        {
          "internalType": "uint256",
          "name": "_tokenId",
          "type": "uint256"
        },
        {
          "internalType": "uint256",
          "name": "_startPrice",
          "type": "uint256"
        },
        {
          "internalType": "uint256",
          "name": "_auctionDuration",
          "type": "uint256"
        }
      ],
      "name": "createAuction",
      "outputs": [],
      "stateMutability": "nonpayable",
      "type": "function"
    },
    {
      "inputs": [
        {
          "internalType": "uint256",
          "name": "_auctionId",
          "type": "uint256"
        }
      ],
      "name": "startAuction",
      "outputs": [],
      "stateMutability": "nonpayable",
      "type": "function"
    },
    {
      "inputs": [
        {
          "internalType": "uint256",
          "name": "_auctionId",
          "type": "uint256"
        }
      ],
      "name": "bid",
      "outputs": [],
      "stateMutability": "payable",
      "type": "function",
      "payable": true
    },
    {
      "inputs": [
        {
          "internalType": "uint256",
          "name": "_auctionId",
          "type": "uint256"
        }
      ],
      "name": "cancelAuction",
      "outputs": [],
      "stateMutability": "nonpayable",
      "type": "function"
    },
    {
      "inputs": [
        {
          "internalType": "uint256",
          "name": "_auctionId",
          "type": "uint256"
        }
      ],
      "name": "finalizeAuction",
      "outputs": [],
      "stateMutability": "nonpayable",
      "type": "function"
    },
    {
      "inputs": [
        {
          "internalType": "uint256",
          "name": "_auctionId",
          "type": "uint256"
        }
      ],
      "name": "getAuction",
      "outputs": [
        {
          "internalType": "address",
          "name": "creator",
          "type": "address"
        },
        {
          "internalType": "address",
          "name": "nftContract",
          "type": "address"
        },
        {
          "internalType": "uint256",
          "name": "tokenId",
          "type": "uint256"
        },
        {
          "internalType": "uint256",
          "name": "startPrice",
          "type": "uint256"
        },
        {
          "internalType": "uint256",
          "name": "endTime",
          "type": "uint256"
        },
        {
          "internalType": "address",
          "name": "highestBidder",
          "type": "address"
        },
        {
          "internalType": "uint256",
          "name": "highestBid",
          "type": "uint256"
        },
        {
          "internalType": "uint256",
          "name": "state",
          "type": "uint256"
        },
        {
          "internalType": "bool",
          "name": "nftDeposited",
          "type": "bool"
        }
      ],
      "stateMutability": "view",
      "type": "function",
      "constant": true
    },
    {
      "inputs": [
        {
          "internalType": "uint256",
          "name": "_tokenId",
          "type": "uint256"
        }
      ],
      "name": "requestVerification",
      "outputs": [],
      "stateMutability": "nonpayable",
      "type": "function"
    }
  ],
  "bytecode": "0x60806040523480156200001157600080fd5b506040516200319038038062003190833981810160405281019062000037919062000095565b806000806101000a81548173ffffffffffffffffffffffffffffffffffffffff021916908373ffffffffffffffffffffffffffffffffffffffff160217905550506200010f565b6000815190506200008f81620000f5565b92915050565b600060208284031215620000a857600080fd5b6000620000b8848285016200007e565b91505092915050565b6000620000ce82620000d5565b9050919050565b600073ffffffffffffffffffffffffffffffffffffffff82169050919050565b6200010081620000c1565b81146200010c57600080fd5b50565b613071806200011f6000396000f3fe6080604052600436106100c25760003560e01c806361beb1d71161007f57806396b5a7551161005957806396b5a75514610279578063a7e76644146102a2578063e8083863146102cd578063ed9559f7146102f6576100c2565b806361beb1d7146101ce57806378bd7935146101f75780638ddac1ef1461023c576100c2565b8063065de74c146100c75780630c020f08146100f05780632b7ac3f314610119578063454a2ab3146101445780635437988d14610160578063571a26a014610189575b600080fd5b3480156100d357600080fd5b506100ee60048036038101906100e9919061204d565b610333565b005b3480156100fc57600080fd5b506101176004803603810190610112919061204d565b610754565b005b34801561012557600080fd5b5061012e61081b565b60405161013b9190612588565b60405180910390f35b61015e6004803603810190610159919061204d565b61083f565b005b34801561016c57600080fd5b5061018760048036038101906101829190611f6f565b610d1a565b005b34801561019557600080fd5b506101b060048036038101906101ab919061204d565b610d5d565b6040516101c5999897969594939291906124d2565b60405180910390f35b3480156101da57600080fd5b506101f560048036038101906101f09190611fc1565b610e25565b005b34801561020357600080fd5b5061021e6004803603810190610219919061204d565b6112cd565b60405161023399989796959493929190612445565b60405180910390f35b34801561024857600080fd5b50610263600480360381019061025e9190612076565b6113f0565b604051610270919061287f565b60405180910390f35b34801561028557600080fd5b506102a0600480360381019061029b919061204d565b611415565b005b3480156102ae57600080fd5b506102b761194b565b6040516102c4919061287f565b60405180910390f35b3480156102d957600080fd5b506102f460048036038101906102ef919061204d565b611951565b005b34801561030257600080fd5b5061031d6004803603810190610318919061204d565b611f03565b60405161032a919061287f565b60405180910390f35b60006001600083815260200190815260200160002090503373ffffffffffffffffffffffffffffffffffffffff168160000160009054906101000a900473ffffffffffffffffffffffffffffffffffffffff1673ffffffffffffffffffffffffffffffffffffffff16146103dc576040517f08c379a00000000000000000000000000000000000000000000000000000000081526004016103d3906125e3565b60405180910390fd5b60006003811115610416577f4e487b7100000000000000000000000000000000000000000000000000000000600052602160045260246000fd5b8160070160009054906101000a900460ff166003811115610460577f4e487b7100000000000000000000000000000000000000000000000000000000600052602160045260246000fd5b146104a0576040517f08c379a000000000000000000000000000000000000000000000000000000000815260040161049790612771565b60405180910390fd5b8060070160019054906101000a900460ff16156104f2576040517f08c379a00000000000000000000000000000000000000000000000000000000081526004016104e99061283f565b60405180910390fd5b3073ffffffffffffffffffffffffffffffffffffffff168160010160009054906101000a900473ffffffffffffffffffffffffffffffffffffffff1673ffffffffffffffffffffffffffffffffffffffff1663081812fc83600201546040518263ffffffff1660e01b815260040161056a919061287f565b60206040518083038186803b15801561058257600080fd5b505afa158015610596573d6000803e3d6000fd5b505050506040513d601f19601f820116820180604052508101906105ba9190611f98565b73ffffffffffffffffffffffffffffffffffffffff1614610610576040517f08c379a0000000000000000000000000000000000000000000000000000000008152600401610607906127b1565b60405180910390fd5b8060010160009054906101000a900473ffffffffffffffffffffffffffffffffffffffff1673ffffffffffffffffffffffffffffffffffffffff166323b872dd333084600201546040518463ffffffff1660e01b81526004016106759392919061240e565b600060405180830381600087803b15801561068f57600080fd5b505af11580156106a3573d6000803e3d6000fd5b5050505060018160070160006101000a81548160ff021916908360038111156106f5577f4e487b7100000000000000000000000000000000000000000000000000000000600052602160045260246000fd5b021790555060018160070160016101000a81548160ff0219169083151502179055507f16da476d7265fc95576888b93de4fa4849d6cea1228235887f569c6530ddfec1823360405161074892919061289a565b60405180910390a15050565b60008054906101000a900473ffffffffffffffffffffffffffffffffffffffff1673ffffffffffffffffffffffffffffffffffffffff16630c020f08826040518263ffffffff1660e01b81526004016107ad919061287f565b600060405180830381600087803b1580156107c757600080fd5b505af11580156107db573d6000803e3d6000fd5b505050507f02f062e1a1d45294e62a66f3d9f505cbe08ced279c503bb0c7b6822312013140813360405161081092919061289a565b60405180910390a150565b60008054906101000a900473ffffffffffffffffffffffffffffffffffffffff1681565b6000600160008381526020019081526020016000209050600073ffffffffffffffffffffffffffffffffffffffff168160000160009054906101000a900473ffffffffffffffffffffffffffffffffffffffff1673ffffffffffffffffffffffffffffffffffffffff1614156108ea576040517f08c379a00000000000000000000000000000000000000000000000000000000081526004016108e1906126a3565b60405180910390fd5b60016003811115610924577f4e487b7100000000000000000000000000000000000000000000000000000000600052602160045260246000fd5b8160070160009054906101000a900460ff16600381111561096e577f4e487b7100000000000000000000000000000000000000000000000000000000600052602160045260246000fd5b146109ae576040517f08c379a00000000000000000000000000000000000000000000000000000000081526004016109a590612623565b60405180910390fd5b8060070160019054906101000a900460ff166109ff576040517f08c379a00000000000000000000000000000000000000000000000000000000081526004016109f690612791565b60405180910390fd5b8060040154421115610a46576040517f08c379a0000000000000000000000000000000000000000000000000000000008152600401610a3d90612643565b60405180910390fd5b8060000160009054906101000a900473ffffffffffffffffffffffffffffffffffffffff1673ffffffffffffffffffffffffffffffffffffffff163373ffffffffffffffffffffffffffffffffffffffff161415610ad9576040517f08c379a0000000000000000000000000000000000000000000000000000000008152600401610ad090612683565b60405180910390fd5b8060030154341015610b20576040517f08c379a0000000000000000000000000000000000000000000000000000000008152600401610b179061281f565b60405180910390fd5b80600601543411610b66576040517f08c379a0000000000000000000000000000000000000000000000000000000008152600401610b5d906125c3565b60405180910390fd5b600073ffffffffffffffffffffffffffffffffffffffff168160050160009054906101000a900473ffffffffffffffffffffffffffffffffffffffff1673ffffffffffffffffffffffffffffffffffffffff1614610c8f578060050160009054906101000a900473ffffffffffffffffffffffffffffffffffffffff1673ffffffffffffffffffffffffffffffffffffffff166108fc82600601549081150290604051600060405180830381858888f19350505050158015610c2c573d6000803e3d6000fd5b507fd7dee2702d63ad89917b6a4da9981c90c4d24f8c2bdfd64c604ecae57d8d06518160050160009054906101000a900473ffffffffffffffffffffffffffffffffffffffff168260060154604051610c8692919061255f565b60405180910390a15b338160050160006101000a81548173ffffffffffffffffffffffffffffffffffffffff021916908373ffffffffffffffffffffffffffffffffffffffff1602179055503481600601819055507f558a0d5d5468d74b0db24c74eb348b42271c2ebb4c9e953ced38aaed95fa4361823334604051610d0e93929190612924565b60405180910390a15050565b806000806101000a81548173ffffffffffffffffffffffffffffffffffffffff021916908373ffffffffffffffffffffffffffffffffffffffff16021790555050565b60016020528060005260406000206000915090508060000160009054906101000a900473ffffffffffffffffffffffffffffffffffffffff16908060010160009054906101000a900473ffffffffffffffffffffffffffffffffffffffff16908060020154908060030154908060040154908060050160009054906101000a900473ffffffffffffffffffffffffffffffffffffffff16908060060154908060070160009054906101000a900460ff16908060070160019054906101000a900460ff16905089565b60008211610e68576040517f08c379a0000000000000000000000000000000000000000000000000000000008152600401610e5f906126c3565b60405180910390fd5b60008111610eab576040517f08c379a0000000000000000000000000000000000000000000000000000000008152600401610ea290612751565b60405180910390fd5b60008054906101000a900473ffffffffffffffffffffffffffffffffffffffff1673ffffffffffffffffffffffffffffffffffffffff16632c2b54f4846040518263ffffffff1660e01b8152600401610f04919061287f565b60206040518083038186803b158015610f1c57600080fd5b505afa158015610f30573d6000803e3d6000fd5b505050506040513d601f19601f82011682018060405250810190610f549190612024565b610f93576040517f08c379a0000000000000000000000000000000000000000000000000000000008152600401610f8a90612663565b60405180910390fd5b60008490503373ffffffffffffffffffffffffffffffffffffffff168173ffffffffffffffffffffffffffffffffffffffff16636352211e866040518263ffffffff1660e01b8152600401610fe8919061287f565b60206040518083038186803b15801561100057600080fd5b505afa158015611014573d6000803e3d6000fd5b505050506040513d601f19601f820116820180604052508101906110389190611f98565b73ffffffffffffffffffffffffffffffffffffffff161461108e576040517f08c379a0000000000000000000000000000000000000000000000000000000008152600401611085906125a3565b60405180910390fd5b7ff6ff2ad7fc16bda2a7d32462729431bce3ebe9b75cc7c9b35a0adfbf7e7bb9e6826040516110bd9190612723565b60405180910390a16000603c836110d491906129c2565b90507ff6ff2ad7fc16bda2a7d32462729431bce3ebe9b75cc7c9b35a0adfbf7e7bb9e68160405161110591906127d1565b60405180910390a16002600081548092919061112090612ad1565b919050555060006001600060025481526020019081526020016000209050338160000160006101000a81548173ffffffffffffffffffffffffffffffffffffffff021916908373ffffffffffffffffffffffffffffffffffffffff160217905550858160020181905550828160010160006101000a81548173ffffffffffffffffffffffffffffffffffffffff021916908373ffffffffffffffffffffffffffffffffffffffff16021790555084816003018190555084816006018190555081426111eb919061296c565b816004018190555060008160070160006101000a81548160ff02191690836003811115611241577f4e487b7100000000000000000000000000000000000000000000000000000000600052602160045260246000fd5b021790555060008160070160016101000a81548160ff02191690831515021790555060025460036000888152602001908152602001600020819055507f06b9e486c68303eb64052e0493f906f3d93a1b7149b6b8dcff221aebd16c35136002543389898986600401546040516112bc969594939291906128c3565b60405180910390a150505050505050565b600080600080600080600080600080600160008c815260200190815260200160002090508060000160009054906101000a900473ffffffffffffffffffffffffffffffffffffffff168160010160009054906101000a900473ffffffffffffffffffffffffffffffffffffffff168260020154836003015484600401548560050160009054906101000a900473ffffffffffffffffffffffffffffffffffffffff1686600601548760070160009054906101000a900460ff1660038111156113be577f4e487b7100000000000000000000000000000000000000000000000000000000600052602160045260246000fd5b8860070160019054906101000a900460ff16995099509950995099509950995099509950509193959799909294969850565b6004602052816000526040600020602052806000526040600020600091509150505481565b6000600160008381526020019081526020016000209050600073ffffffffffffffffffffffffffffffffffffffff168160000160009054906101000a900473ffffffffffffffffffffffffffffffffffffffff1673ffffffffffffffffffffffffffffffffffffffff1614156114c0576040517f08c379a00000000000000000000000000000000000000000000000000000000081526004016114b7906126a3565b60405180910390fd5b8060000160009054906101000a900473ffffffffffffffffffffffffffffffffffffffff1673ffffffffffffffffffffffffffffffffffffffff163373ffffffffffffffffffffffffffffffffffffffff1614611552576040517f08c379a0000000000000000000000000000000000000000000000000000000008152600401611549906127ff565b60405180910390fd5b6002600381111561158c577f4e487b7100000000000000000000000000000000000000000000000000000000600052602160045260246000fd5b8160070160009054906101000a900460ff1660038111156115d6577f4e487b7100000000000000000000000000000000000000000000000000000000600052602160045260246000fd5b141580156116655750600380811115611618577f4e487b7100000000000000000000000000000000000000000000000000000000600052602160045260246000fd5b8160070160009054906101000a900460ff166003811115611662577f4e487b7100000000000000000000000000000000000000000000000000000000600052602160045260246000fd5b14155b6116a4576040517f08c379a000000000000000000000000000000000000000000000000000000000815260040161169b9061285f565b60405180910390fd5b60038160070160006101000a81548160ff021916908360038111156116f2577f4e487b7100000000000000000000000000000000000000000000000000000000600052602160045260246000fd5b02179055508060070160019054906101000a900460ff16156117ca578060010160009054906101000a900473ffffffffffffffffffffffffffffffffffffffff1673ffffffffffffffffffffffffffffffffffffffff166323b872dd308360000160009054906101000a900473ffffffffffffffffffffffffffffffffffffffff1684600201546040518463ffffffff1660e01b81526004016117979392919061240e565b600060405180830381600087803b1580156117b157600080fd5b505af11580156117c5573d6000803e3d6000fd5b505050505b600073ffffffffffffffffffffffffffffffffffffffff168160050160009054906101000a900473ffffffffffffffffffffffffffffffffffffffff1673ffffffffffffffffffffffffffffffffffffffff16146118f3578060050160009054906101000a900473ffffffffffffffffffffffffffffffffffffffff1673ffffffffffffffffffffffffffffffffffffffff166108fc82600601549081150290604051600060405180830381858888f19350505050158015611890573d6000803e3d6000fd5b507fd7dee2702d63ad89917b6a4da9981c90c4d24f8c2bdfd64c604ecae57d8d06518160050160009054906101000a900473ffffffffffffffffffffffffffffffffffffffff1682600601546040516118ea92919061255f565b60405180910390a15b60006003600083600201548152602001908152602001600020819055507f2809c7e17bf978fbc7194c0a694b638c4215e9140cacc6c38ca36010b45697df8260405161193f919061287f565b60405180910390a15050565b60025481565b6000600160008381526020019081526020016000209050600073ffffffffffffffffffffffffffffffffffffffff168160000160009054906101000a900473ffffffffffffffffffffffffffffffffffffffff1673ffffffffffffffffffffffffffffffffffffffff1614156119fc576040517f08c379a00000000000000000000000000000000000000000000000000000000081526004016119f3906126a3565b60405180910390fd5b80600401544211611a42576040517f08c379a0000000000000000000000000000000000000000000000000000000008152600401611a3990612703565b60405180910390fd5b60016003811115611a7c577f4e487b7100000000000000000000000000000000000000000000000000000000600052602160045260246000fd5b8160070160009054906101000a900460ff166003811115611ac6577f4e487b7100000000000000000000000000000000000000000000000000000000600052602160045260246000fd5b14611b06576040517f08c379a0000000000000000000000000000000000000000000000000000000008152600401611afd90612623565b60405180910390fd5b8060070160019054906101000a900460ff16611b57576040517f08c379a0000000000000000000000000000000000000000000000000000000008152600401611b4e90612603565b60405180910390fd5b8060000160009054906101000a900473ffffffffffffffffffffffffffffffffffffffff1673ffffffffffffffffffffffffffffffffffffffff163373ffffffffffffffffffffffffffffffffffffffff1614611be9576040517f08c379a0000000000000000000000000000000000000000000000000000000008152600401611be0906126e3565b60405180910390fd5b60028160070160006101000a81548160ff02191690836003811115611c37577f4e487b7100000000000000000000000000000000000000000000000000000000600052602160045260246000fd5b02179055506000600360008360020154815260200190815260200160002081905550600073ffffffffffffffffffffffffffffffffffffffff168160050160009054906101000a900473ffffffffffffffffffffffffffffffffffffffff1673ffffffffffffffffffffffffffffffffffffffff1614611de0578060010160009054906101000a900473ffffffffffffffffffffffffffffffffffffffff1673ffffffffffffffffffffffffffffffffffffffff166323b872dd308360050160009054906101000a900473ffffffffffffffffffffffffffffffffffffffff1684600201546040518463ffffffff1660e01b8152600401611d3a9392919061240e565b600060405180830381600087803b158015611d5457600080fd5b505af1158015611d68573d6000803e3d6000fd5b505050508060000160009054906101000a900473ffffffffffffffffffffffffffffffffffffffff1673ffffffffffffffffffffffffffffffffffffffff166108fc82600601549081150290604051600060405180830381858888f19350505050158015611dda573d6000803e3d6000fd5b50611e9c565b8060010160009054906101000a900473ffffffffffffffffffffffffffffffffffffffff1673ffffffffffffffffffffffffffffffffffffffff166323b872dd308360000160009054906101000a900473ffffffffffffffffffffffffffffffffffffffff1684600201546040518463ffffffff1660e01b8152600401611e699392919061240e565b600060405180830381600087803b158015611e8357600080fd5b505af1158015611e97573d6000803e3d6000fd5b505050505b7fd2aa34a4fdbbc6dff6a3e56f46e0f3ae2a31d7785ff3487aa5c95c642acea501828260050160009054906101000a900473ffffffffffffffffffffffffffffffffffffffff168360060154604051611ef793929190612924565b60405180910390a15050565b60036020528060005260406000206000915090505481565b600081359050611f2a81612ff6565b92915050565b600081519050611f3f81612ff6565b92915050565b600081519050611f548161300d565b92915050565b600081359050611f6981613024565b92915050565b600060208284031215611f8157600080fd5b6000611f8f84828501611f1b565b91505092915050565b600060208284031215611faa57600080fd5b6000611fb884828501611f30565b91505092915050565b60008060008060808587031215611fd757600080fd5b6000611fe587828801611f1b565b9450506020611ff687828801611f5a565b935050604061200787828801611f5a565b925050606061201887828801611f5a565b91505092959194509250565b60006020828403121561203657600080fd5b600061204484828501611f45565b91505092915050565b60006020828403121561205f57600080fd5b600061206d84828501611f5a565b91505092915050565b6000806040838503121561208957600080fd5b600061209785828601611f5a565b92505060206120a885828601611f1b565b9150509250929050565b6120bb81612a1c565b82525050565b6120ca81612a2e565b82525050565b6120d981612a77565b82525050565b6120e881612a9b565b82525050565b6120f781612abf565b82525050565b600061210a60178361295b565b915061211582612b78565b602082019050919050565b600061212d60308361295b565b915061213882612ba1565b604082019050919050565b6000612150601e8361295b565b915061215b82612bf0565b602082019050919050565b600061217360118361295b565b915061217e82612c19565b602082019050919050565b600061219660128361295b565b91506121a182612c42565b602082019050919050565b60006121b960118361295b565b91506121c482612c6b565b602082019050919050565b60006121dc60108361295b565b91506121e782612c94565b602082019050919050565b60006121ff60128361295b565b915061220a82612cbd565b602082019050919050565b600061222260168361295b565b915061222d82612ce6565b602082019050919050565b600061224560258361295b565b915061225082612d0f565b604082019050919050565b600061226860198361295b565b915061227382612d5e565b602082019050919050565b600061228b60158361295b565b915061229682612d87565b602082019050919050565b60006122ae60288361295b565b91506122b982612db0565b604082019050919050565b60006122d160278361295b565b91506122dc82612dff565b604082019050919050565b60006122f4601c8361295b565b91506122ff82612e4e565b602082019050919050565b600061231760158361295b565b915061232282612e77565b602082019050919050565b600061233a601d8361295b565b915061234582612ea0565b602082019050919050565b600061235d60138361295b565b915061236882612ec9565b602082019050919050565b6000612380601f8361295b565b915061238b82612ef2565b602082019050919050565b60006123a360348361295b565b91506123ae82612f1b565b604082019050919050565b60006123c660158361295b565b91506123d182612f6a565b602082019050919050565b60006123e960228361295b565b91506123f482612f93565b604082019050919050565b61240881612a6d565b82525050565b600060608201905061242360008301866120b2565b61243060208301856120b2565b61243d60408301846123ff565b949350505050565b60006101208201905061245b600083018c6120b2565b612468602083018b6120b2565b612475604083018a6123ff565b61248260608301896123ff565b61248f60808301886123ff565b61249c60a08301876120b2565b6124a960c08301866123ff565b6124b660e08301856123ff565b6124c46101008301846120c1565b9a9950505050505050505050565b6000610120820190506124e8600083018c6120b2565b6124f5602083018b6120d0565b612502604083018a6123ff565b61250f60608301896123ff565b61251c60808301886123ff565b61252960a08301876120b2565b61253660c08301866123ff565b61254360e08301856120ee565b6125516101008301846120c1565b9a9950505050505050505050565b600060408201905061257460008301856120b2565b61258160208301846123ff565b9392505050565b600060208201905061259d60008301846120df565b92915050565b600060208201905081810360008301526125bc816120fd565b9050919050565b600060208201905081810360008301526125dc81612120565b9050919050565b600060208201905081810360008301526125fc81612143565b9050919050565b6000602082019050818103600083015261261c81612166565b9050919050565b6000602082019050818103600083015261263c81612189565b9050919050565b6000602082019050818103600083015261265c816121ac565b9050919050565b6000602082019050818103600083015261267c816121cf565b9050919050565b6000602082019050818103600083015261269c816121f2565b9050919050565b600060208201905081810360008301526126bc81612215565b9050919050565b600060208201905081810360008301526126dc81612238565b9050919050565b600060208201905081810360008301526126fc8161225b565b9050919050565b6000602082019050818103600083015261271c8161227e565b9050919050565b6000604082019050818103600083015261273c816122a1565b905061274b60208301846123ff565b92915050565b6000602082019050818103600083015261276a816122c4565b9050919050565b6000602082019050818103600083015261278a816122e7565b9050919050565b600060208201905081810360008301526127aa8161230a565b9050919050565b600060208201905081810360008301526127ca8161232d565b9050919050565b600060408201905081810360008301526127ea81612350565b90506127f960208301846123ff565b92915050565b6000602082019050818103600083015261281881612373565b9050919050565b6000602082019050818103600083015261283881612396565b9050919050565b60006020820190508181036000830152612858816123b9565b9050919050565b60006020820190508181036000830152612878816123dc565b9050919050565b600060208201905061289460008301846123ff565b92915050565b60006040820190506128af60008301856123ff565b6128bc60208301846120b2565b9392505050565b600060c0820190506128d860008301896123ff565b6128e560208301886120b2565b6128f260408301876120b2565b6128ff60608301866123ff565b61290c60808301856123ff565b61291960a08301846123ff565b979650505050505050565b600060608201905061293960008301866123ff565b61294660208301856120b2565b61295360408301846123ff565b949350505050565b600082825260208201905092915050565b600061297782612a6d565b915061298283612a6d565b9250827fffffffffffffffffffffffffffffffffffffffffffffffffffffffffffffffff038211156129b7576129b6612b1a565b5b828201905092915050565b60006129cd82612a6d565b91506129d883612a6d565b9250817fffffffffffffffffffffffffffffffffffffffffffffffffffffffffffffffff0483118215151615612a1157612a10612b1a565b5b828202905092915050565b6000612a2782612a4d565b9050919050565b60008115159050919050565b6000819050612a4882612fe2565b919050565b600073ffffffffffffffffffffffffffffffffffffffff82169050919050565b6000819050919050565b6000612a8282612a89565b9050919050565b6000612a9482612a4d565b9050919050565b6000612aa682612aad565b9050919050565b6000612ab882612a4d565b9050919050565b6000612aca82612a3a565b9050919050565b6000612adc82612a6d565b91507fffffffffffffffffffffffffffffffffffffffffffffffffffffffffffffffff821415612b0f57612b0e612b1a565b5b600182019050919050565b7f4e487b7100000000000000000000000000000000000000000000000000000000600052601160045260246000fd5b7f4e487b7100000000000000000000000000000000000000000000000000000000600052602160045260246000fd5b7f43616c6c6572206973206e6f7420746865206f776e6572000000000000000000600082015250565b7f426964206d7573742062652067726561746572207468616e207468652063757260008201527f72656e7420686967686573742062696400000000000000000000000000000000602082015250565b7f4f6e6c792063726561746f722063616e2073746172742061756374696f6e0000600082015250565b7f4e4654206e6f74206465706f7369746564000000000000000000000000000000600082015250565b7f41756374696f6e206e6f74206163746976650000000000000000000000000000600082015250565b7f41756374696f6e2068617320656e646564000000000000000000000000000000600082015250565b7f4e4654206e6f7420766572696669656400000000000000000000000000000000600082015250565b7f43726561746f722063616e6e6f74206269640000000000000000000000000000600082015250565b7f41756374696f6e20646f6573206e6f7420657869737400000000000000000000600082015250565b7f5374617274696e67207072696365206d7573742062652067726561746572207460008201527f68616e2030000000000000000000000000000000000000000000000000000000602082015250565b7f4f6e6c792063726561746f722063616e2066696e616c697a6500000000000000600082015250565b7f41756374696f6e206e6f742079657420656e6465640000000000000000000000600082015250565b7f4372656174696e672061756374696f6e2077697468206475726174696f6e202860008201527f6d696e7574657329000000000000000000000000000000000000000000000000602082015250565b7f41756374696f6e206475726174696f6e206d757374206265206772656174657260008201527f207468616e203000000000000000000000000000000000000000000000000000602082015250565b7f41756374696f6e206e6f7420696e204372656174656420737461746500000000600082015250565b7f4e4654206e6f74206465706f7369746564207965740000000000000000000000600082015250565b7f436f6e7472616374206e6f7420617070726f76656420666f72204e4654000000600082015250565b7f4475726174696f6e20696e207365636f6e647300000000000000000000000000600082015250565b7f4f6e6c792063726561746f722063616e2063616e63656c2061756374696f6e00600082015250565b7f426964206d7573742062652067726561746572207468616e206f72206571756160008201527f6c20746f20746865207374617274207072696365000000000000000000000000602082015250565b7f4e465420616c7265616479206465706f73697465640000000000000000000000600082015250565b7f41756374696f6e20616c726561647920656e646564206f722063616e63656c6c60008201527f6564000000000000000000000000000000000000000000000000000000000000602082015250565b60048110612ff357612ff2612b49565b5b50565b612fff81612a1c565b811461300a57600080fd5b50565b61301681612a2e565b811461302157600080fd5b50565b61302d81612a6d565b811461303857600080fd5b5056fea2646970667358221220d51433c1550601346702e1a2a952d931cdc27577d3a1a9eb36aeb6ed7c9b52b964736f6c63430008010033",
  "immutableReferences": {},
  "source": "// SPDX-License-Identifier: MIT\r\npragma solidity ^0.8.0;\r\n\r\nimport \"@openzeppelin/contracts/token/ERC721/IERC721.sol\";\r\nimport \"./NFTVerifier.sol\";\r\n\r\ncontract NFTAuction {\r\n    NFTVerifier public verifier;\r\n\r\n    enum AuctionState {\r\n        Created,    // u gi  c to nhng cha bt u\r\n        Active,     // u gi ang din ra (NFT  c chuyn)\r\n        Ended,      // u gi  kt thc\r\n        Cancelled   // u gi  b hy\r\n    }\r\n\r\n    struct Auction {\r\n        address creator;           // a ch ngi to u gi\r\n        IERC721 nftContract;       // a ch hp ng NFT\r\n        uint256 tokenId;           // ID ca token ang u gi\r\n        uint256 startPrice;        // Gi khi im\r\n        uint256 endTime;           // Thi gian kt thc\r\n        address highestBidder;     // Ngi tr gi cao nht\r\n        uint256 highestBid;        // Gi cao nht hin ti\r\n        AuctionState state;        // Trng thi u gi\r\n        bool nftDeposited;         // NFT  c chuyn vo contract cha\r\n    }\r\n\r\n    // Lu tr thng tin cc phin u gi theo ID\r\n    mapping(uint256 => Auction) public auctions;\r\n    uint256 public auctionCounter;\r\n\r\n    // Theo di phin u gi ang hot ng ca mi token\r\n    mapping(uint256 => uint256) public activeAuctionByToken;\r\n\r\n    // Lu tr s tin cn hon tr cho ngi u gi\r\n    mapping(uint256 => mapping(address => uint256)) public pendingReturns;\r\n\r\n    event VerificationRequired(uint256 tokenId, address creator);\r\n    event AuctionCreated(uint256 auctionId, address creator, address nftContract, uint256 tokenId, uint256 startPrice, uint256 endTime);\r\n    event AuctionStarted(uint256 auctionId, address starter);\r\n    event NewBid(uint256 auctionId, address bidder, uint256 amount);\r\n    event AuctionEnded(uint256 auctionId, address winner, uint256 amount);\r\n    event AuctionCancelled(uint256 auctionId);\r\n    event Refunded(address bidder, uint256 amount);\r\n    event DebugLog(string message, uint256 value);\r\n\r\n    constructor(address _verifierAddress) {\r\n        verifier = NFTVerifier(_verifierAddress);\r\n    }\r\n\r\n    function setVerifier(address _verifierAddress) external {\r\n        // C th thm quyn admin  y\r\n        verifier = NFTVerifier(_verifierAddress);\r\n    }\r\n\r\n    // Hm to phin u gi mi (khng chuyn NFT)\r\n    function createAuction(\r\n        address _nftContract,\r\n        uint256 _tokenId,\r\n        uint256 _startPrice,\r\n        uint256 _auctionDuration\r\n    ) external {\r\n        require(_startPrice > 0, \"Starting price must be greater than 0\");\r\n        require(_auctionDuration > 0, \"Auction duration must be greater than 0\");\r\n        require(verifier.isNFTVerified(_tokenId), \"NFT not verified\");\r\n\r\n        IERC721 nft = IERC721(_nftContract);\r\n        require(nft.ownerOf(_tokenId) == msg.sender, \"Caller is not the owner\");\r\n        \r\n        emit DebugLog(\"Creating auction with duration (minutes)\", _auctionDuration);\r\n        \r\n        // Chuyn i t pht thnh giy\r\n        uint256 durationInSeconds = _auctionDuration * 60;\r\n        emit DebugLog(\"Duration in seconds\", durationInSeconds);\r\n\r\n        auctionCounter++;\r\n        Auction storage newAuction = auctions[auctionCounter];\r\n        newAuction.creator = msg.sender;\r\n        newAuction.tokenId = _tokenId;\r\n        newAuction.nftContract = nft;\r\n        newAuction.startPrice = _startPrice;\r\n        newAuction.highestBid = _startPrice;\r\n        newAuction.endTime = block.timestamp + durationInSeconds;\r\n        newAuction.state = AuctionState.Created;\r\n        newAuction.nftDeposited = false;\r\n\r\n        activeAuctionByToken[_tokenId] = auctionCounter;\r\n\r\n        emit AuctionCreated(\r\n            auctionCounter,\r\n            msg.sender,\r\n            _nftContract,\r\n            _tokenId,\r\n            _startPrice,\r\n            newAuction.endTime\r\n        );\r\n    }\r\n\r\n    // Hm bt u u gi (chuyn NFT vo contract)\r\n    function startAuction(uint256 _auctionId) external {\r\n        Auction storage auction = auctions[_auctionId];\r\n        \r\n        require(auction.creator == msg.sender, \"Only creator can start auction\");\r\n        require(auction.state == AuctionState.Created, \"Auction not in Created state\");\r\n        require(!auction.nftDeposited, \"NFT already deposited\");\r\n        \r\n        // Kim tra ph duyt\r\n        require(\r\n            auction.nftContract.getApproved(auction.tokenId) == address(this),\r\n            \"Contract not approved for NFT\"\r\n        );\r\n        \r\n        // Chuyn NFT vo contract\r\n        auction.nftContract.transferFrom(msg.sender, address(this), auction.tokenId);\r\n        \r\n        // Cp nht trng thi\r\n        auction.state = AuctionState.Active;\r\n        auction.nftDeposited = true;\r\n        \r\n        emit AuctionStarted(_auctionId, msg.sender);\r\n    }\r\n\r\n    // Hm t gi thu\r\n    function bid(uint256 _auctionId) public payable {\r\n        Auction storage auction = auctions[_auctionId];\r\n        \r\n        require(auction.creator != address(0), \"Auction does not exist\");\r\n        require(auction.state == AuctionState.Active, \"Auction not active\");\r\n        require(auction.nftDeposited, \"NFT not deposited yet\");\r\n        require(block.timestamp <= auction.endTime, \"Auction has ended\");\r\n        require(msg.sender != auction.creator, \"Creator cannot bid\");\r\n        require(\r\n            msg.value >= auction.startPrice,\r\n            \"Bid must be greater than or equal to the start price\"\r\n        );\r\n        require(\r\n            msg.value > auction.highestBid,\r\n            \"Bid must be greater than the current highest bid\"\r\n        );\r\n\r\n        // Hon tin cho ngi u gi trc\r\n        if (auction.highestBidder != address(0)) {\r\n            payable(auction.highestBidder).transfer(auction.highestBid);\r\n            emit Refunded(auction.highestBidder, auction.highestBid);\r\n        }\r\n\r\n        auction.highestBidder = msg.sender;\r\n        auction.highestBid = msg.value;\r\n\r\n        emit NewBid(_auctionId, msg.sender, msg.value);\r\n    }\r\n\r\n    // Hm hy phin u gi\r\n    function cancelAuction(uint256 _auctionId) public {\r\n        Auction storage auction = auctions[_auctionId];\r\n        \r\n        require(auction.creator != address(0), \"Auction does not exist\");\r\n        require(msg.sender == auction.creator, \"Only creator can cancel auction\");\r\n        require(auction.state != AuctionState.Ended && auction.state != AuctionState.Cancelled, \r\n                \"Auction already ended or cancelled\");\r\n\r\n        auction.state = AuctionState.Cancelled;\r\n        \r\n        // Nu NFT  c chuyn vo contract, tr li cho ngi to\r\n        if (auction.nftDeposited) {\r\n            auction.nftContract.transferFrom(address(this), auction.creator, auction.tokenId);\r\n        }\r\n\r\n        // Hon tin cho ngi u gi cao nht nu c\r\n        if (auction.highestBidder != address(0)) {\r\n            payable(auction.highestBidder).transfer(auction.highestBid);\r\n            emit Refunded(auction.highestBidder, auction.highestBid);\r\n        }\r\n\r\n        // Clear active auction for the token\r\n        activeAuctionByToken[auction.tokenId] = 0;\r\n        \r\n        emit AuctionCancelled(_auctionId);\r\n    }\r\n\r\n    // Hm kt thc v thanh ton phin u gi\r\n    function finalizeAuction(uint256 _auctionId) public {\r\n        Auction storage auction = auctions[_auctionId];\r\n        \r\n        require(auction.creator != address(0), \"Auction does not exist\");\r\n        require(block.timestamp > auction.endTime, \"Auction not yet ended\");\r\n        require(auction.state == AuctionState.Active, \"Auction not active\");\r\n        require(auction.nftDeposited, \"NFT not deposited\");\r\n        require(msg.sender == auction.creator, \"Only creator can finalize\");\r\n\r\n        auction.state = AuctionState.Ended;\r\n        \r\n        // Clear active auction for the token\r\n        activeAuctionByToken[auction.tokenId] = 0;\r\n\r\n        if (auction.highestBidder != address(0)) {\r\n            // Chuyn NFT cho ngi thng\r\n            auction.nftContract.transferFrom(address(this), auction.highestBidder, auction.tokenId);\r\n            \r\n            // Chuyn tin cho ngi to\r\n            payable(auction.creator).transfer(auction.highestBid);\r\n        } else {\r\n            // Nu khng c ai u gi, tr NFT li cho ngi to\r\n            auction.nftContract.transferFrom(address(this), auction.creator, auction.tokenId);\r\n        }\r\n\r\n        emit AuctionEnded(_auctionId, auction.highestBidder, auction.highestBid);\r\n    }\r\n\r\n    // Hm ly thng tin u gi\r\n    function getAuction(uint256 _auctionId) external view returns (\r\n        address creator,\r\n        address nftContract,\r\n        uint256 tokenId,\r\n        uint256 startPrice,\r\n        uint256 endTime,\r\n        address highestBidder,\r\n        uint256 highestBid,\r\n        uint256 state,\r\n        bool nftDeposited\r\n    ) {\r\n        Auction storage auction = auctions[_auctionId];\r\n        return (\r\n            auction.creator,\r\n            address(auction.nftContract),\r\n            auction.tokenId,\r\n            auction.startPrice,\r\n            auction.endTime,\r\n            auction.highestBidder,\r\n            auction.highestBid,\r\n            uint256(auction.state),\r\n            auction.nftDeposited\r\n        );\r\n    }\r\n\r\n    function requestVerification(uint256 _tokenId) external {\r\n        // Forward the verification request to the NFTVerifier contract\r\n        verifier.requestVerification(_tokenId);\r\n        emit VerificationRequired(_tokenId, msg.sender);\r\n    }\r\n}",
  "sourcePath": "D:\\Users\\trieunth\\Desktop\\Team_Work\\BlockchainBTL\\blockchain-auction\\contracts\\NFTAuction.sol",
  "compiler": {
    "name": "solc",
    "version": "0.8.1+commit.df193b15.Emscripten.clang"
  },
  "schemaVersion": "3.4.16",
  "updatedAt": "2025-03-21T11:59:52.316Z",
  "networkType": "ethereum",
  "devdoc": {
    "kind": "dev",
    "methods": {},
    "version": 1
  },
  "userdoc": {
    "kind": "user",
    "methods": {},
    "version": 1
  }
}