{
  "contractName": "NFTAuction",
  "abi": [
    {
      "inputs": [
        {
          "internalType": "address",
          "name": "_verifierAddress",
          "type": "address"
        }
      ],
      "stateMutability": "nonpayable",
      "type": "constructor"
    },
    {
      "anonymous": false,
      "inputs": [
        {
          "indexed": false,
          "internalType": "uint256",
          "name": "auctionId",
          "type": "uint256"
        }
      ],
      "name": "AuctionCancelled",
      "type": "event"
    },
    {
      "anonymous": false,
      "inputs": [
        {
          "indexed": false,
          "internalType": "uint256",
          "name": "auctionId",
          "type": "uint256"
        },
        {
          "indexed": false,
          "internalType": "address",
          "name": "creator",
          "type": "address"
        },
        {
          "indexed": false,
          "internalType": "uint256",
          "name": "tokenId",
          "type": "uint256"
        },
        {
          "indexed": false,
          "internalType": "uint256",
          "name": "startPrice",
          "type": "uint256"
        },
        {
          "indexed": false,
          "internalType": "uint256",
          "name": "endTime",
          "type": "uint256"
        }
      ],
      "name": "AuctionCreated",
      "type": "event"
    },
    {
      "anonymous": false,
      "inputs": [
        {
          "indexed": false,
          "internalType": "uint256",
          "name": "auctionId",
          "type": "uint256"
        },
        {
          "indexed": false,
          "internalType": "address",
          "name": "winner",
          "type": "address"
        },
        {
          "indexed": false,
          "internalType": "uint256",
          "name": "amount",
          "type": "uint256"
        }
      ],
      "name": "AuctionEnded",
      "type": "event"
    },
    {
      "anonymous": false,
      "inputs": [
        {
          "indexed": false,
          "internalType": "uint256",
          "name": "auctionId",
          "type": "uint256"
        },
        {
          "indexed": false,
          "internalType": "address",
          "name": "bidder",
          "type": "address"
        },
        {
          "indexed": false,
          "internalType": "uint256",
          "name": "amount",
          "type": "uint256"
        }
      ],
      "name": "NewBid",
      "type": "event"
    },
    {
      "anonymous": false,
      "inputs": [
        {
          "indexed": false,
          "internalType": "address",
          "name": "bidder",
          "type": "address"
        },
        {
          "indexed": false,
          "internalType": "uint256",
          "name": "amount",
          "type": "uint256"
        }
      ],
      "name": "Refunded",
      "type": "event"
    },
    {
      "anonymous": false,
      "inputs": [
        {
          "indexed": false,
          "internalType": "uint256",
          "name": "tokenId",
          "type": "uint256"
        },
        {
          "indexed": false,
          "internalType": "address",
          "name": "creator",
          "type": "address"
        }
      ],
      "name": "VerificationRequired",
      "type": "event"
    },
    {
      "inputs": [
        {
          "internalType": "uint256",
          "name": "",
          "type": "uint256"
        }
      ],
      "name": "activeAuctionByToken",
      "outputs": [
        {
          "internalType": "uint256",
          "name": "",
          "type": "uint256"
        }
      ],
      "stateMutability": "view",
      "type": "function",
      "constant": true
    },
    {
      "inputs": [],
      "name": "auctionCounter",
      "outputs": [
        {
          "internalType": "uint256",
          "name": "",
          "type": "uint256"
        }
      ],
      "stateMutability": "view",
      "type": "function",
      "constant": true
    },
    {
      "inputs": [
        {
          "internalType": "uint256",
          "name": "",
          "type": "uint256"
        }
      ],
      "name": "auctions",
      "outputs": [
        {
          "internalType": "address",
          "name": "creator",
          "type": "address"
        },
        {
          "internalType": "contract IERC721",
          "name": "nftContract",
          "type": "address"
        },
        {
          "internalType": "uint256",
          "name": "tokenId",
          "type": "uint256"
        },
        {
          "internalType": "uint256",
          "name": "startPrice",
          "type": "uint256"
        },
        {
          "internalType": "uint256",
          "name": "endTime",
          "type": "uint256"
        },
        {
          "internalType": "address",
          "name": "highestBidder",
          "type": "address"
        },
        {
          "internalType": "uint256",
          "name": "highestBid",
          "type": "uint256"
        },
        {
          "internalType": "bool",
          "name": "ended",
          "type": "bool"
        }
      ],
      "stateMutability": "view",
      "type": "function",
      "constant": true
    },
    {
      "inputs": [
        {
          "internalType": "uint256",
          "name": "",
          "type": "uint256"
        },
        {
          "internalType": "address",
          "name": "",
          "type": "address"
        }
      ],
      "name": "pendingReturns",
      "outputs": [
        {
          "internalType": "uint256",
          "name": "",
          "type": "uint256"
        }
      ],
      "stateMutability": "view",
      "type": "function",
      "constant": true
    },
    {
      "inputs": [],
      "name": "verifier",
      "outputs": [
        {
          "internalType": "contract NFTVerifier",
          "name": "",
          "type": "address"
        }
      ],
      "stateMutability": "view",
      "type": "function",
      "constant": true
    },
    {
      "inputs": [
        {
          "internalType": "address",
          "name": "_verifierAddress",
          "type": "address"
        }
      ],
      "name": "setVerifier",
      "outputs": [],
      "stateMutability": "nonpayable",
      "type": "function"
    },
    {
      "inputs": [
        {
          "internalType": "address",
          "name": "_nftContract",
          "type": "address"
        },
        {
          "internalType": "uint256",
          "name": "_tokenId",
          "type": "uint256"
        },
        {
          "internalType": "uint256",
          "name": "_startPrice",
          "type": "uint256"
        },
        {
          "internalType": "uint256",
          "name": "_auctionDuration",
          "type": "uint256"
        }
      ],
      "name": "createAuction",
      "outputs": [],
      "stateMutability": "nonpayable",
      "type": "function"
    },
    {
      "inputs": [
        {
          "internalType": "uint256",
          "name": "_tokenId",
          "type": "uint256"
        }
      ],
      "name": "requestVerification",
      "outputs": [],
      "stateMutability": "nonpayable",
      "type": "function"
    },
    {
      "inputs": [
        {
          "internalType": "contract IERC721",
          "name": "_nftContract",
          "type": "address"
        },
        {
          "internalType": "uint256",
          "name": "_tokenId",
          "type": "uint256"
        }
      ],
      "name": "requestVerification",
      "outputs": [],
      "stateMutability": "nonpayable",
      "type": "function"
    },
    {
      "inputs": [
        {
          "internalType": "uint256",
          "name": "_auctionId",
          "type": "uint256"
        }
      ],
      "name": "bid",
      "outputs": [],
      "stateMutability": "payable",
      "type": "function",
      "payable": true
    },
    {
      "inputs": [
        {
          "internalType": "uint256",
          "name": "_auctionId",
          "type": "uint256"
        }
      ],
      "name": "cancelAuction",
      "outputs": [],
      "stateMutability": "nonpayable",
      "type": "function"
    },
    {
      "inputs": [
        {
          "internalType": "uint256",
          "name": "_auctionId",
          "type": "uint256"
        }
      ],
      "name": "finalizeAuction",
      "outputs": [],
      "stateMutability": "nonpayable",
      "type": "function"
    },
    {
      "inputs": [
        {
          "internalType": "uint256",
          "name": "_auctionId",
          "type": "uint256"
        }
      ],
      "name": "endAuction",
      "outputs": [],
      "stateMutability": "nonpayable",
      "type": "function"
    }
  ],
  "bytecode": "0x60806040523480156200001157600080fd5b5060405162002b8d38038062002b8d833981810160405281019062000037919062000095565b806000806101000a81548173ffffffffffffffffffffffffffffffffffffffff021916908373ffffffffffffffffffffffffffffffffffffffff160217905550506200010f565b6000815190506200008f81620000f5565b92915050565b600060208284031215620000a857600080fd5b6000620000b8848285016200007e565b91505092915050565b6000620000ce82620000d5565b9050919050565b600073ffffffffffffffffffffffffffffffffffffffff82169050919050565b6200010081620000c1565b81146200010c57600080fd5b50565b612a6e806200011f6000396000f3fe6080604052600436106100c25760003560e01c80638ddac1ef1161007f578063b9a2de3a11610059578063b9a2de3a1461025e578063dddb77d314610287578063e8083863146102b0578063ed9559f7146102d9576100c2565b80638ddac1ef146101cd57806396b5a7551461020a578063a7e7664414610233576100c2565b80630c020f08146100c75780632b7ac3f3146100f0578063454a2ab31461011b5780635437988d14610137578063571a26a01461016057806361beb1d7146101a4575b600080fd5b3480156100d357600080fd5b506100ee60048036038101906100e99190611d1c565b610316565b005b3480156100fc57600080fd5b506101056103dd565b6040516101129190612120565b60405180910390f35b61013560048036038101906101309190611d1c565b610401565b005b34801561014357600080fd5b5061015e60048036038101906101599190611c02565b610819565b005b34801561016c57600080fd5b5061018760048036038101906101829190611d1c565b61085c565b60405161019b989796959493929190612079565b60405180910390f35b3480156101b057600080fd5b506101cb60048036038101906101c69190611c54565b610911565b005b3480156101d957600080fd5b506101f460048036038101906101ef9190611d45565b610dbd565b604051610201919061237b565b60405180910390f35b34801561021657600080fd5b50610231600480360381019061022c9190611d1c565b610de2565b005b34801561023f57600080fd5b50610248611169565b604051610255919061237b565b60405180910390f35b34801561026a57600080fd5b5061028560048036038101906102809190611d1c565b61116f565b005b34801561029357600080fd5b506102ae60048036038101906102a99190611ce0565b611595565b005b3480156102bc57600080fd5b506102d760048036038101906102d29190611d1c565b6116c8565b005b3480156102e557600080fd5b5061030060048036038101906102fb9190611d1c565b611b81565b60405161030d919061237b565b60405180910390f35b60008054906101000a900473ffffffffffffffffffffffffffffffffffffffff1673ffffffffffffffffffffffffffffffffffffffff16630c020f08826040518263ffffffff1660e01b815260040161036f919061237b565b600060405180830381600087803b15801561038957600080fd5b505af115801561039d573d6000803e3d6000fd5b505050507f02f062e1a1d45294e62a66f3d9f505cbe08ced279c503bb0c7b682231201314081336040516103d2929190612396565b60405180910390a150565b60008054906101000a900473ffffffffffffffffffffffffffffffffffffffff1681565b6000600160008381526020019081526020016000209050600073ffffffffffffffffffffffffffffffffffffffff168160000160009054906101000a900473ffffffffffffffffffffffffffffffffffffffff1673ffffffffffffffffffffffffffffffffffffffff1614156104ac576040517f08c379a00000000000000000000000000000000000000000000000000000000081526004016104a39061225b565b60405180910390fd5b8060070160009054906101000a900460ff16156104fe576040517f08c379a00000000000000000000000000000000000000000000000000000000081526004016104f5906121fb565b60405180910390fd5b8060040154421115610545576040517f08c379a000000000000000000000000000000000000000000000000000000000815260040161053c906121fb565b60405180910390fd5b8060000160009054906101000a900473ffffffffffffffffffffffffffffffffffffffff1673ffffffffffffffffffffffffffffffffffffffff163373ffffffffffffffffffffffffffffffffffffffff1614156105d8576040517f08c379a00000000000000000000000000000000000000000000000000000000081526004016105cf9061223b565b60405180910390fd5b806003015434101561061f576040517f08c379a00000000000000000000000000000000000000000000000000000000081526004016106169061233b565b60405180910390fd5b80600601543411610665576040517f08c379a000000000000000000000000000000000000000000000000000000000815260040161065c9061217b565b60405180910390fd5b600073ffffffffffffffffffffffffffffffffffffffff168160050160009054906101000a900473ffffffffffffffffffffffffffffffffffffffff1673ffffffffffffffffffffffffffffffffffffffff161461078e578060050160009054906101000a900473ffffffffffffffffffffffffffffffffffffffff1673ffffffffffffffffffffffffffffffffffffffff166108fc82600601549081150290604051600060405180830381858888f1935050505015801561072b573d6000803e3d6000fd5b507fd7dee2702d63ad89917b6a4da9981c90c4d24f8c2bdfd64c604ecae57d8d06518160050160009054906101000a900473ffffffffffffffffffffffffffffffffffffffff1682600601546040516107859291906120f7565b60405180910390a15b338160050160006101000a81548173ffffffffffffffffffffffffffffffffffffffff021916908373ffffffffffffffffffffffffffffffffffffffff1602179055503481600601819055507f558a0d5d5468d74b0db24c74eb348b42271c2ebb4c9e953ced38aaed95fa436182333460405161080d939291906123bf565b60405180910390a15050565b806000806101000a81548173ffffffffffffffffffffffffffffffffffffffff021916908373ffffffffffffffffffffffffffffffffffffffff16021790555050565b60016020528060005260406000206000915090508060000160009054906101000a900473ffffffffffffffffffffffffffffffffffffffff16908060010160009054906101000a900473ffffffffffffffffffffffffffffffffffffffff16908060020154908060030154908060040154908060050160009054906101000a900473ffffffffffffffffffffffffffffffffffffffff16908060060154908060070160009054906101000a900460ff16905088565b60008211610954576040517f08c379a000000000000000000000000000000000000000000000000000000000815260040161094b9061227b565b60405180910390fd5b60008111610997576040517f08c379a000000000000000000000000000000000000000000000000000000000815260040161098e906122fb565b60405180910390fd5b60008054906101000a900473ffffffffffffffffffffffffffffffffffffffff1673ffffffffffffffffffffffffffffffffffffffff16632c2b54f4846040518263ffffffff1660e01b81526004016109f0919061237b565b60206040518083038186803b158015610a0857600080fd5b505afa158015610a1c573d6000803e3d6000fd5b505050506040513d601f19601f82011682018060405250810190610a409190611cb7565b610a7f576040517f08c379a0000000000000000000000000000000000000000000000000000000008152600401610a769061221b565b60405180910390fd5b60008490503373ffffffffffffffffffffffffffffffffffffffff168173ffffffffffffffffffffffffffffffffffffffff16636352211e866040518263ffffffff1660e01b8152600401610ad4919061237b565b60206040518083038186803b158015610aec57600080fd5b505afa158015610b00573d6000803e3d6000fd5b505050506040513d601f19601f82011682018060405250810190610b249190611c2b565b73ffffffffffffffffffffffffffffffffffffffff1614610b7a576040517f08c379a0000000000000000000000000000000000000000000000000000000008152600401610b719061215b565b60405180910390fd5b3073ffffffffffffffffffffffffffffffffffffffff168173ffffffffffffffffffffffffffffffffffffffff1663081812fc866040518263ffffffff1660e01b8152600401610bca919061237b565b60206040518083038186803b158015610be257600080fd5b505afa158015610bf6573d6000803e3d6000fd5b505050506040513d601f19601f82011682018060405250810190610c1a9190611c2b565b73ffffffffffffffffffffffffffffffffffffffff1614610c70576040517f08c379a0000000000000000000000000000000000000000000000000000000008152600401610c67906121db565b60405180910390fd5b60026000815480929190610c8390612552565b919050555060006001600060025481526020019081526020016000209050338160000160006101000a81548173ffffffffffffffffffffffffffffffffffffffff021916908373ffffffffffffffffffffffffffffffffffffffff160217905550848160020181905550818160010160006101000a81548173ffffffffffffffffffffffffffffffffffffffff021916908373ffffffffffffffffffffffffffffffffffffffff1602179055508381600301819055508381600601819055508242610d4e919061245a565b816004018190555060025460036000878152602001908152602001600020819055507f05f9bf100dd0ca9f37f08e0526690286d357ed7d6c5a4ac29730440b6e2dfd626002543387878560040154604051610dad9594939291906123f6565b60405180910390a1505050505050565b6004602052816000526040600020602052806000526040600020600091509150505481565b6000600160008381526020019081526020016000209050600073ffffffffffffffffffffffffffffffffffffffff168160000160009054906101000a900473ffffffffffffffffffffffffffffffffffffffff1673ffffffffffffffffffffffffffffffffffffffff161415610e8d576040517f08c379a0000000000000000000000000000000000000000000000000000000008152600401610e849061225b565b60405180910390fd5b8060000160009054906101000a900473ffffffffffffffffffffffffffffffffffffffff1673ffffffffffffffffffffffffffffffffffffffff163373ffffffffffffffffffffffffffffffffffffffff1614610f1f576040517f08c379a0000000000000000000000000000000000000000000000000000000008152600401610f169061231b565b60405180910390fd5b8060070160009054906101000a900460ff1615610f71576040517f08c379a0000000000000000000000000000000000000000000000000000000008152600401610f68906121bb565b60405180910390fd5b60018160070160006101000a81548160ff0219169083151502179055508060010160009054906101000a900473ffffffffffffffffffffffffffffffffffffffff1673ffffffffffffffffffffffffffffffffffffffff166323b872dd308360000160009054906101000a900473ffffffffffffffffffffffffffffffffffffffff1684600201546040518463ffffffff1660e01b815260040161101793929190612042565b600060405180830381600087803b15801561103157600080fd5b505af1158015611045573d6000803e3d6000fd5b50505050600073ffffffffffffffffffffffffffffffffffffffff168160050160009054906101000a900473ffffffffffffffffffffffffffffffffffffffff1673ffffffffffffffffffffffffffffffffffffffff1614611111578060050160009054906101000a900473ffffffffffffffffffffffffffffffffffffffff1673ffffffffffffffffffffffffffffffffffffffff166108fc82600601549081150290604051600060405180830381858888f1935050505015801561110f573d6000803e3d6000fd5b505b60006003600083600201548152602001908152602001600020819055507f2809c7e17bf978fbc7194c0a694b638c4215e9140cacc6c38ca36010b45697df8260405161115d919061237b565b60405180910390a15050565b60025481565b600060016000838152602001908152602001600020905080600401544210156111cd576040517f08c379a00000000000000000000000000000000000000000000000000000000081526004016111c49061219b565b60405180910390fd5b8060070160009054906101000a900460ff161561121f576040517f08c379a00000000000000000000000000000000000000000000000000000000081526004016112169061213b565b60405180910390fd5b8060000160009054906101000a900473ffffffffffffffffffffffffffffffffffffffff1673ffffffffffffffffffffffffffffffffffffffff163373ffffffffffffffffffffffffffffffffffffffff16146112b1576040517f08c379a00000000000000000000000000000000000000000000000000000000081526004016112a8906122bb565b60405180910390fd5b60018160070160006101000a81548160ff0219169083151502179055506000600360008360020154815260200190815260200160002081905550600073ffffffffffffffffffffffffffffffffffffffff168160050160009054906101000a900473ffffffffffffffffffffffffffffffffffffffff1673ffffffffffffffffffffffffffffffffffffffff1614611472578060000160009054906101000a900473ffffffffffffffffffffffffffffffffffffffff1673ffffffffffffffffffffffffffffffffffffffff166108fc82600601549081150290604051600060405180830381858888f193505050501580156113b1573d6000803e3d6000fd5b508060010160009054906101000a900473ffffffffffffffffffffffffffffffffffffffff1673ffffffffffffffffffffffffffffffffffffffff166323b872dd308360050160009054906101000a900473ffffffffffffffffffffffffffffffffffffffff1684600201546040518463ffffffff1660e01b815260040161143b93929190612042565b600060405180830381600087803b15801561145557600080fd5b505af1158015611469573d6000803e3d6000fd5b5050505061152e565b8060010160009054906101000a900473ffffffffffffffffffffffffffffffffffffffff1673ffffffffffffffffffffffffffffffffffffffff166323b872dd308360000160009054906101000a900473ffffffffffffffffffffffffffffffffffffffff1684600201546040518463ffffffff1660e01b81526004016114fb93929190612042565b600060405180830381600087803b15801561151557600080fd5b505af1158015611529573d6000803e3d6000fd5b505050505b7fd2aa34a4fdbbc6dff6a3e56f46e0f3ae2a31d7785ff3487aa5c95c642acea501828260050160009054906101000a900473ffffffffffffffffffffffffffffffffffffffff168360060154604051611589939291906123bf565b60405180910390a15050565b3373ffffffffffffffffffffffffffffffffffffffff168273ffffffffffffffffffffffffffffffffffffffff16636352211e836040518263ffffffff1660e01b81526004016115e5919061237b565b60206040518083038186803b1580156115fd57600080fd5b505afa158015611611573d6000803e3d6000fd5b505050506040513d601f19601f820116820180604052508101906116359190611c2b565b73ffffffffffffffffffffffffffffffffffffffff161461168b576040517f08c379a00000000000000000000000000000000000000000000000000000000081526004016116829061235b565b60405180910390fd5b7f02f062e1a1d45294e62a66f3d9f505cbe08ced279c503bb0c7b682231201314081336040516116bc929190612396565b60405180910390a15050565b6000600160008381526020019081526020016000209050600073ffffffffffffffffffffffffffffffffffffffff168160000160009054906101000a900473ffffffffffffffffffffffffffffffffffffffff1673ffffffffffffffffffffffffffffffffffffffff161415611773576040517f08c379a000000000000000000000000000000000000000000000000000000000815260040161176a9061225b565b60405180910390fd5b806004015442116117b9576040517f08c379a00000000000000000000000000000000000000000000000000000000081526004016117b0906122db565b60405180910390fd5b8060070160009054906101000a900460ff161561180b576040517f08c379a0000000000000000000000000000000000000000000000000000000008152600401611802906121bb565b60405180910390fd5b8060000160009054906101000a900473ffffffffffffffffffffffffffffffffffffffff1673ffffffffffffffffffffffffffffffffffffffff163373ffffffffffffffffffffffffffffffffffffffff161461189d576040517f08c379a00000000000000000000000000000000000000000000000000000000081526004016118949061229b565b60405180910390fd5b60018160070160006101000a81548160ff0219169083151502179055506000600360008360020154815260200190815260200160002081905550600073ffffffffffffffffffffffffffffffffffffffff168160050160009054906101000a900473ffffffffffffffffffffffffffffffffffffffff1673ffffffffffffffffffffffffffffffffffffffff1614611a5e578060010160009054906101000a900473ffffffffffffffffffffffffffffffffffffffff1673ffffffffffffffffffffffffffffffffffffffff166323b872dd308360050160009054906101000a900473ffffffffffffffffffffffffffffffffffffffff1684600201546040518463ffffffff1660e01b81526004016119b893929190612042565b600060405180830381600087803b1580156119d257600080fd5b505af11580156119e6573d6000803e3d6000fd5b505050508060000160009054906101000a900473ffffffffffffffffffffffffffffffffffffffff1673ffffffffffffffffffffffffffffffffffffffff166108fc82600601549081150290604051600060405180830381858888f19350505050158015611a58573d6000803e3d6000fd5b50611b1a565b8060010160009054906101000a900473ffffffffffffffffffffffffffffffffffffffff1673ffffffffffffffffffffffffffffffffffffffff166323b872dd308360000160009054906101000a900473ffffffffffffffffffffffffffffffffffffffff1684600201546040518463ffffffff1660e01b8152600401611ae793929190612042565b600060405180830381600087803b158015611b0157600080fd5b505af1158015611b15573d6000803e3d6000fd5b505050505b7fd2aa34a4fdbbc6dff6a3e56f46e0f3ae2a31d7785ff3487aa5c95c642acea501828260050160009054906101000a900473ffffffffffffffffffffffffffffffffffffffff168360060154604051611b75939291906123bf565b60405180910390a15050565b60036020528060005260406000206000915090505481565b600081359050611ba8816129dc565b92915050565b600081519050611bbd816129dc565b92915050565b600081519050611bd2816129f3565b92915050565b600081359050611be781612a0a565b92915050565b600081359050611bfc81612a21565b92915050565b600060208284031215611c1457600080fd5b6000611c2284828501611b99565b91505092915050565b600060208284031215611c3d57600080fd5b6000611c4b84828501611bae565b91505092915050565b60008060008060808587031215611c6a57600080fd5b6000611c7887828801611b99565b9450506020611c8987828801611bed565b9350506040611c9a87828801611bed565b9250506060611cab87828801611bed565b91505092959194509250565b600060208284031215611cc957600080fd5b6000611cd784828501611bc3565b91505092915050565b60008060408385031215611cf357600080fd5b6000611d0185828601611bd8565b9250506020611d1285828601611bed565b9150509250929050565b600060208284031215611d2e57600080fd5b6000611d3c84828501611bed565b91505092915050565b60008060408385031215611d5857600080fd5b6000611d6685828601611bed565b9250506020611d7785828601611b99565b9150509250929050565b611d8a816124b0565b82525050565b611d99816124c2565b82525050565b611da88161250a565b82525050565b611db78161252e565b82525050565b6000611dca602c83612449565b9150611dd5826125ca565b604082019050919050565b6000611ded601783612449565b9150611df882612619565b602082019050919050565b6000611e10603083612449565b9150611e1b82612642565b604082019050919050565b6000611e33602483612449565b9150611e3e82612691565b604082019050919050565b6000611e56601583612449565b9150611e61826126e0565b602082019050919050565b6000611e79601583612449565b9150611e8482612709565b602082019050919050565b6000611e9c601183612449565b9150611ea782612732565b602082019050919050565b6000611ebf601083612449565b9150611eca8261275b565b602082019050919050565b6000611ee2601283612449565b9150611eed82612784565b602082019050919050565b6000611f05601683612449565b9150611f10826127ad565b602082019050919050565b6000611f28602583612449565b9150611f33826127d6565b604082019050919050565b6000611f4b601983612449565b9150611f5682612825565b602082019050919050565b6000611f6e603083612449565b9150611f798261284e565b604082019050919050565b6000611f91601583612449565b9150611f9c8261289d565b602082019050919050565b6000611fb4602783612449565b9150611fbf826128c6565b604082019050919050565b6000611fd7601f83612449565b9150611fe282612915565b602082019050919050565b6000611ffa603483612449565b91506120058261293e565b604082019050919050565b600061201d602483612449565b91506120288261298d565b604082019050919050565b61203c81612500565b82525050565b60006060820190506120576000830186611d81565b6120646020830185611d81565b6120716040830184612033565b949350505050565b60006101008201905061208f600083018b611d81565b61209c602083018a611d9f565b6120a96040830189612033565b6120b66060830188612033565b6120c36080830187612033565b6120d060a0830186611d81565b6120dd60c0830185612033565b6120ea60e0830184611d90565b9998505050505050505050565b600060408201905061210c6000830185611d81565b6121196020830184612033565b9392505050565b60006020820190506121356000830184611dae565b92915050565b6000602082019050818103600083015261215481611dbd565b9050919050565b6000602082019050818103600083015261217481611de0565b9050919050565b6000602082019050818103600083015261219481611e03565b9050919050565b600060208201905081810360008301526121b481611e26565b9050919050565b600060208201905081810360008301526121d481611e49565b9050919050565b600060208201905081810360008301526121f481611e6c565b9050919050565b6000602082019050818103600083015261221481611e8f565b9050919050565b6000602082019050818103600083015261223481611eb2565b9050919050565b6000602082019050818103600083015261225481611ed5565b9050919050565b6000602082019050818103600083015261227481611ef8565b9050919050565b6000602082019050818103600083015261229481611f1b565b9050919050565b600060208201905081810360008301526122b481611f3e565b9050919050565b600060208201905081810360008301526122d481611f61565b9050919050565b600060208201905081810360008301526122f481611f84565b9050919050565b6000602082019050818103600083015261231481611fa7565b9050919050565b6000602082019050818103600083015261233481611fca565b9050919050565b6000602082019050818103600083015261235481611fed565b9050919050565b6000602082019050818103600083015261237481612010565b9050919050565b60006020820190506123906000830184612033565b92915050565b60006040820190506123ab6000830185612033565b6123b86020830184611d81565b9392505050565b60006060820190506123d46000830186612033565b6123e16020830185611d81565b6123ee6040830184612033565b949350505050565b600060a08201905061240b6000830188612033565b6124186020830187611d81565b6124256040830186612033565b6124326060830185612033565b61243f6080830184612033565b9695505050505050565b600082825260208201905092915050565b600061246582612500565b915061247083612500565b9250827fffffffffffffffffffffffffffffffffffffffffffffffffffffffffffffffff038211156124a5576124a461259b565b5b828201905092915050565b60006124bb826124e0565b9050919050565b60008115159050919050565b60006124d9826124b0565b9050919050565b600073ffffffffffffffffffffffffffffffffffffffff82169050919050565b6000819050919050565b60006125158261251c565b9050919050565b6000612527826124e0565b9050919050565b600061253982612540565b9050919050565b600061254b826124e0565b9050919050565b600061255d82612500565b91507fffffffffffffffffffffffffffffffffffffffffffffffffffffffffffffffff8214156125905761258f61259b565b5b600182019050919050565b7f4e487b7100000000000000000000000000000000000000000000000000000000600052601160045260246000fd5b7f506869c3aa6e20c491e1baa575206769c3a120c491c3a320c491c6b0e1bba36360008201527f206be1babf74207468c3ba630000000000000000000000000000000000000000602082015250565b7f43616c6c6572206973206e6f7420746865206f776e6572000000000000000000600082015250565b7f426964206d7573742062652067726561746572207468616e207468652063757260008201527f72656e7420686967686573742062696400000000000000000000000000000000602082015250565b7f506869c3aa6e20c491e1baa575206769c3a1206368c6b061206be1babf74207460008201527f68c3ba6300000000000000000000000000000000000000000000000000000000602082015250565b7f41756374696f6e20616c726561647920656e6465640000000000000000000000600082015250565b7f436f6e7472616374206e6f7420617070726f7665640000000000000000000000600082015250565b7f41756374696f6e2068617320656e646564000000000000000000000000000000600082015250565b7f4e4654206e6f7420766572696669656400000000000000000000000000000000600082015250565b7f43726561746f722063616e6e6f74206269640000000000000000000000000000600082015250565b7f41756374696f6e20646f6573206e6f7420657869737400000000000000000000600082015250565b7f5374617274696e67207072696365206d7573742062652067726561746572207460008201527f68616e2030000000000000000000000000000000000000000000000000000000602082015250565b7f4f6e6c792063726561746f722063616e2066696e616c697a6500000000000000600082015250565b7f4368e1bb89206e67c6b0e1bb9d692074e1baa16f206de1bb9b692063c3b3207460008201527f68e1bb83206be1babf74207468c3ba6300000000000000000000000000000000602082015250565b7f41756374696f6e206e6f742079657420656e6465640000000000000000000000600082015250565b7f41756374696f6e206475726174696f6e206d757374206265206772656174657260008201527f207468616e203000000000000000000000000000000000000000000000000000602082015250565b7f4f6e6c792063726561746f722063616e2063616e63656c2061756374696f6e00600082015250565b7f426964206d7573742062652067726561746572207468616e206f72206571756160008201527f6c20746f20746865207374617274207072696365000000000000000000000000602082015250565b7f42e1baa16e206b68c3b46e67207068e1baa369206368e1bba72073e1bb9f206860008201527fe1bbaf7500000000000000000000000000000000000000000000000000000000602082015250565b6129e5816124b0565b81146129f057600080fd5b50565b6129fc816124c2565b8114612a0757600080fd5b50565b612a13816124ce565b8114612a1e57600080fd5b50565b612a2a81612500565b8114612a3557600080fd5b5056fea2646970667358221220a31767c1105be9a51e9a70139d5f2b341302af6162f2fd4c2efd72c7ab32719564736f6c63430008010033",
  "immutableReferences": {},
  "source": "// SPDX-License-Identifier: MIT\r\npragma solidity ^0.8.0;\r\n\r\nimport \"@openzeppelin/contracts/token/ERC721/IERC721.sol\";\r\nimport \"./NFTVerifier.sol\";\r\n\r\ncontract NFTAuction {\r\n    NFTVerifier public verifier;\r\n\r\n    struct Auction {\r\n        address creator; // a ch ngi to u gi\r\n        IERC721 nftContract; // a ch hp ng NFT\r\n        uint256 tokenId; // ID ca token ang u gi\r\n        uint256 startPrice; // Gi khi im\r\n        uint256 endTime; // Thi gian kt thc\r\n        address highestBidder; // Ngi tr gi cao nht\r\n        uint256 highestBid; // Gi cao nht hin ti\r\n        bool ended; // Trng thi  kt thc\r\n    }\r\n\r\n    // Lu tr thng tin cc phin u gi theo ID\r\n    mapping(uint256 => Auction) public auctions;\r\n    uint256 public auctionCounter;\r\n\r\n    // Theo di phin u gi ang hot ng ca mi token\r\n    mapping(uint256 => uint256) public activeAuctionByToken;\r\n\r\n    // Lu tr s tin cn hon tr cho ngi u gi\r\n    mapping(uint256 => mapping(address => uint256)) public pendingReturns;\r\n\r\n    event VerificationRequired(uint256 tokenId, address creator);\r\n\r\n    event AuctionCreated(\r\n        uint256 auctionId,\r\n        address creator,\r\n        uint256 tokenId,\r\n        uint256 startPrice,\r\n        uint256 endTime\r\n    );\r\n    event NewBid(uint256 auctionId, address bidder, uint256 amount);\r\n    event AuctionEnded(uint256 auctionId, address winner, uint256 amount);\r\n    event AuctionCancelled(uint256 auctionId);\r\n    event Refunded(address bidder, uint256 amount);\r\n\r\n    constructor(address _verifierAddress) {\r\n        verifier = NFTVerifier(_verifierAddress);\r\n    }\r\n\r\n    function setVerifier(address _verifierAddress) external {\r\n        // C th thm quyn admin  y\r\n        verifier = NFTVerifier(_verifierAddress);\r\n    }\r\n\r\n    // Hm to phin u gi mi\r\n    function createAuction(\r\n        address _nftContract,\r\n        uint256 _tokenId,\r\n        uint256 _startPrice,\r\n        uint256 _auctionDuration\r\n    ) external {\r\n        require(_startPrice > 0, \"Starting price must be greater than 0\");\r\n        require(\r\n            _auctionDuration > 0,\r\n            \"Auction duration must be greater than 0\"\r\n        );\r\n        require(verifier.isNFTVerified(_tokenId), \"NFT not verified\");\r\n\r\n        IERC721 nft = IERC721(_nftContract);\r\n        require(nft.ownerOf(_tokenId) == msg.sender, \"Caller is not the owner\");\r\n        require(\r\n            nft.getApproved(_tokenId) == address(this),\r\n            \"Contract not approved\"\r\n        );\r\n\r\n        auctionCounter++;\r\n        Auction storage newAuction = auctions[auctionCounter];\r\n        newAuction.creator = msg.sender;\r\n        newAuction.tokenId = _tokenId;\r\n        newAuction.nftContract = nft;\r\n        newAuction.startPrice = _startPrice;\r\n        newAuction.highestBid = _startPrice;\r\n        newAuction.endTime = block.timestamp + _auctionDuration;\r\n\r\n        activeAuctionByToken[_tokenId] = auctionCounter;\r\n\r\n        emit AuctionCreated(\r\n            auctionCounter,\r\n            msg.sender,\r\n            _tokenId,\r\n            _startPrice,\r\n            newAuction.endTime\r\n        );\r\n    }\r\n\r\n    function requestVerification(\r\n        IERC721 _nftContract,\r\n        uint256 _tokenId\r\n    ) public {\r\n        require(\r\n            _nftContract.ownerOf(_tokenId) == msg.sender,\r\n            unicode\"Bn khng phi ch s hu\"\r\n        );\r\n        emit VerificationRequired(_tokenId, msg.sender);\r\n    }\r\n\r\n    // Add a new function to request verification from the auction contract\r\n    function requestVerification(uint256 _tokenId) external {\r\n        // Forward the verification request to the NFTVerifier contract\r\n        verifier.requestVerification(_tokenId);\r\n        emit VerificationRequired(_tokenId, msg.sender);\r\n    }\r\n\r\n    // Hm t gi thu\r\n    function bid(uint256 _auctionId) public payable {\r\n        Auction storage auction = auctions[_auctionId];\r\n        require(auction.creator != address(0), \"Auction does not exist\");\r\n        require(!auction.ended, \"Auction has ended\");\r\n        require(block.timestamp <= auction.endTime, \"Auction has ended\");\r\n        require(msg.sender != auction.creator, \"Creator cannot bid\");\r\n        require(\r\n            msg.value >= auction.startPrice,\r\n            \"Bid must be greater than or equal to the start price\"\r\n        );\r\n        require(\r\n            msg.value > auction.highestBid,\r\n            \"Bid must be greater than the current highest bid\"\r\n        );\r\n\r\n        // Hon tin cho ngi u gi trc\r\n        if (auction.highestBidder != address(0)) {\r\n            payable(auction.highestBidder).transfer(auction.highestBid);\r\n            emit Refunded(auction.highestBidder, auction.highestBid);\r\n        }\r\n\r\n        auction.highestBidder = msg.sender;\r\n        auction.highestBid = msg.value;\r\n\r\n        emit NewBid(_auctionId, msg.sender, msg.value);\r\n    }\r\n\r\n    // Hm hy phin u gi\r\n    function cancelAuction(uint256 _auctionId) public {\r\n        Auction storage auction = auctions[_auctionId];\r\n        require(auction.creator != address(0), \"Auction does not exist\");\r\n        require(\r\n            msg.sender == auction.creator,\r\n            \"Only creator can cancel auction\"\r\n        );\r\n        require(!auction.ended, \"Auction already ended\");\r\n\r\n        auction.ended = true;\r\n        auction.nftContract.transferFrom(\r\n            address(this),\r\n            auction.creator,\r\n            auction.tokenId\r\n        );\r\n\r\n        if (auction.highestBidder != address(0)) {\r\n            payable(auction.highestBidder).transfer(auction.highestBid);\r\n        }\r\n\r\n        // Clear active auction for the token\r\n        activeAuctionByToken[auction.tokenId] = 0;\r\n        emit AuctionCancelled(_auctionId);\r\n    }\r\n\r\n    // Hm kt thc v thanh ton phin u gi\r\n    function finalizeAuction(uint256 _auctionId) public {\r\n        Auction storage auction = auctions[_auctionId];\r\n        require(auction.creator != address(0), \"Auction does not exist\");\r\n        require(block.timestamp > auction.endTime, \"Auction not yet ended\");\r\n        require(!auction.ended, \"Auction already ended\");\r\n        require(msg.sender == auction.creator, \"Only creator can finalize\");\r\n\r\n        auction.ended = true;\r\n        // Clear active auction for the token\r\n        activeAuctionByToken[auction.tokenId] = 0;\r\n\r\n        if (auction.highestBidder != address(0)) {\r\n            auction.nftContract.transferFrom(\r\n                address(this),\r\n                auction.highestBidder,\r\n                auction.tokenId\r\n            );\r\n            payable(auction.creator).transfer(auction.highestBid);\r\n        } else {\r\n            auction.nftContract.transferFrom(\r\n                address(this),\r\n                auction.creator,\r\n                auction.tokenId\r\n            );\r\n        }\r\n\r\n        emit AuctionEnded(\r\n            _auctionId,\r\n            auction.highestBidder,\r\n            auction.highestBid\r\n        );\r\n    }\r\n\r\n    // Hm kt thc u gi v x l kt qu\r\n    function endAuction(uint256 _auctionId) public {\r\n        Auction storage auction = auctions[_auctionId];\r\n        require(\r\n            block.timestamp >= auction.endTime,\r\n            unicode\"Phin u gi cha kt thc\"\r\n        );\r\n        require(!auction.ended, unicode\"Phin u gi  c kt thc\");\r\n        require(\r\n            msg.sender == auction.creator,\r\n            unicode\"Ch ngi to mi c th kt thc\"\r\n        );\r\n\r\n        auction.ended = true;\r\n        activeAuctionByToken[auction.tokenId] = 0;\r\n\r\n        if (auction.highestBidder != address(0)) {\r\n            // Chuyn tin cho ngi to\r\n            payable(auction.creator).transfer(auction.highestBid);\r\n            // Chuyn NFT cho ngi thng\r\n            auction.nftContract.transferFrom(\r\n                address(this),\r\n                auction.highestBidder,\r\n                auction.tokenId\r\n            );\r\n        } else {\r\n            // Nu khng c ai u gi, tr NFT li cho ngi to\r\n            auction.nftContract.transferFrom(\r\n                address(this),\r\n                auction.creator,\r\n                auction.tokenId\r\n            );\r\n        }\r\n\r\n        emit AuctionEnded(\r\n            _auctionId,\r\n            auction.highestBidder,\r\n            auction.highestBid\r\n        );\r\n    }\r\n}\r\n",
  "sourcePath": "D:\\Users\\trieunth\\Desktop\\Team_Work\\BlockchainBTL\\blockchain-auction\\contracts\\NFTAuction.sol",
  "compiler": {
    "name": "solc",
    "version": "0.8.1+commit.df193b15.Emscripten.clang"
  },
  "schemaVersion": "3.4.16",
  "updatedAt": "2025-03-20T19:52:21.635Z",
  "networkType": "ethereum",
  "devdoc": {
    "kind": "dev",
    "methods": {},
    "version": 1
  },
  "userdoc": {
    "kind": "user",
    "methods": {},
    "version": 1
  }
}