{
  "contractName": "NFTAuction",
  "abi": [
    {
      "anonymous": false,
      "inputs": [
        {
          "indexed": false,
          "internalType": "uint256",
          "name": "auctionId",
          "type": "uint256"
        }
      ],
      "name": "AuctionCancelled",
      "type": "event"
    },
    {
      "anonymous": false,
      "inputs": [
        {
          "indexed": false,
          "internalType": "uint256",
          "name": "auctionId",
          "type": "uint256"
        },
        {
          "indexed": false,
          "internalType": "address",
          "name": "creator",
          "type": "address"
        },
        {
          "indexed": false,
          "internalType": "uint256",
          "name": "tokenId",
          "type": "uint256"
        },
        {
          "indexed": false,
          "internalType": "uint256",
          "name": "startPrice",
          "type": "uint256"
        },
        {
          "indexed": false,
          "internalType": "uint256",
          "name": "endTime",
          "type": "uint256"
        }
      ],
      "name": "AuctionCreated",
      "type": "event"
    },
    {
      "anonymous": false,
      "inputs": [
        {
          "indexed": false,
          "internalType": "uint256",
          "name": "auctionId",
          "type": "uint256"
        },
        {
          "indexed": false,
          "internalType": "address",
          "name": "winner",
          "type": "address"
        },
        {
          "indexed": false,
          "internalType": "uint256",
          "name": "amount",
          "type": "uint256"
        }
      ],
      "name": "AuctionEnded",
      "type": "event"
    },
    {
      "anonymous": false,
      "inputs": [
        {
          "indexed": false,
          "internalType": "uint256",
          "name": "auctionId",
          "type": "uint256"
        },
        {
          "indexed": false,
          "internalType": "address",
          "name": "bidder",
          "type": "address"
        },
        {
          "indexed": false,
          "internalType": "uint256",
          "name": "amount",
          "type": "uint256"
        }
      ],
      "name": "NewBid",
      "type": "event"
    },
    {
      "anonymous": false,
      "inputs": [
        {
          "indexed": false,
          "internalType": "address",
          "name": "bidder",
          "type": "address"
        },
        {
          "indexed": false,
          "internalType": "uint256",
          "name": "amount",
          "type": "uint256"
        }
      ],
      "name": "Refunded",
      "type": "event"
    },
    {
      "inputs": [
        {
          "internalType": "uint256",
          "name": "",
          "type": "uint256"
        }
      ],
      "name": "activeAuctionByToken",
      "outputs": [
        {
          "internalType": "uint256",
          "name": "",
          "type": "uint256"
        }
      ],
      "stateMutability": "view",
      "type": "function",
      "constant": true
    },
    {
      "inputs": [],
      "name": "auctionCounter",
      "outputs": [
        {
          "internalType": "uint256",
          "name": "",
          "type": "uint256"
        }
      ],
      "stateMutability": "view",
      "type": "function",
      "constant": true
    },
    {
      "inputs": [
        {
          "internalType": "uint256",
          "name": "",
          "type": "uint256"
        }
      ],
      "name": "auctions",
      "outputs": [
        {
          "internalType": "address",
          "name": "creator",
          "type": "address"
        },
        {
          "internalType": "contract IERC721",
          "name": "nftContract",
          "type": "address"
        },
        {
          "internalType": "uint256",
          "name": "tokenId",
          "type": "uint256"
        },
        {
          "internalType": "uint256",
          "name": "startPrice",
          "type": "uint256"
        },
        {
          "internalType": "uint256",
          "name": "endTime",
          "type": "uint256"
        },
        {
          "internalType": "address",
          "name": "highestBidder",
          "type": "address"
        },
        {
          "internalType": "uint256",
          "name": "highestBid",
          "type": "uint256"
        },
        {
          "internalType": "bool",
          "name": "ended",
          "type": "bool"
        }
      ],
      "stateMutability": "view",
      "type": "function",
      "constant": true
    },
    {
      "inputs": [
        {
          "internalType": "uint256",
          "name": "",
          "type": "uint256"
        },
        {
          "internalType": "address",
          "name": "",
          "type": "address"
        }
      ],
      "name": "pendingReturns",
      "outputs": [
        {
          "internalType": "uint256",
          "name": "",
          "type": "uint256"
        }
      ],
      "stateMutability": "view",
      "type": "function",
      "constant": true
    },
    {
      "inputs": [
        {
          "internalType": "contract IERC721",
          "name": "_nftContract",
          "type": "address"
        },
        {
          "internalType": "uint256",
          "name": "_tokenId",
          "type": "uint256"
        },
        {
          "internalType": "uint256",
          "name": "_startPrice",
          "type": "uint256"
        },
        {
          "internalType": "uint256",
          "name": "_durationInMinutes",
          "type": "uint256"
        }
      ],
      "name": "createAuction",
      "outputs": [],
      "stateMutability": "nonpayable",
      "type": "function"
    },
    {
      "inputs": [
        {
          "internalType": "uint256",
          "name": "_auctionId",
          "type": "uint256"
        }
      ],
      "name": "bid",
      "outputs": [],
      "stateMutability": "payable",
      "type": "function",
      "payable": true
    },
    {
      "inputs": [
        {
          "internalType": "uint256",
          "name": "_auctionId",
          "type": "uint256"
        }
      ],
      "name": "cancelAuction",
      "outputs": [],
      "stateMutability": "nonpayable",
      "type": "function"
    },
    {
      "inputs": [
        {
          "internalType": "uint256",
          "name": "_auctionId",
          "type": "uint256"
        }
      ],
      "name": "finalizeAuction",
      "outputs": [],
      "stateMutability": "nonpayable",
      "type": "function"
    },
    {
      "inputs": [
        {
          "internalType": "uint256",
          "name": "_auctionId",
          "type": "uint256"
        }
      ],
      "name": "endAuction",
      "outputs": [],
      "stateMutability": "nonpayable",
      "type": "function"
    }
  ],
  "bytecode": "0x608060405234801561001057600080fd5b50612671806100206000396000f3fe6080604052600436106100865760003560e01c806396b5a7551161005957806396b5a75514610151578063a7e766441461017a578063b9a2de3a146101a5578063e8083863146101ce578063ed9559f7146101f757610086565b8063454a2ab31461008b578063571a26a0146100a757806361beb1d7146100eb5780638ddac1ef14610114575b600080fd5b6100a560048036038101906100a09190611a05565b610234565b005b3480156100b357600080fd5b506100ce60048036038101906100c99190611a05565b61064b565b6040516100e2989796959493929190611d0d565b60405180910390f35b3480156100f757600080fd5b50610112600480360381019061010d91906119a2565b610700565b005b34801561012057600080fd5b5061013b60048036038101906101369190611a2e565b610c7f565b6040516101489190611fb4565b60405180910390f35b34801561015d57600080fd5b5061017860048036038101906101739190611a05565b610ca4565b005b34801561018657600080fd5b5061018f61102a565b60405161019c9190611fb4565b60405180910390f35b3480156101b157600080fd5b506101cc60048036038101906101c79190611a05565b611030565b005b3480156101da57600080fd5b506101f560048036038101906101f09190611a05565b611455565b005b34801561020357600080fd5b5061021e60048036038101906102199190611a05565b61190d565b60405161022b9190611fb4565b60405180910390f35b60008060008381526020019081526020016000209050600073ffffffffffffffffffffffffffffffffffffffff168160000160009054906101000a900473ffffffffffffffffffffffffffffffffffffffff1673ffffffffffffffffffffffffffffffffffffffff1614156102de576040517f08c379a00000000000000000000000000000000000000000000000000000000081526004016102d590611eb4565b60405180910390fd5b8060070160009054906101000a900460ff1615610330576040517f08c379a000000000000000000000000000000000000000000000000000000000815260040161032790611e74565b60405180910390fd5b8060040154421115610377576040517f08c379a000000000000000000000000000000000000000000000000000000000815260040161036e90611e74565b60405180910390fd5b8060000160009054906101000a900473ffffffffffffffffffffffffffffffffffffffff1673ffffffffffffffffffffffffffffffffffffffff163373ffffffffffffffffffffffffffffffffffffffff16141561040a576040517f08c379a000000000000000000000000000000000000000000000000000000000815260040161040190611e94565b60405180910390fd5b8060030154341015610451576040517f08c379a000000000000000000000000000000000000000000000000000000000815260040161044890611f74565b60405180910390fd5b80600601543411610497576040517f08c379a000000000000000000000000000000000000000000000000000000000815260040161048e90611dd4565b60405180910390fd5b600073ffffffffffffffffffffffffffffffffffffffff168160050160009054906101000a900473ffffffffffffffffffffffffffffffffffffffff1673ffffffffffffffffffffffffffffffffffffffff16146105c0578060050160009054906101000a900473ffffffffffffffffffffffffffffffffffffffff1673ffffffffffffffffffffffffffffffffffffffff166108fc82600601549081150290604051600060405180830381858888f1935050505015801561055d573d6000803e3d6000fd5b507fd7dee2702d63ad89917b6a4da9981c90c4d24f8c2bdfd64c604ecae57d8d06518160050160009054906101000a900473ffffffffffffffffffffffffffffffffffffffff1682600601546040516105b7929190611d8b565b60405180910390a15b338160050160006101000a81548173ffffffffffffffffffffffffffffffffffffffff021916908373ffffffffffffffffffffffffffffffffffffffff1602179055503481600601819055507f558a0d5d5468d74b0db24c74eb348b42271c2ebb4c9e953ced38aaed95fa436182333460405161063f93929190611fcf565b60405180910390a15050565b60006020528060005260406000206000915090508060000160009054906101000a900473ffffffffffffffffffffffffffffffffffffffff16908060010160009054906101000a900473ffffffffffffffffffffffffffffffffffffffff16908060020154908060030154908060040154908060050160009054906101000a900473ffffffffffffffffffffffffffffffffffffffff16908060060154908060070160009054906101000a900460ff16905088565b60008211610743576040517f08c379a000000000000000000000000000000000000000000000000000000000815260040161073a90611f34565b60405180910390fd5b60008111610786576040517f08c379a000000000000000000000000000000000000000000000000000000000815260040161077d90611df4565b60405180910390fd5b3373ffffffffffffffffffffffffffffffffffffffff168473ffffffffffffffffffffffffffffffffffffffff16636352211e856040518263ffffffff1660e01b81526004016107d69190611fb4565b60206040518083038186803b1580156107ee57600080fd5b505afa158015610802573d6000803e3d6000fd5b505050506040513d601f19601f820116820180604052508101906108269190611979565b73ffffffffffffffffffffffffffffffffffffffff1614156108b6578373ffffffffffffffffffffffffffffffffffffffff166323b872dd3330866040518463ffffffff1660e01b815260040161087f93929190611cd6565b600060405180830381600087803b15801561089957600080fd5b505af11580156108ad573d6000803e3d6000fd5b50505050610a23565b3073ffffffffffffffffffffffffffffffffffffffff168473ffffffffffffffffffffffffffffffffffffffff16636352211e856040518263ffffffff1660e01b81526004016109069190611fb4565b60206040518083038186803b15801561091e57600080fd5b505afa158015610932573d6000803e3d6000fd5b505050506040513d601f19601f820116820180604052508101906109569190611979565b73ffffffffffffffffffffffffffffffffffffffff1614156109e7576000600260008581526020019081526020016000205490506000808281526020019081526020016000206006015483116109e1576040517f08c379a00000000000000000000000000000000000000000000000000000000081526004016109d890611e54565b60405180910390fd5b50610a22565b6040517f08c379a0000000000000000000000000000000000000000000000000000000008152600401610a1990611f94565b60405180910390fd5b5b60016000815480929190610a3690612198565b91905055506040518061010001604052803373ffffffffffffffffffffffffffffffffffffffff1681526020018573ffffffffffffffffffffffffffffffffffffffff168152602001848152602001838152602001603c83610a9891906120c0565b42610aa3919061206a565b8152602001600073ffffffffffffffffffffffffffffffffffffffff1681526020016000815260200160001515815250600080600154815260200190815260200160002060008201518160000160006101000a81548173ffffffffffffffffffffffffffffffffffffffff021916908373ffffffffffffffffffffffffffffffffffffffff16021790555060208201518160010160006101000a81548173ffffffffffffffffffffffffffffffffffffffff021916908373ffffffffffffffffffffffffffffffffffffffff16021790555060408201518160020155606082015181600301556080820151816004015560a08201518160050160006101000a81548173ffffffffffffffffffffffffffffffffffffffff021916908373ffffffffffffffffffffffffffffffffffffffff16021790555060c0820151816006015560e08201518160070160006101000a81548160ff02191690831515021790555090505060015460026000858152602001908152602001600020819055507f05f9bf100dd0ca9f37f08e0526690286d357ed7d6c5a4ac29730440b6e2dfd62600154338585600080600154815260200190815260200160002060040154604051610c71959493929190612006565b60405180910390a150505050565b6003602052816000526040600020602052806000526040600020600091509150505481565b60008060008381526020019081526020016000209050600073ffffffffffffffffffffffffffffffffffffffff168160000160009054906101000a900473ffffffffffffffffffffffffffffffffffffffff1673ffffffffffffffffffffffffffffffffffffffff161415610d4e576040517f08c379a0000000000000000000000000000000000000000000000000000000008152600401610d4590611eb4565b60405180910390fd5b8060000160009054906101000a900473ffffffffffffffffffffffffffffffffffffffff1673ffffffffffffffffffffffffffffffffffffffff163373ffffffffffffffffffffffffffffffffffffffff1614610de0576040517f08c379a0000000000000000000000000000000000000000000000000000000008152600401610dd790611f54565b60405180910390fd5b8060070160009054906101000a900460ff1615610e32576040517f08c379a0000000000000000000000000000000000000000000000000000000008152600401610e2990611e34565b60405180910390fd5b60018160070160006101000a81548160ff0219169083151502179055508060010160009054906101000a900473ffffffffffffffffffffffffffffffffffffffff1673ffffffffffffffffffffffffffffffffffffffff166323b872dd308360000160009054906101000a900473ffffffffffffffffffffffffffffffffffffffff1684600201546040518463ffffffff1660e01b8152600401610ed893929190611cd6565b600060405180830381600087803b158015610ef257600080fd5b505af1158015610f06573d6000803e3d6000fd5b50505050600073ffffffffffffffffffffffffffffffffffffffff168160050160009054906101000a900473ffffffffffffffffffffffffffffffffffffffff1673ffffffffffffffffffffffffffffffffffffffff1614610fd2578060050160009054906101000a900473ffffffffffffffffffffffffffffffffffffffff1673ffffffffffffffffffffffffffffffffffffffff166108fc82600601549081150290604051600060405180830381858888f19350505050158015610fd0573d6000803e3d6000fd5b505b60006002600083600201548152602001908152602001600020819055507f2809c7e17bf978fbc7194c0a694b638c4215e9140cacc6c38ca36010b45697df8260405161101e9190611fb4565b60405180910390a15050565b60015481565b60008060008381526020019081526020016000209050806004015442101561108d576040517f08c379a000000000000000000000000000000000000000000000000000000000815260040161108490611e14565b60405180910390fd5b8060070160009054906101000a900460ff16156110df576040517f08c379a00000000000000000000000000000000000000000000000000000000081526004016110d690611db4565b60405180910390fd5b8060000160009054906101000a900473ffffffffffffffffffffffffffffffffffffffff1673ffffffffffffffffffffffffffffffffffffffff163373ffffffffffffffffffffffffffffffffffffffff1614611171576040517f08c379a000000000000000000000000000000000000000000000000000000000815260040161116890611ef4565b60405180910390fd5b60018160070160006101000a81548160ff0219169083151502179055506000600260008360020154815260200190815260200160002081905550600073ffffffffffffffffffffffffffffffffffffffff168160050160009054906101000a900473ffffffffffffffffffffffffffffffffffffffff1673ffffffffffffffffffffffffffffffffffffffff1614611332578060000160009054906101000a900473ffffffffffffffffffffffffffffffffffffffff1673ffffffffffffffffffffffffffffffffffffffff166108fc82600601549081150290604051600060405180830381858888f19350505050158015611271573d6000803e3d6000fd5b508060010160009054906101000a900473ffffffffffffffffffffffffffffffffffffffff1673ffffffffffffffffffffffffffffffffffffffff166323b872dd308360050160009054906101000a900473ffffffffffffffffffffffffffffffffffffffff1684600201546040518463ffffffff1660e01b81526004016112fb93929190611cd6565b600060405180830381600087803b15801561131557600080fd5b505af1158015611329573d6000803e3d6000fd5b505050506113ee565b8060010160009054906101000a900473ffffffffffffffffffffffffffffffffffffffff1673ffffffffffffffffffffffffffffffffffffffff166323b872dd308360000160009054906101000a900473ffffffffffffffffffffffffffffffffffffffff1684600201546040518463ffffffff1660e01b81526004016113bb93929190611cd6565b600060405180830381600087803b1580156113d557600080fd5b505af11580156113e9573d6000803e3d6000fd5b505050505b7fd2aa34a4fdbbc6dff6a3e56f46e0f3ae2a31d7785ff3487aa5c95c642acea501828260050160009054906101000a900473ffffffffffffffffffffffffffffffffffffffff16836006015460405161144993929190611fcf565b60405180910390a15050565b60008060008381526020019081526020016000209050600073ffffffffffffffffffffffffffffffffffffffff168160000160009054906101000a900473ffffffffffffffffffffffffffffffffffffffff1673ffffffffffffffffffffffffffffffffffffffff1614156114ff576040517f08c379a00000000000000000000000000000000000000000000000000000000081526004016114f690611eb4565b60405180910390fd5b80600401544211611545576040517f08c379a000000000000000000000000000000000000000000000000000000000815260040161153c90611f14565b60405180910390fd5b8060070160009054906101000a900460ff1615611597576040517f08c379a000000000000000000000000000000000000000000000000000000000815260040161158e90611e34565b60405180910390fd5b8060000160009054906101000a900473ffffffffffffffffffffffffffffffffffffffff1673ffffffffffffffffffffffffffffffffffffffff163373ffffffffffffffffffffffffffffffffffffffff1614611629576040517f08c379a000000000000000000000000000000000000000000000000000000000815260040161162090611ed4565b60405180910390fd5b60018160070160006101000a81548160ff0219169083151502179055506000600260008360020154815260200190815260200160002081905550600073ffffffffffffffffffffffffffffffffffffffff168160050160009054906101000a900473ffffffffffffffffffffffffffffffffffffffff1673ffffffffffffffffffffffffffffffffffffffff16146117ea578060010160009054906101000a900473ffffffffffffffffffffffffffffffffffffffff1673ffffffffffffffffffffffffffffffffffffffff166323b872dd308360050160009054906101000a900473ffffffffffffffffffffffffffffffffffffffff1684600201546040518463ffffffff1660e01b815260040161174493929190611cd6565b600060405180830381600087803b15801561175e57600080fd5b505af1158015611772573d6000803e3d6000fd5b505050508060000160009054906101000a900473ffffffffffffffffffffffffffffffffffffffff1673ffffffffffffffffffffffffffffffffffffffff166108fc82600601549081150290604051600060405180830381858888f193505050501580156117e4573d6000803e3d6000fd5b506118a6565b8060010160009054906101000a900473ffffffffffffffffffffffffffffffffffffffff1673ffffffffffffffffffffffffffffffffffffffff166323b872dd308360000160009054906101000a900473ffffffffffffffffffffffffffffffffffffffff1684600201546040518463ffffffff1660e01b815260040161187393929190611cd6565b600060405180830381600087803b15801561188d57600080fd5b505af11580156118a1573d6000803e3d6000fd5b505050505b7fd2aa34a4fdbbc6dff6a3e56f46e0f3ae2a31d7785ff3487aa5c95c642acea501828260050160009054906101000a900473ffffffffffffffffffffffffffffffffffffffff16836006015460405161190193929190611fcf565b60405180910390a15050565b60026020528060005260406000206000915090505481565b600081359050611934816125f6565b92915050565b600081519050611949816125f6565b92915050565b60008135905061195e8161260d565b92915050565b60008135905061197381612624565b92915050565b60006020828403121561198b57600080fd5b60006119998482850161193a565b91505092915050565b600080600080608085870312156119b857600080fd5b60006119c68782880161194f565b94505060206119d787828801611964565b93505060406119e887828801611964565b92505060606119f987828801611964565b91505092959194509250565b600060208284031215611a1757600080fd5b6000611a2584828501611964565b91505092915050565b60008060408385031215611a4157600080fd5b6000611a4f85828601611964565b9250506020611a6085828601611925565b9150509250929050565b611a738161211a565b82525050565b611a828161212c565b82525050565b611a9181612174565b82525050565b6000611aa4602c83612059565b9150611aaf82612210565b604082019050919050565b6000611ac7603083612059565b9150611ad28261225f565b604082019050919050565b6000611aea602283612059565b9150611af5826122ae565b604082019050919050565b6000611b0d602483612059565b9150611b18826122fd565b604082019050919050565b6000611b30601583612059565b9150611b3b8261234c565b602082019050919050565b6000611b53603083612059565b9150611b5e82612375565b604082019050919050565b6000611b76601183612059565b9150611b81826123c4565b602082019050919050565b6000611b99601283612059565b9150611ba4826123ed565b602082019050919050565b6000611bbc601683612059565b9150611bc782612416565b602082019050919050565b6000611bdf601983612059565b9150611bea8261243f565b602082019050919050565b6000611c02603083612059565b9150611c0d82612468565b604082019050919050565b6000611c25601583612059565b9150611c30826124b7565b602082019050919050565b6000611c48602283612059565b9150611c53826124e0565b604082019050919050565b6000611c6b601f83612059565b9150611c768261252f565b602082019050919050565b6000611c8e603483612059565b9150611c9982612558565b604082019050919050565b6000611cb1602483612059565b9150611cbc826125a7565b604082019050919050565b611cd08161216a565b82525050565b6000606082019050611ceb6000830186611a6a565b611cf86020830185611a6a565b611d056040830184611cc7565b949350505050565b600061010082019050611d23600083018b611a6a565b611d30602083018a611a88565b611d3d6040830189611cc7565b611d4a6060830188611cc7565b611d576080830187611cc7565b611d6460a0830186611a6a565b611d7160c0830185611cc7565b611d7e60e0830184611a79565b9998505050505050505050565b6000604082019050611da06000830185611a6a565b611dad6020830184611cc7565b9392505050565b60006020820190508181036000830152611dcd81611a97565b9050919050565b60006020820190508181036000830152611ded81611aba565b9050919050565b60006020820190508181036000830152611e0d81611add565b9050919050565b60006020820190508181036000830152611e2d81611b00565b9050919050565b60006020820190508181036000830152611e4d81611b23565b9050919050565b60006020820190508181036000830152611e6d81611b46565b9050919050565b60006020820190508181036000830152611e8d81611b69565b9050919050565b60006020820190508181036000830152611ead81611b8c565b9050919050565b60006020820190508181036000830152611ecd81611baf565b9050919050565b60006020820190508181036000830152611eed81611bd2565b9050919050565b60006020820190508181036000830152611f0d81611bf5565b9050919050565b60006020820190508181036000830152611f2d81611c18565b9050919050565b60006020820190508181036000830152611f4d81611c3b565b9050919050565b60006020820190508181036000830152611f6d81611c5e565b9050919050565b60006020820190508181036000830152611f8d81611c81565b9050919050565b60006020820190508181036000830152611fad81611ca4565b9050919050565b6000602082019050611fc96000830184611cc7565b92915050565b6000606082019050611fe46000830186611cc7565b611ff16020830185611a6a565b611ffe6040830184611cc7565b949350505050565b600060a08201905061201b6000830188611cc7565b6120286020830187611a6a565b6120356040830186611cc7565b6120426060830185611cc7565b61204f6080830184611cc7565b9695505050505050565b600082825260208201905092915050565b60006120758261216a565b91506120808361216a565b9250827fffffffffffffffffffffffffffffffffffffffffffffffffffffffffffffffff038211156120b5576120b46121e1565b5b828201905092915050565b60006120cb8261216a565b91506120d68361216a565b9250817fffffffffffffffffffffffffffffffffffffffffffffffffffffffffffffffff048311821515161561210f5761210e6121e1565b5b828202905092915050565b60006121258261214a565b9050919050565b60008115159050919050565b60006121438261211a565b9050919050565b600073ffffffffffffffffffffffffffffffffffffffff82169050919050565b6000819050919050565b600061217f82612186565b9050919050565b60006121918261214a565b9050919050565b60006121a38261216a565b91507fffffffffffffffffffffffffffffffffffffffffffffffffffffffffffffffff8214156121d6576121d56121e1565b5b600182019050919050565b7f4e487b7100000000000000000000000000000000000000000000000000000000600052601160045260246000fd5b7f506869c3aa6e20c491e1baa575206769c3a120c491c3a320c491c6b0e1bba36360008201527f206be1babf74207468c3ba630000000000000000000000000000000000000000602082015250565b7f426964206d7573742062652067726561746572207468616e207468652063757260008201527f72656e7420686967686573742062696400000000000000000000000000000000602082015250565b7f4475726174696f6e206d757374206265206174206c656173742031206d696e7560008201527f7465000000000000000000000000000000000000000000000000000000000000602082015250565b7f506869c3aa6e20c491e1baa575206769c3a1206368c6b061206be1babf74207460008201527f68c3ba6300000000000000000000000000000000000000000000000000000000602082015250565b7f41756374696f6e20616c726561647920656e6465640000000000000000000000600082015250565b7f5374617274207072696365206d7573742062652067726561746572207468616e60008201527f2074686520686967686573742062696400000000000000000000000000000000602082015250565b7f41756374696f6e2068617320656e646564000000000000000000000000000000600082015250565b7f43726561746f722063616e6e6f74206269640000000000000000000000000000600082015250565b7f41756374696f6e20646f6573206e6f7420657869737400000000000000000000600082015250565b7f4f6e6c792063726561746f722063616e2066696e616c697a6500000000000000600082015250565b7f4368e1bb89206e67c6b0e1bb9d692074e1baa16f206de1bb9b692063c3b3207460008201527f68e1bb83206be1babf74207468c3ba6300000000000000000000000000000000602082015250565b7f41756374696f6e206e6f742079657420656e6465640000000000000000000000600082015250565b7f5374617274207072696365206d7573742062652067726561746572207468616e60008201527f2030000000000000000000000000000000000000000000000000000000000000602082015250565b7f4f6e6c792063726561746f722063616e2063616e63656c2061756374696f6e00600082015250565b7f426964206d7573742062652067726561746572207468616e206f72206571756160008201527f6c20746f20746865207374617274207072696365000000000000000000000000602082015250565b7f42e1baa16e206b68c3b46e67207068e1baa369206368e1bba72073e1bb9f206860008201527fe1bbaf7500000000000000000000000000000000000000000000000000000000602082015250565b6125ff8161211a565b811461260a57600080fd5b50565b61261681612138565b811461262157600080fd5b50565b61262d8161216a565b811461263857600080fd5b5056fea2646970667358221220c89dd95f341fd43c2afb792cf7513102156d6b8921469f2b706b6e9f80acd08164736f6c63430008010033",
  "immutableReferences": {},
  "source": "// SPDX-License-Identifier: MIT\r\npragma solidity ^0.8.0;\r\n\r\nimport \"@openzeppelin/contracts/token/ERC721/IERC721.sol\";\r\n\r\ncontract NFTAuction {\r\n        struct Auction {\r\n        address creator;          // a ch ngi to u gi\r\n        IERC721 nftContract;     // a ch hp ng NFT\r\n        uint256 tokenId;         // ID ca token ang u gi\r\n        uint256 startPrice;      // Gi khi im\r\n        uint256 endTime;         // Thi gian kt thc\r\n        address highestBidder;   // Ngi tr gi cao nht\r\n        uint256 highestBid;      // Gi cao nht hin ti\r\n        bool ended;              // Trng thi  kt thc\r\n    }\r\n\r\n    // Lu tr thng tin cc phin u gi theo ID\r\n    mapping(uint256 => Auction) public auctions;\r\n    uint256 public auctionCounter;\r\n\r\n    // Theo di phin u gi ang hot ng ca mi token\r\n    mapping(uint256 => uint256) public activeAuctionByToken;\r\n\r\n    // Lu tr s tin cn hon tr cho ngi u gi\r\n    mapping(uint256 => mapping(address => uint256)) public pendingReturns;\r\n\r\n        event AuctionCreated(\r\nuint256 auctionId,\r\naddress creator,\r\nuint256 tokenId,\r\nuint256 startPrice,\r\nuint256 endTime\r\n);\r\n    event NewBid(uint256 auctionId, address bidder, uint256 amount);\r\n    event AuctionEnded(uint256 auctionId, address winner, uint256 amount);\r\n    event AuctionCancelled(uint256 auctionId);\r\n    event Refunded(address bidder, uint256 amount);\r\n\r\n    // Hm to phin u gi mi\r\n    function createAuction(\r\n        IERC721 _nftContract,\r\n        uint256 _tokenId,\r\n        uint256 _startPrice,\r\n        uint256 _durationInMinutes\r\n    ) public {\r\n        require(_startPrice > 0, \"Start price must be greater than 0\");\r\n        require(_durationInMinutes > 0, \"Duration must be at least 1 minute\");\r\n\r\n        // Allow creation if caller owns the NFT...\r\n        if (_nftContract.ownerOf(_tokenId) == msg.sender) {\r\n            _nftContract.transferFrom(msg.sender, address(this), _tokenId);\r\n        } \r\n        else if (_nftContract.ownerOf(_tokenId) == address(this)) {\r\n            uint256 prevAuctionId = activeAuctionByToken[_tokenId];\r\n            require(_startPrice > auctions[prevAuctionId].highestBid, \"Start price must be greater than the highest bid\");\r\n        } else {\r\n            revert(unicode\"Bn khng phi ch s hu\");\r\n        }\r\n\r\n        auctionCounter++;\r\n        auctions[auctionCounter] = Auction({\r\n            creator: msg.sender,\r\n            nftContract: _nftContract,\r\n            tokenId: _tokenId,\r\n            startPrice: _startPrice,\r\n            endTime: block.timestamp + (_durationInMinutes * 1 minutes),\r\n            highestBidder: address(0),\r\n            highestBid: 0,\r\n            ended: false\r\n        });\r\n        activeAuctionByToken[_tokenId] = auctionCounter;\r\n\r\n        emit AuctionCreated(\r\n            auctionCounter,\r\n            msg.sender,\r\n            _tokenId,\r\n            _startPrice,\r\n            auctions[auctionCounter].endTime\r\n        );\r\n    }\r\n\r\n    // Hm t gi thu\r\n    function bid(uint256 _auctionId) public payable {\r\n        Auction storage auction = auctions[_auctionId];\r\n        require(auction.creator != address(0), \"Auction does not exist\");\r\n        require(!auction.ended, \"Auction has ended\");\r\n        require(block.timestamp <= auction.endTime, \"Auction has ended\");\r\n        require(msg.sender != auction.creator, \"Creator cannot bid\");\r\n        require(\r\n            msg.value >= auction.startPrice,\r\n            \"Bid must be greater than or equal to the start price\"\r\n        );\r\n        require(\r\n            msg.value > auction.highestBid,\r\n            \"Bid must be greater than the current highest bid\"\r\n        );\r\n\r\n        // Hon tin cho ngi u gi trc\r\n        if (auction.highestBidder != address(0)) {\r\n            payable(auction.highestBidder).transfer(auction.highestBid);\r\n            emit Refunded(auction.highestBidder, auction.highestBid);\r\n        }\r\n\r\n        auction.highestBidder = msg.sender;\r\n        auction.highestBid = msg.value;\r\n\r\n        emit NewBid(_auctionId, msg.sender, msg.value);\r\n    }\r\n\r\n    // Hm hy phin u gi\r\n    function cancelAuction(uint256 _auctionId) public {\r\n        Auction storage auction = auctions[_auctionId];\r\n        require(auction.creator != address(0), \"Auction does not exist\");\r\n        require(msg.sender == auction.creator, \"Only creator can cancel auction\");\r\n        require(!auction.ended, \"Auction already ended\");\r\n        \r\n        auction.ended = true;\r\n        auction.nftContract.transferFrom(\r\n            address(this),\r\n            auction.creator,\r\n            auction.tokenId\r\n        );\r\n        \r\n        if (auction.highestBidder != address(0)) {\r\n            payable(auction.highestBidder).transfer(auction.highestBid);\r\n        }\r\n        \r\n        // Clear active auction for the token\r\n        activeAuctionByToken[auction.tokenId] = 0;\r\n        emit AuctionCancelled(_auctionId);\r\n    }\r\n\r\n    // Hm kt thc v thanh ton phin u gi\r\n    function finalizeAuction(uint256 _auctionId) public {\r\n        Auction storage auction = auctions[_auctionId];\r\n        require(auction.creator != address(0), \"Auction does not exist\");\r\n        require(block.timestamp > auction.endTime, \"Auction not yet ended\");\r\n        require(!auction.ended, \"Auction already ended\");\r\n        require(msg.sender == auction.creator, \"Only creator can finalize\");\r\n\r\n        auction.ended = true;\r\n        // Clear active auction for the token\r\n        activeAuctionByToken[auction.tokenId] = 0;\r\n\r\n        if (auction.highestBidder != address(0)) {\r\n            auction.nftContract.transferFrom(\r\n                address(this),\r\n                auction.highestBidder,\r\n                auction.tokenId\r\n            );\r\n            payable(auction.creator).transfer(auction.highestBid);\r\n        } else {\r\n            auction.nftContract.transferFrom(\r\n                address(this),\r\n                auction.creator,\r\n                auction.tokenId\r\n            );\r\n        }\r\n\r\n        emit AuctionEnded(_auctionId, auction.highestBidder, auction.highestBid);\r\n    }\r\n\r\n    // Hm kt thc u gi v x l kt qu\r\n    function endAuction(uint256 _auctionId) public {\r\n        Auction storage auction = auctions[_auctionId];\r\n        require(\r\n            block.timestamp >= auction.endTime,\r\n            unicode\"Phin u gi cha kt thc\"\r\n        );\r\n        require(!auction.ended, unicode\"Phin u gi  c kt thc\");\r\n        require(\r\n            msg.sender == auction.creator,\r\n            unicode\"Ch ngi to mi c th kt thc\"\r\n        );\r\n\r\n        auction.ended = true;\r\n        activeAuctionByToken[auction.tokenId] = 0;\r\n\r\n        if (auction.highestBidder != address(0)) {\r\n            // Chuyn tin cho ngi to\r\n            payable(auction.creator).transfer(auction.highestBid);\r\n            // Chuyn NFT cho ngi thng\r\n            auction.nftContract.transferFrom(\r\n                address(this),\r\n                auction.highestBidder,\r\n                auction.tokenId\r\n            );\r\n        } else {\r\n            // Nu khng c ai u gi, tr NFT li cho ngi to\r\n            auction.nftContract.transferFrom(\r\n                address(this),\r\n                auction.creator,\r\n                auction.tokenId\r\n            );\r\n        }\r\n\r\n        emit AuctionEnded(\r\n            _auctionId,\r\n            auction.highestBidder,\r\n            auction.highestBid\r\n        );\r\n    }\r\n}\r\n",
  "sourcePath": "D:\\Users\\trieunth\\Desktop\\Team_Work\\Blockchain\\blockchain-auction\\contracts\\NFTAuction.sol",
  "compiler": {
    "name": "solc",
    "version": "0.8.1+commit.df193b15.Emscripten.clang"
  },
  "schemaVersion": "3.4.16",
  "updatedAt": "2025-03-01T15:27:37.604Z",
  "networkType": "ethereum",
  "devdoc": {
    "kind": "dev",
    "methods": {},
    "version": 1
  },
  "userdoc": {
    "kind": "user",
    "methods": {},
    "version": 1
  }
}