{
  "contractName": "NFTAuction",
  "abi": [
    {
      "inputs": [
        {
          "internalType": "address",
          "name": "_verifierAddress",
          "type": "address"
        }
      ],
      "stateMutability": "nonpayable",
      "type": "constructor"
    },
    {
      "anonymous": false,
      "inputs": [
        {
          "indexed": false,
          "internalType": "uint256",
          "name": "auctionId",
          "type": "uint256"
        }
      ],
      "name": "AuctionCancelled",
      "type": "event"
    },
    {
      "anonymous": false,
      "inputs": [
        {
          "indexed": false,
          "internalType": "uint256",
          "name": "auctionId",
          "type": "uint256"
        },
        {
          "indexed": false,
          "internalType": "address",
          "name": "creator",
          "type": "address"
        },
        {
          "indexed": false,
          "internalType": "address",
          "name": "nftContract",
          "type": "address"
        },
        {
          "indexed": false,
          "internalType": "uint256",
          "name": "tokenId",
          "type": "uint256"
        },
        {
          "indexed": false,
          "internalType": "uint256",
          "name": "startPrice",
          "type": "uint256"
        },
        {
          "indexed": false,
          "internalType": "uint256",
          "name": "endTime",
          "type": "uint256"
        }
      ],
      "name": "AuctionCreated",
      "type": "event"
    },
    {
      "anonymous": false,
      "inputs": [
        {
          "indexed": false,
          "internalType": "uint256",
          "name": "auctionId",
          "type": "uint256"
        },
        {
          "indexed": false,
          "internalType": "address",
          "name": "winner",
          "type": "address"
        },
        {
          "indexed": false,
          "internalType": "uint256",
          "name": "amount",
          "type": "uint256"
        }
      ],
      "name": "AuctionEnded",
      "type": "event"
    },
    {
      "anonymous": false,
      "inputs": [
        {
          "indexed": false,
          "internalType": "string",
          "name": "message",
          "type": "string"
        },
        {
          "indexed": false,
          "internalType": "uint256",
          "name": "value",
          "type": "uint256"
        }
      ],
      "name": "DebugLog",
      "type": "event"
    },
    {
      "anonymous": false,
      "inputs": [
        {
          "indexed": false,
          "internalType": "uint256",
          "name": "auctionId",
          "type": "uint256"
        },
        {
          "indexed": false,
          "internalType": "address",
          "name": "bidder",
          "type": "address"
        },
        {
          "indexed": false,
          "internalType": "uint256",
          "name": "amount",
          "type": "uint256"
        }
      ],
      "name": "NewBid",
      "type": "event"
    },
    {
      "anonymous": false,
      "inputs": [
        {
          "indexed": false,
          "internalType": "address",
          "name": "bidder",
          "type": "address"
        },
        {
          "indexed": false,
          "internalType": "uint256",
          "name": "amount",
          "type": "uint256"
        }
      ],
      "name": "Refunded",
      "type": "event"
    },
    {
      "anonymous": false,
      "inputs": [
        {
          "indexed": false,
          "internalType": "uint256",
          "name": "tokenId",
          "type": "uint256"
        },
        {
          "indexed": false,
          "internalType": "address",
          "name": "creator",
          "type": "address"
        }
      ],
      "name": "VerificationRequired",
      "type": "event"
    },
    {
      "inputs": [
        {
          "internalType": "uint256",
          "name": "",
          "type": "uint256"
        }
      ],
      "name": "activeAuctionByToken",
      "outputs": [
        {
          "internalType": "uint256",
          "name": "",
          "type": "uint256"
        }
      ],
      "stateMutability": "view",
      "type": "function",
      "constant": true
    },
    {
      "inputs": [],
      "name": "auctionCounter",
      "outputs": [
        {
          "internalType": "uint256",
          "name": "",
          "type": "uint256"
        }
      ],
      "stateMutability": "view",
      "type": "function",
      "constant": true
    },
    {
      "inputs": [
        {
          "internalType": "uint256",
          "name": "",
          "type": "uint256"
        }
      ],
      "name": "auctions",
      "outputs": [
        {
          "internalType": "address",
          "name": "creator",
          "type": "address"
        },
        {
          "internalType": "contract IERC721",
          "name": "nftContract",
          "type": "address"
        },
        {
          "internalType": "uint256",
          "name": "tokenId",
          "type": "uint256"
        },
        {
          "internalType": "uint256",
          "name": "startPrice",
          "type": "uint256"
        },
        {
          "internalType": "uint256",
          "name": "endTime",
          "type": "uint256"
        },
        {
          "internalType": "address",
          "name": "highestBidder",
          "type": "address"
        },
        {
          "internalType": "uint256",
          "name": "highestBid",
          "type": "uint256"
        },
        {
          "internalType": "enum NFTAuction.AuctionState",
          "name": "state",
          "type": "uint8"
        },
        {
          "internalType": "bool",
          "name": "nftDeposited",
          "type": "bool"
        }
      ],
      "stateMutability": "view",
      "type": "function",
      "constant": true
    },
    {
      "inputs": [
        {
          "internalType": "uint256",
          "name": "",
          "type": "uint256"
        },
        {
          "internalType": "address",
          "name": "",
          "type": "address"
        }
      ],
      "name": "pendingReturns",
      "outputs": [
        {
          "internalType": "uint256",
          "name": "",
          "type": "uint256"
        }
      ],
      "stateMutability": "view",
      "type": "function",
      "constant": true
    },
    {
      "inputs": [],
      "name": "verifier",
      "outputs": [
        {
          "internalType": "contract NFTVerifier",
          "name": "",
          "type": "address"
        }
      ],
      "stateMutability": "view",
      "type": "function",
      "constant": true
    },
    {
      "inputs": [
        {
          "internalType": "address",
          "name": "_verifierAddress",
          "type": "address"
        }
      ],
      "name": "setVerifier",
      "outputs": [],
      "stateMutability": "nonpayable",
      "type": "function"
    },
    {
      "inputs": [
        {
          "internalType": "address",
          "name": "_nftContract",
          "type": "address"
        },
        {
          "internalType": "uint256",
          "name": "_tokenId",
          "type": "uint256"
        },
        {
          "internalType": "uint256",
          "name": "_startPrice",
          "type": "uint256"
        },
        {
          "internalType": "uint256",
          "name": "_auctionDuration",
          "type": "uint256"
        }
      ],
      "name": "createAuction",
      "outputs": [],
      "stateMutability": "nonpayable",
      "type": "function"
    },
    {
      "inputs": [
        {
          "internalType": "uint256",
          "name": "_auctionId",
          "type": "uint256"
        }
      ],
      "name": "bid",
      "outputs": [],
      "stateMutability": "payable",
      "type": "function",
      "payable": true
    },
    {
      "inputs": [
        {
          "internalType": "uint256",
          "name": "_auctionId",
          "type": "uint256"
        }
      ],
      "name": "depositNFT",
      "outputs": [],
      "stateMutability": "nonpayable",
      "type": "function"
    },
    {
      "inputs": [
        {
          "internalType": "uint256",
          "name": "_auctionId",
          "type": "uint256"
        }
      ],
      "name": "cancelAuction",
      "outputs": [],
      "stateMutability": "nonpayable",
      "type": "function"
    },
    {
      "inputs": [
        {
          "internalType": "uint256",
          "name": "_auctionId",
          "type": "uint256"
        }
      ],
      "name": "finalizeAuction",
      "outputs": [],
      "stateMutability": "nonpayable",
      "type": "function"
    },
    {
      "inputs": [
        {
          "internalType": "uint256",
          "name": "_auctionId",
          "type": "uint256"
        }
      ],
      "name": "getAuction",
      "outputs": [
        {
          "internalType": "address",
          "name": "creator",
          "type": "address"
        },
        {
          "internalType": "address",
          "name": "nftContract",
          "type": "address"
        },
        {
          "internalType": "uint256",
          "name": "tokenId",
          "type": "uint256"
        },
        {
          "internalType": "uint256",
          "name": "startPrice",
          "type": "uint256"
        },
        {
          "internalType": "uint256",
          "name": "endTime",
          "type": "uint256"
        },
        {
          "internalType": "address",
          "name": "highestBidder",
          "type": "address"
        },
        {
          "internalType": "uint256",
          "name": "highestBid",
          "type": "uint256"
        },
        {
          "internalType": "uint256",
          "name": "state",
          "type": "uint256"
        },
        {
          "internalType": "bool",
          "name": "nftDeposited",
          "type": "bool"
        }
      ],
      "stateMutability": "view",
      "type": "function",
      "constant": true
    },
    {
      "inputs": [
        {
          "internalType": "uint256",
          "name": "_tokenId",
          "type": "uint256"
        }
      ],
      "name": "requestVerification",
      "outputs": [],
      "stateMutability": "nonpayable",
      "type": "function"
    }
  ],
  "bytecode": "0x60806040523480156200001157600080fd5b5060405162002fd238038062002fd2833981810160405281019062000037919062000095565b806000806101000a81548173ffffffffffffffffffffffffffffffffffffffff021916908373ffffffffffffffffffffffffffffffffffffffff160217905550506200010f565b6000815190506200008f81620000f5565b92915050565b600060208284031215620000a857600080fd5b6000620000b8848285016200007e565b91505092915050565b6000620000ce82620000d5565b9050919050565b600073ffffffffffffffffffffffffffffffffffffffff82169050919050565b6200010081620000c1565b81146200010c57600080fd5b50565b612eb3806200011f6000396000f3fe6080604052600436106100c25760003560e01c806378bd79351161007f578063a7e7664411610059578063a7e7664414610279578063e8083863146102a4578063e91a7ca6146102cd578063ed9559f7146102f6576100c2565b806378bd7935146101ce5780638ddac1ef1461021357806396b5a75514610250576100c2565b80630c020f08146100c75780632b7ac3f3146100f0578063454a2ab31461011b5780635437988d14610137578063571a26a01461016057806361beb1d7146101a5575b600080fd5b3480156100d357600080fd5b506100ee60048036038101906100e99190611eaf565b610333565b005b3480156100fc57600080fd5b506101056103fa565b60405161011291906123c7565b60405180910390f35b61013560048036038101906101309190611eaf565b61041e565b005b34801561014357600080fd5b5061015e60048036038101906101599190611dd1565b610835565b005b34801561016c57600080fd5b5061018760048036038101906101829190611eaf565b610878565b60405161019c99989796959493929190612311565b60405180910390f35b3480156101b157600080fd5b506101cc60048036038101906101c79190611e23565b610940565b005b3480156101da57600080fd5b506101f560048036038101906101f09190611eaf565b610e65565b60405161020a99989796959493929190612284565b60405180910390f35b34801561021f57600080fd5b5061023a60048036038101906102359190611ed8565b610f88565b604051610247919061269e565b60405180910390f35b34801561025c57600080fd5b5061027760048036038101906102729190611eaf565b610fad565b005b34801561028557600080fd5b5061028e6114e3565b60405161029b919061269e565b60405180910390f35b3480156102b057600080fd5b506102cb60048036038101906102c69190611eaf565b6114e9565b005b3480156102d957600080fd5b506102f460048036038101906102ef9190611eaf565b611a9b565b005b34801561030257600080fd5b5061031d60048036038101906103189190611eaf565b611d65565b60405161032a919061269e565b60405180910390f35b60008054906101000a900473ffffffffffffffffffffffffffffffffffffffff1673ffffffffffffffffffffffffffffffffffffffff16630c020f08826040518263ffffffff1660e01b815260040161038c919061269e565b600060405180830381600087803b1580156103a657600080fd5b505af11580156103ba573d6000803e3d6000fd5b505050507f02f062e1a1d45294e62a66f3d9f505cbe08ced279c503bb0c7b682231201314081336040516103ef9291906126b9565b60405180910390a150565b60008054906101000a900473ffffffffffffffffffffffffffffffffffffffff1681565b6000600160008381526020019081526020016000209050600073ffffffffffffffffffffffffffffffffffffffff168160000160009054906101000a900473ffffffffffffffffffffffffffffffffffffffff1673ffffffffffffffffffffffffffffffffffffffff1614156104c9576040517f08c379a00000000000000000000000000000000000000000000000000000000081526004016104c0906124c2565b60405180910390fd5b8060070160019054906101000a900460ff1661051a576040517f08c379a0000000000000000000000000000000000000000000000000000000008152600401610511906125b0565b60405180910390fd5b8060040154421115610561576040517f08c379a000000000000000000000000000000000000000000000000000000000815260040161055890612462565b60405180910390fd5b8060000160009054906101000a900473ffffffffffffffffffffffffffffffffffffffff1673ffffffffffffffffffffffffffffffffffffffff163373ffffffffffffffffffffffffffffffffffffffff1614156105f4576040517f08c379a00000000000000000000000000000000000000000000000000000000081526004016105eb906124a2565b60405180910390fd5b806003015434101561063b576040517f08c379a00000000000000000000000000000000000000000000000000000000081526004016106329061263e565b60405180910390fd5b80600601543411610681576040517f08c379a000000000000000000000000000000000000000000000000000000000815260040161067890612402565b60405180910390fd5b600073ffffffffffffffffffffffffffffffffffffffff168160050160009054906101000a900473ffffffffffffffffffffffffffffffffffffffff1673ffffffffffffffffffffffffffffffffffffffff16146107aa578060050160009054906101000a900473ffffffffffffffffffffffffffffffffffffffff1673ffffffffffffffffffffffffffffffffffffffff166108fc82600601549081150290604051600060405180830381858888f19350505050158015610747573d6000803e3d6000fd5b507fd7dee2702d63ad89917b6a4da9981c90c4d24f8c2bdfd64c604ecae57d8d06518160050160009054906101000a900473ffffffffffffffffffffffffffffffffffffffff1682600601546040516107a192919061239e565b60405180910390a15b338160050160006101000a81548173ffffffffffffffffffffffffffffffffffffffff021916908373ffffffffffffffffffffffffffffffffffffffff1602179055503481600601819055507f558a0d5d5468d74b0db24c74eb348b42271c2ebb4c9e953ced38aaed95fa436182333460405161082993929190612743565b60405180910390a15050565b806000806101000a81548173ffffffffffffffffffffffffffffffffffffffff021916908373ffffffffffffffffffffffffffffffffffffffff16021790555050565b60016020528060005260406000206000915090508060000160009054906101000a900473ffffffffffffffffffffffffffffffffffffffff16908060010160009054906101000a900473ffffffffffffffffffffffffffffffffffffffff16908060020154908060030154908060040154908060050160009054906101000a900473ffffffffffffffffffffffffffffffffffffffff16908060060154908060070160009054906101000a900460ff16908060070160019054906101000a900460ff16905089565b60008211610983576040517f08c379a000000000000000000000000000000000000000000000000000000000815260040161097a906124e2565b60405180910390fd5b600081116109c6576040517f08c379a00000000000000000000000000000000000000000000000000000000081526004016109bd90612590565b60405180910390fd5b6000808054906101000a900473ffffffffffffffffffffffffffffffffffffffff1673ffffffffffffffffffffffffffffffffffffffff16632c2b54f4856040518263ffffffff1660e01b8152600401610a20919061269e565b60206040518083038186803b158015610a3857600080fd5b505afa925050508015610a6957506040513d601f19601f82011682018060405250810190610a669190611e86565b60015b610a765760019050610a7b565b809150505b80610abb576040517f08c379a0000000000000000000000000000000000000000000000000000000008152600401610ab290612482565b60405180910390fd5b60008590503373ffffffffffffffffffffffffffffffffffffffff168173ffffffffffffffffffffffffffffffffffffffff16636352211e876040518263ffffffff1660e01b8152600401610b10919061269e565b60206040518083038186803b158015610b2857600080fd5b505afa158015610b3c573d6000803e3d6000fd5b505050506040513d601f19601f82011682018060405250810190610b609190611dfa565b73ffffffffffffffffffffffffffffffffffffffff1614610bb6576040517f08c379a0000000000000000000000000000000000000000000000000000000008152600401610bad906123e2565b60405180910390fd5b7ff6ff2ad7fc16bda2a7d32462729431bce3ebe9b75cc7c9b35a0adfbf7e7bb9e683604051610be59190612562565b60405180910390a16000603c84610bfc91906127e1565b90507ff6ff2ad7fc16bda2a7d32462729431bce3ebe9b75cc7c9b35a0adfbf7e7bb9e681604051610c2d91906125d0565b60405180910390a160026000815480929190610c48906128f0565b919050555060006001600060025481526020019081526020016000209050338160000160006101000a81548173ffffffffffffffffffffffffffffffffffffffff021916908373ffffffffffffffffffffffffffffffffffffffff160217905550868160020181905550828160010160006101000a81548173ffffffffffffffffffffffffffffffffffffffff021916908373ffffffffffffffffffffffffffffffffffffffff1602179055508581600301819055508581600601819055508142610d13919061278b565b81600401819055508273ffffffffffffffffffffffffffffffffffffffff166323b872dd33308a6040518463ffffffff1660e01b8152600401610d589392919061224d565b600060405180830381600087803b158015610d7257600080fd5b505af1158015610d86573d6000803e3d6000fd5b5050505060018160070160016101000a81548160ff02191690831515021790555060018160070160006101000a81548160ff02191690836003811115610df5577f4e487b7100000000000000000000000000000000000000000000000000000000600052602160045260246000fd5b021790555060025460036000898152602001908152602001600020819055507f06b9e486c68303eb64052e0493f906f3d93a1b7149b6b8dcff221aebd16c3513600254338a8a8a8660040154604051610e53969594939291906126e2565b60405180910390a15050505050505050565b600080600080600080600080600080600160008c815260200190815260200160002090508060000160009054906101000a900473ffffffffffffffffffffffffffffffffffffffff168160010160009054906101000a900473ffffffffffffffffffffffffffffffffffffffff168260020154836003015484600401548560050160009054906101000a900473ffffffffffffffffffffffffffffffffffffffff1686600601548760070160009054906101000a900460ff166003811115610f56577f4e487b7100000000000000000000000000000000000000000000000000000000600052602160045260246000fd5b8860070160019054906101000a900460ff16995099509950995099509950995099509950509193959799909294969850565b6004602052816000526040600020602052806000526040600020600091509150505481565b6000600160008381526020019081526020016000209050600073ffffffffffffffffffffffffffffffffffffffff168160000160009054906101000a900473ffffffffffffffffffffffffffffffffffffffff1673ffffffffffffffffffffffffffffffffffffffff161415611058576040517f08c379a000000000000000000000000000000000000000000000000000000000815260040161104f906124c2565b60405180910390fd5b8060000160009054906101000a900473ffffffffffffffffffffffffffffffffffffffff1673ffffffffffffffffffffffffffffffffffffffff163373ffffffffffffffffffffffffffffffffffffffff16146110ea576040517f08c379a00000000000000000000000000000000000000000000000000000000081526004016110e1906125fe565b60405180910390fd5b60026003811115611124577f4e487b7100000000000000000000000000000000000000000000000000000000600052602160045260246000fd5b8160070160009054906101000a900460ff16600381111561116e577f4e487b7100000000000000000000000000000000000000000000000000000000600052602160045260246000fd5b141580156111fd57506003808111156111b0577f4e487b7100000000000000000000000000000000000000000000000000000000600052602160045260246000fd5b8160070160009054906101000a900460ff1660038111156111fa577f4e487b7100000000000000000000000000000000000000000000000000000000600052602160045260246000fd5b14155b61123c576040517f08c379a00000000000000000000000000000000000000000000000000000000081526004016112339061267e565b60405180910390fd5b60038160070160006101000a81548160ff0219169083600381111561128a577f4e487b7100000000000000000000000000000000000000000000000000000000600052602160045260246000fd5b02179055508060070160019054906101000a900460ff1615611362578060010160009054906101000a900473ffffffffffffffffffffffffffffffffffffffff1673ffffffffffffffffffffffffffffffffffffffff166323b872dd308360000160009054906101000a900473ffffffffffffffffffffffffffffffffffffffff1684600201546040518463ffffffff1660e01b815260040161132f9392919061224d565b600060405180830381600087803b15801561134957600080fd5b505af115801561135d573d6000803e3d6000fd5b505050505b600073ffffffffffffffffffffffffffffffffffffffff168160050160009054906101000a900473ffffffffffffffffffffffffffffffffffffffff1673ffffffffffffffffffffffffffffffffffffffff161461148b578060050160009054906101000a900473ffffffffffffffffffffffffffffffffffffffff1673ffffffffffffffffffffffffffffffffffffffff166108fc82600601549081150290604051600060405180830381858888f19350505050158015611428573d6000803e3d6000fd5b507fd7dee2702d63ad89917b6a4da9981c90c4d24f8c2bdfd64c604ecae57d8d06518160050160009054906101000a900473ffffffffffffffffffffffffffffffffffffffff16826006015460405161148292919061239e565b60405180910390a15b60006003600083600201548152602001908152602001600020819055507f2809c7e17bf978fbc7194c0a694b638c4215e9140cacc6c38ca36010b45697df826040516114d7919061269e565b60405180910390a15050565b60025481565b6000600160008381526020019081526020016000209050600073ffffffffffffffffffffffffffffffffffffffff168160000160009054906101000a900473ffffffffffffffffffffffffffffffffffffffff1673ffffffffffffffffffffffffffffffffffffffff161415611594576040517f08c379a000000000000000000000000000000000000000000000000000000000815260040161158b906124c2565b60405180910390fd5b806004015442116115da576040517f08c379a00000000000000000000000000000000000000000000000000000000081526004016115d190612522565b60405180910390fd5b60016003811115611614577f4e487b7100000000000000000000000000000000000000000000000000000000600052602160045260246000fd5b8160070160009054906101000a900460ff16600381111561165e577f4e487b7100000000000000000000000000000000000000000000000000000000600052602160045260246000fd5b1461169e576040517f08c379a000000000000000000000000000000000000000000000000000000000815260040161169590612442565b60405180910390fd5b8060070160019054906101000a900460ff166116ef576040517f08c379a00000000000000000000000000000000000000000000000000000000081526004016116e690612422565b60405180910390fd5b8060000160009054906101000a900473ffffffffffffffffffffffffffffffffffffffff1673ffffffffffffffffffffffffffffffffffffffff163373ffffffffffffffffffffffffffffffffffffffff1614611781576040517f08c379a000000000000000000000000000000000000000000000000000000000815260040161177890612502565b60405180910390fd5b60028160070160006101000a81548160ff021916908360038111156117cf577f4e487b7100000000000000000000000000000000000000000000000000000000600052602160045260246000fd5b02179055506000600360008360020154815260200190815260200160002081905550600073ffffffffffffffffffffffffffffffffffffffff168160050160009054906101000a900473ffffffffffffffffffffffffffffffffffffffff1673ffffffffffffffffffffffffffffffffffffffff1614611978578060010160009054906101000a900473ffffffffffffffffffffffffffffffffffffffff1673ffffffffffffffffffffffffffffffffffffffff166323b872dd308360050160009054906101000a900473ffffffffffffffffffffffffffffffffffffffff1684600201546040518463ffffffff1660e01b81526004016118d29392919061224d565b600060405180830381600087803b1580156118ec57600080fd5b505af1158015611900573d6000803e3d6000fd5b505050508060000160009054906101000a900473ffffffffffffffffffffffffffffffffffffffff1673ffffffffffffffffffffffffffffffffffffffff166108fc82600601549081150290604051600060405180830381858888f19350505050158015611972573d6000803e3d6000fd5b50611a34565b8060010160009054906101000a900473ffffffffffffffffffffffffffffffffffffffff1673ffffffffffffffffffffffffffffffffffffffff166323b872dd308360000160009054906101000a900473ffffffffffffffffffffffffffffffffffffffff1684600201546040518463ffffffff1660e01b8152600401611a019392919061224d565b600060405180830381600087803b158015611a1b57600080fd5b505af1158015611a2f573d6000803e3d6000fd5b505050505b7fd2aa34a4fdbbc6dff6a3e56f46e0f3ae2a31d7785ff3487aa5c95c642acea501828260050160009054906101000a900473ffffffffffffffffffffffffffffffffffffffff168360060154604051611a8f93929190612743565b60405180910390a15050565b60006001600083815260200190815260200160002090503373ffffffffffffffffffffffffffffffffffffffff168160000160009054906101000a900473ffffffffffffffffffffffffffffffffffffffff1673ffffffffffffffffffffffffffffffffffffffff1614611b44576040517f08c379a0000000000000000000000000000000000000000000000000000000008152600401611b3b9061261e565b60405180910390fd5b60006003811115611b7e577f4e487b7100000000000000000000000000000000000000000000000000000000600052602160045260246000fd5b8160070160009054906101000a900460ff166003811115611bc8577f4e487b7100000000000000000000000000000000000000000000000000000000600052602160045260246000fd5b14611c08576040517f08c379a0000000000000000000000000000000000000000000000000000000008152600401611bff90612542565b60405180910390fd5b8060070160019054906101000a900460ff1615611c5a576040517f08c379a0000000000000000000000000000000000000000000000000000000008152600401611c519061265e565b60405180910390fd5b8060010160009054906101000a900473ffffffffffffffffffffffffffffffffffffffff1673ffffffffffffffffffffffffffffffffffffffff166323b872dd333084600201546040518463ffffffff1660e01b8152600401611cbf9392919061224d565b600060405180830381600087803b158015611cd957600080fd5b505af1158015611ced573d6000803e3d6000fd5b5050505060018160070160016101000a81548160ff02191690831515021790555060018160070160006101000a81548160ff02191690836003811115611d5c577f4e487b7100000000000000000000000000000000000000000000000000000000600052602160045260246000fd5b02179055505050565b60036020528060005260406000206000915090505481565b600081359050611d8c81612e38565b92915050565b600081519050611da181612e38565b92915050565b600081519050611db681612e4f565b92915050565b600081359050611dcb81612e66565b92915050565b600060208284031215611de357600080fd5b6000611df184828501611d7d565b91505092915050565b600060208284031215611e0c57600080fd5b6000611e1a84828501611d92565b91505092915050565b60008060008060808587031215611e3957600080fd5b6000611e4787828801611d7d565b9450506020611e5887828801611dbc565b9350506040611e6987828801611dbc565b9250506060611e7a87828801611dbc565b91505092959194509250565b600060208284031215611e9857600080fd5b6000611ea684828501611da7565b91505092915050565b600060208284031215611ec157600080fd5b6000611ecf84828501611dbc565b91505092915050565b60008060408385031215611eeb57600080fd5b6000611ef985828601611dbc565b9250506020611f0a85828601611d7d565b9150509250929050565b611f1d8161283b565b82525050565b611f2c8161284d565b82525050565b611f3b81612896565b82525050565b611f4a816128ba565b82525050565b611f59816128de565b82525050565b6000611f6c60178361277a565b9150611f7782612997565b602082019050919050565b6000611f8f60308361277a565b9150611f9a826129c0565b604082019050919050565b6000611fb260118361277a565b9150611fbd82612a0f565b602082019050919050565b6000611fd560128361277a565b9150611fe082612a38565b602082019050919050565b6000611ff860118361277a565b915061200382612a61565b602082019050919050565b600061201b604a8361277a565b915061202682612a8a565b606082019050919050565b600061203e60128361277a565b915061204982612aff565b602082019050919050565b600061206160168361277a565b915061206c82612b28565b602082019050919050565b600061208460258361277a565b915061208f82612b51565b604082019050919050565b60006120a760198361277a565b91506120b282612ba0565b602082019050919050565b60006120ca60158361277a565b91506120d582612bc9565b602082019050919050565b60006120ed601c8361277a565b91506120f882612bf2565b602082019050919050565b600061211060288361277a565b915061211b82612c1b565b604082019050919050565b600061213360278361277a565b915061213e82612c6a565b604082019050919050565b600061215660158361277a565b915061216182612cb9565b602082019050919050565b600061217960138361277a565b915061218482612ce2565b602082019050919050565b600061219c601f8361277a565b91506121a782612d0b565b602082019050919050565b60006121bf601c8361277a565b91506121ca82612d34565b602082019050919050565b60006121e260348361277a565b91506121ed82612d5d565b604082019050919050565b600061220560158361277a565b915061221082612dac565b602082019050919050565b600061222860228361277a565b915061223382612dd5565b604082019050919050565b6122478161288c565b82525050565b60006060820190506122626000830186611f14565b61226f6020830185611f14565b61227c604083018461223e565b949350505050565b60006101208201905061229a600083018c611f14565b6122a7602083018b611f14565b6122b4604083018a61223e565b6122c1606083018961223e565b6122ce608083018861223e565b6122db60a0830187611f14565b6122e860c083018661223e565b6122f560e083018561223e565b612303610100830184611f23565b9a9950505050505050505050565b600061012082019050612327600083018c611f14565b612334602083018b611f32565b612341604083018a61223e565b61234e606083018961223e565b61235b608083018861223e565b61236860a0830187611f14565b61237560c083018661223e565b61238260e0830185611f50565b612390610100830184611f23565b9a9950505050505050505050565b60006040820190506123b36000830185611f14565b6123c0602083018461223e565b9392505050565b60006020820190506123dc6000830184611f41565b92915050565b600060208201905081810360008301526123fb81611f5f565b9050919050565b6000602082019050818103600083015261241b81611f82565b9050919050565b6000602082019050818103600083015261243b81611fa5565b9050919050565b6000602082019050818103600083015261245b81611fc8565b9050919050565b6000602082019050818103600083015261247b81611feb565b9050919050565b6000602082019050818103600083015261249b8161200e565b9050919050565b600060208201905081810360008301526124bb81612031565b9050919050565b600060208201905081810360008301526124db81612054565b9050919050565b600060208201905081810360008301526124fb81612077565b9050919050565b6000602082019050818103600083015261251b8161209a565b9050919050565b6000602082019050818103600083015261253b816120bd565b9050919050565b6000602082019050818103600083015261255b816120e0565b9050919050565b6000604082019050818103600083015261257b81612103565b905061258a602083018461223e565b92915050565b600060208201905081810360008301526125a981612126565b9050919050565b600060208201905081810360008301526125c981612149565b9050919050565b600060408201905081810360008301526125e98161216c565b90506125f8602083018461223e565b92915050565b600060208201905081810360008301526126178161218f565b9050919050565b60006020820190508181036000830152612637816121b2565b9050919050565b60006020820190508181036000830152612657816121d5565b9050919050565b60006020820190508181036000830152612677816121f8565b9050919050565b600060208201905081810360008301526126978161221b565b9050919050565b60006020820190506126b3600083018461223e565b92915050565b60006040820190506126ce600083018561223e565b6126db6020830184611f14565b9392505050565b600060c0820190506126f7600083018961223e565b6127046020830188611f14565b6127116040830187611f14565b61271e606083018661223e565b61272b608083018561223e565b61273860a083018461223e565b979650505050505050565b6000606082019050612758600083018661223e565b6127656020830185611f14565b612772604083018461223e565b949350505050565b600082825260208201905092915050565b60006127968261288c565b91506127a18361288c565b9250827fffffffffffffffffffffffffffffffffffffffffffffffffffffffffffffffff038211156127d6576127d5612939565b5b828201905092915050565b60006127ec8261288c565b91506127f78361288c565b9250817fffffffffffffffffffffffffffffffffffffffffffffffffffffffffffffffff04831182151516156128305761282f612939565b5b828202905092915050565b60006128468261286c565b9050919050565b60008115159050919050565b600081905061286782612e24565b919050565b600073ffffffffffffffffffffffffffffffffffffffff82169050919050565b6000819050919050565b60006128a1826128a8565b9050919050565b60006128b38261286c565b9050919050565b60006128c5826128cc565b9050919050565b60006128d78261286c565b9050919050565b60006128e982612859565b9050919050565b60006128fb8261288c565b91507fffffffffffffffffffffffffffffffffffffffffffffffffffffffffffffffff82141561292e5761292d612939565b5b600182019050919050565b7f4e487b7100000000000000000000000000000000000000000000000000000000600052601160045260246000fd5b7f4e487b7100000000000000000000000000000000000000000000000000000000600052602160045260246000fd5b7f43616c6c6572206973206e6f7420746865206f776e6572000000000000000000600082015250565b7f426964206d7573742062652067726561746572207468616e207468652063757260008201527f72656e7420686967686573742062696400000000000000000000000000000000602082015250565b7f4e4654206e6f74206465706f7369746564000000000000000000000000000000600082015250565b7f41756374696f6e206e6f74206163746976650000000000000000000000000000600082015250565b7f41756374696f6e2068617320656e646564000000000000000000000000000000600082015250565b7f4e4654206368c6b06120c491c6b0e1bba3632078c3a163207468e1bbb1632e2060008201527f567569206cc3b26e672079c3aa752063e1baa7752078c3a163207468e1bbb16360208201527f207472c6b0e1bb9b632e00000000000000000000000000000000000000000000604082015250565b7f43726561746f722063616e6e6f74206269640000000000000000000000000000600082015250565b7f41756374696f6e20646f6573206e6f7420657869737400000000000000000000600082015250565b7f5374617274696e67207072696365206d7573742062652067726561746572207460008201527f68616e2030000000000000000000000000000000000000000000000000000000602082015250565b7f4f6e6c792063726561746f722063616e2066696e616c697a6500000000000000600082015250565b7f41756374696f6e206e6f742079657420656e6465640000000000000000000000600082015250565b7f41756374696f6e206e6f7420696e206372656174656420737461746500000000600082015250565b7f4372656174696e672061756374696f6e2077697468206475726174696f6e202860008201527f6d696e7574657329000000000000000000000000000000000000000000000000602082015250565b7f41756374696f6e206475726174696f6e206d757374206265206772656174657260008201527f207468616e203000000000000000000000000000000000000000000000000000602082015250565b7f4e4654206e6f74206465706f7369746564207965740000000000000000000000600082015250565b7f4475726174696f6e20696e207365636f6e647300000000000000000000000000600082015250565b7f4f6e6c792063726561746f722063616e2063616e63656c2061756374696f6e00600082015250565b7f4f6e6c792063726561746f722063616e206465706f736974204e465400000000600082015250565b7f426964206d7573742062652067726561746572207468616e206f72206571756160008201527f6c20746f20746865207374617274207072696365000000000000000000000000602082015250565b7f4e465420616c7265616479206465706f73697465640000000000000000000000600082015250565b7f41756374696f6e20616c726561647920656e646564206f722063616e63656c6c60008201527f6564000000000000000000000000000000000000000000000000000000000000602082015250565b60048110612e3557612e34612968565b5b50565b612e418161283b565b8114612e4c57600080fd5b50565b612e588161284d565b8114612e6357600080fd5b50565b612e6f8161288c565b8114612e7a57600080fd5b5056fea26469706673582212208f47fe5672bc4c71728d7a5c68266189efa7e468555549df6353a0d1baec63da64736f6c63430008010033",
  "immutableReferences": {},
  "source": "// SPDX-License-Identifier: MIT\r\npragma solidity ^0.8.0;\r\n\r\nimport \"@openzeppelin/contracts/token/ERC721/IERC721.sol\";\r\nimport \"./NFTVerifier.sol\";\r\n\r\ncontract NFTAuction {\r\n    NFTVerifier public verifier;\r\n\r\n    enum AuctionState {\r\n        Created, // u gi  c to nhng cha bt u\r\n        Active, // u gi ang din ra (NFT  c chuyn)\r\n        Ended, // u gi  kt thc\r\n        Cancelled // u gi  b hy\r\n    }\r\n\r\n    struct Auction {\r\n        address creator; // a ch ngi to u gi\r\n        IERC721 nftContract; // a ch hp ng NFT\r\n        uint256 tokenId; // ID ca token ang u gi\r\n        uint256 startPrice; // Gi khi im\r\n        uint256 endTime; // Thi gian kt thc\r\n        address highestBidder; // Ngi tr gi cao nht\r\n        uint256 highestBid; // Gi cao nht hin ti\r\n        AuctionState state; // Trng thi u gi\r\n        bool nftDeposited; // NFT  c chuyn vo contract cha\r\n    }\r\n\r\n    // Lu tr thng tin cc phin u gi theo ID\r\n    mapping(uint256 => Auction) public auctions;\r\n    uint256 public auctionCounter;\r\n\r\n    // Theo di phin u gi ang hot ng ca mi token\r\n    mapping(uint256 => uint256) public activeAuctionByToken;\r\n\r\n    // Lu tr s tin cn hon tr cho ngi u gi\r\n    mapping(uint256 => mapping(address => uint256)) public pendingReturns;\r\n\r\n    event VerificationRequired(uint256 tokenId, address creator);\r\n    event AuctionCreated(\r\n        uint256 auctionId,\r\n        address creator,\r\n        address nftContract,\r\n        uint256 tokenId,\r\n        uint256 startPrice,\r\n        uint256 endTime\r\n    );\r\n    event NewBid(uint256 auctionId, address bidder, uint256 amount);\r\n    event AuctionEnded(uint256 auctionId, address winner, uint256 amount);\r\n    event AuctionCancelled(uint256 auctionId);\r\n    event Refunded(address bidder, uint256 amount);\r\n    event DebugLog(string message, uint256 value);\r\n\r\n    constructor(address _verifierAddress) {\r\n        verifier = NFTVerifier(_verifierAddress);\r\n    }\r\n\r\n    function setVerifier(address _verifierAddress) external {\r\n        // C th thm quyn admin  y\r\n        verifier = NFTVerifier(_verifierAddress);\r\n    }\r\n\r\n    // Hm to phin u gi mi (khng chuyn NFT)\r\n    function createAuction(\r\n        address _nftContract,\r\n        uint256 _tokenId,\r\n        uint256 _startPrice,\r\n        uint256 _auctionDuration\r\n    ) external {\r\n        require(_startPrice > 0, \"Starting price must be greater than 0\");\r\n        require(\r\n            _auctionDuration > 0,\r\n            \"Auction duration must be greater than 0\"\r\n        );\r\n\r\n        bool isVerified = false;\r\n        try verifier.isNFTVerified(_tokenId) returns (bool result) {\r\n            isVerified = result;\r\n        } catch {\r\n            isVerified = true;\r\n        }\r\n\r\n        require(\r\n            isVerified,\r\n            unicode\"NFT cha c xc thc. Vui lng yu cu xc thc trc.\"\r\n        );\r\n\r\n        IERC721 nft = IERC721(_nftContract);\r\n        require(nft.ownerOf(_tokenId) == msg.sender, \"Caller is not the owner\");\r\n\r\n        emit DebugLog(\r\n            \"Creating auction with duration (minutes)\",\r\n            _auctionDuration\r\n        );\r\n\r\n        // Chuyn i t pht thnh giy\r\n        uint256 durationInSeconds = _auctionDuration * 60;\r\n        emit DebugLog(\"Duration in seconds\", durationInSeconds);\r\n\r\n        auctionCounter++;\r\n        Auction storage newAuction = auctions[auctionCounter];\r\n        newAuction.creator = msg.sender;\r\n        newAuction.tokenId = _tokenId;\r\n        newAuction.nftContract = nft;\r\n        newAuction.startPrice = _startPrice;\r\n        newAuction.highestBid = _startPrice;\r\n        newAuction.endTime = block.timestamp + durationInSeconds;\r\n\r\n        nft.transferFrom(msg.sender, address(this), _tokenId);\r\n        newAuction.nftDeposited = true;\r\n        newAuction.state = AuctionState.Active;\r\n\r\n        activeAuctionByToken[_tokenId] = auctionCounter;\r\n\r\n        emit AuctionCreated(\r\n            auctionCounter,\r\n            msg.sender,\r\n            _nftContract,\r\n            _tokenId,\r\n            _startPrice,\r\n            newAuction.endTime\r\n        );\r\n    }\r\n\r\n    // Hm t gi thu\r\n    function bid(uint256 _auctionId) public payable {\r\n        Auction storage auction = auctions[_auctionId];\r\n        require(auction.creator != address(0), \"Auction does not exist\");\r\n        require(auction.nftDeposited, \"NFT not deposited yet\");\r\n        require(block.timestamp <= auction.endTime, \"Auction has ended\");\r\n        require(msg.sender != auction.creator, \"Creator cannot bid\");\r\n        require(\r\n            msg.value >= auction.startPrice,\r\n            \"Bid must be greater than or equal to the start price\"\r\n        );\r\n        require(\r\n            msg.value > auction.highestBid,\r\n            \"Bid must be greater than the current highest bid\"\r\n        );\r\n\r\n        // Hon tin cho ngi u gi trc\r\n        if (auction.highestBidder != address(0)) {\r\n            payable(auction.highestBidder).transfer(auction.highestBid);\r\n            emit Refunded(auction.highestBidder, auction.highestBid);\r\n        }\r\n\r\n        auction.highestBidder = msg.sender;\r\n        auction.highestBid = msg.value;\r\n\r\n        emit NewBid(_auctionId, msg.sender, msg.value);\r\n    }\r\n\r\n    function depositNFT(uint256 _auctionId) external {\r\n        Auction storage auction = auctions[_auctionId];\r\n\r\n        require(auction.creator == msg.sender, \"Only creator can deposit NFT\");\r\n        require(\r\n            auction.state == AuctionState.Created,\r\n            \"Auction not in created state\"\r\n        );\r\n        require(!auction.nftDeposited, \"NFT already deposited\");\r\n\r\n        // Transfer NFT to contract\r\n        auction.nftContract.transferFrom(\r\n            msg.sender,\r\n            address(this),\r\n            auction.tokenId\r\n        );\r\n\r\n        auction.nftDeposited = true;\r\n        auction.state = AuctionState.Active;\r\n    }\r\n\r\n    // Hm hy phin u gi\r\n    function cancelAuction(uint256 _auctionId) public {\r\n        Auction storage auction = auctions[_auctionId];\r\n\r\n        require(auction.creator != address(0), \"Auction does not exist\");\r\n        require(\r\n            msg.sender == auction.creator,\r\n            \"Only creator can cancel auction\"\r\n        );\r\n        require(\r\n            auction.state != AuctionState.Ended &&\r\n                auction.state != AuctionState.Cancelled,\r\n            \"Auction already ended or cancelled\"\r\n        );\r\n\r\n        auction.state = AuctionState.Cancelled;\r\n\r\n        // Nu NFT  c chuyn vo contract, tr li cho ngi to\r\n        if (auction.nftDeposited) {\r\n            auction.nftContract.transferFrom(\r\n                address(this),\r\n                auction.creator,\r\n                auction.tokenId\r\n            );\r\n        }\r\n\r\n        // Hon tin cho ngi u gi cao nht nu c\r\n        if (auction.highestBidder != address(0)) {\r\n            payable(auction.highestBidder).transfer(auction.highestBid);\r\n            emit Refunded(auction.highestBidder, auction.highestBid);\r\n        }\r\n\r\n        // Clear active auction for the token\r\n        activeAuctionByToken[auction.tokenId] = 0;\r\n\r\n        emit AuctionCancelled(_auctionId);\r\n    }\r\n\r\n    // Hm kt thc v thanh ton phin u gi\r\n    function finalizeAuction(uint256 _auctionId) public {\r\n        Auction storage auction = auctions[_auctionId];\r\n\r\n        require(auction.creator != address(0), \"Auction does not exist\");\r\n        require(block.timestamp > auction.endTime, \"Auction not yet ended\");\r\n        require(auction.state == AuctionState.Active, \"Auction not active\");\r\n        require(auction.nftDeposited, \"NFT not deposited\");\r\n        require(msg.sender == auction.creator, \"Only creator can finalize\");\r\n\r\n        auction.state = AuctionState.Ended;\r\n\r\n        // Clear active auction for the token\r\n        activeAuctionByToken[auction.tokenId] = 0;\r\n\r\n        if (auction.highestBidder != address(0)) {\r\n            // Chuyn NFT cho ngi thng\r\n            auction.nftContract.transferFrom(\r\n                address(this),\r\n                auction.highestBidder,\r\n                auction.tokenId\r\n            );\r\n\r\n            // Chuyn tin cho ngi to\r\n            payable(auction.creator).transfer(auction.highestBid);\r\n        } else {\r\n            // Nu khng c ai u gi, tr NFT li cho ngi to\r\n            auction.nftContract.transferFrom(\r\n                address(this),\r\n                auction.creator,\r\n                auction.tokenId\r\n            );\r\n        }\r\n\r\n        emit AuctionEnded(\r\n            _auctionId,\r\n            auction.highestBidder,\r\n            auction.highestBid\r\n        );\r\n    }\r\n\r\n    // Hm ly thng tin u gi\r\n    function getAuction(\r\n        uint256 _auctionId\r\n    )\r\n        external\r\n        view\r\n        returns (\r\n            address creator,\r\n            address nftContract,\r\n            uint256 tokenId,\r\n            uint256 startPrice,\r\n            uint256 endTime,\r\n            address highestBidder,\r\n            uint256 highestBid,\r\n            uint256 state,\r\n            bool nftDeposited\r\n        )\r\n    {\r\n        Auction storage auction = auctions[_auctionId];\r\n        return (\r\n            auction.creator,\r\n            address(auction.nftContract),\r\n            auction.tokenId,\r\n            auction.startPrice,\r\n            auction.endTime,\r\n            auction.highestBidder,\r\n            auction.highestBid,\r\n            uint256(auction.state),\r\n            auction.nftDeposited\r\n        );\r\n    }\r\n\r\n    function requestVerification(uint256 _tokenId) external {\r\n        // Forward the verification request to the NFTVerifier contract\r\n        verifier.requestVerification(_tokenId);\r\n        emit VerificationRequired(_tokenId, msg.sender);\r\n    }\r\n}\r\n",
  "sourcePath": "D:\\Users\\trieunth\\Desktop\\Team_Work\\BlockchainBTL\\New folder\\contracts\\NFTAuction.sol",
  "compiler": {
    "name": "solc",
    "version": "0.8.1+commit.df193b15.Emscripten.clang"
  },
  "schemaVersion": "3.4.16",
  "updatedAt": "2025-03-23T06:39:58.590Z",
  "networkType": "ethereum",
  "devdoc": {
    "kind": "dev",
    "methods": {},
    "version": 1
  },
  "userdoc": {
    "kind": "user",
    "methods": {},
    "version": 1
  }
}