{
  "contractName": "NFTAuction",
  "abi": [
    {
      "anonymous": false,
      "inputs": [
        {
          "indexed": false,
          "internalType": "uint256",
          "name": "auctionId",
          "type": "uint256"
        }
      ],
      "name": "AuctionCancelled",
      "type": "event"
    },
    {
      "anonymous": false,
      "inputs": [
        {
          "indexed": false,
          "internalType": "uint256",
          "name": "auctionId",
          "type": "uint256"
        },
        {
          "indexed": false,
          "internalType": "address",
          "name": "creator",
          "type": "address"
        },
        {
          "indexed": false,
          "internalType": "uint256",
          "name": "tokenId",
          "type": "uint256"
        },
        {
          "indexed": false,
          "internalType": "uint256",
          "name": "startPrice",
          "type": "uint256"
        },
        {
          "indexed": false,
          "internalType": "uint256",
          "name": "endTime",
          "type": "uint256"
        }
      ],
      "name": "AuctionCreated",
      "type": "event"
    },
    {
      "anonymous": false,
      "inputs": [
        {
          "indexed": false,
          "internalType": "uint256",
          "name": "auctionId",
          "type": "uint256"
        },
        {
          "indexed": false,
          "internalType": "address",
          "name": "winner",
          "type": "address"
        },
        {
          "indexed": false,
          "internalType": "uint256",
          "name": "amount",
          "type": "uint256"
        }
      ],
      "name": "AuctionEnded",
      "type": "event"
    },
    {
      "anonymous": false,
      "inputs": [
        {
          "indexed": false,
          "internalType": "uint256",
          "name": "auctionId",
          "type": "uint256"
        },
        {
          "indexed": false,
          "internalType": "address",
          "name": "bidder",
          "type": "address"
        },
        {
          "indexed": false,
          "internalType": "uint256",
          "name": "amount",
          "type": "uint256"
        }
      ],
      "name": "NewBid",
      "type": "event"
    },
    {
      "anonymous": false,
      "inputs": [
        {
          "indexed": false,
          "internalType": "address",
          "name": "bidder",
          "type": "address"
        },
        {
          "indexed": false,
          "internalType": "uint256",
          "name": "amount",
          "type": "uint256"
        }
      ],
      "name": "Refunded",
      "type": "event"
    },
    {
      "inputs": [
        {
          "internalType": "uint256",
          "name": "",
          "type": "uint256"
        }
      ],
      "name": "activeAuctionByToken",
      "outputs": [
        {
          "internalType": "uint256",
          "name": "",
          "type": "uint256"
        }
      ],
      "stateMutability": "view",
      "type": "function",
      "constant": true
    },
    {
      "inputs": [],
      "name": "auctionCounter",
      "outputs": [
        {
          "internalType": "uint256",
          "name": "",
          "type": "uint256"
        }
      ],
      "stateMutability": "view",
      "type": "function",
      "constant": true
    },
    {
      "inputs": [
        {
          "internalType": "uint256",
          "name": "",
          "type": "uint256"
        }
      ],
      "name": "auctions",
      "outputs": [
        {
          "internalType": "address",
          "name": "creator",
          "type": "address"
        },
        {
          "internalType": "contract IERC721",
          "name": "nftContract",
          "type": "address"
        },
        {
          "internalType": "uint256",
          "name": "tokenId",
          "type": "uint256"
        },
        {
          "internalType": "uint256",
          "name": "startPrice",
          "type": "uint256"
        },
        {
          "internalType": "uint256",
          "name": "endTime",
          "type": "uint256"
        },
        {
          "internalType": "address",
          "name": "highestBidder",
          "type": "address"
        },
        {
          "internalType": "uint256",
          "name": "highestBid",
          "type": "uint256"
        },
        {
          "internalType": "bool",
          "name": "ended",
          "type": "bool"
        }
      ],
      "stateMutability": "view",
      "type": "function",
      "constant": true
    },
    {
      "inputs": [
        {
          "internalType": "uint256",
          "name": "",
          "type": "uint256"
        },
        {
          "internalType": "address",
          "name": "",
          "type": "address"
        }
      ],
      "name": "pendingReturns",
      "outputs": [
        {
          "internalType": "uint256",
          "name": "",
          "type": "uint256"
        }
      ],
      "stateMutability": "view",
      "type": "function",
      "constant": true
    },
    {
      "inputs": [
        {
          "internalType": "contract IERC721",
          "name": "_nftContract",
          "type": "address"
        },
        {
          "internalType": "uint256",
          "name": "_tokenId",
          "type": "uint256"
        },
        {
          "internalType": "uint256",
          "name": "_startPrice",
          "type": "uint256"
        },
        {
          "internalType": "uint256",
          "name": "_durationInMinutes",
          "type": "uint256"
        }
      ],
      "name": "createAuction",
      "outputs": [],
      "stateMutability": "nonpayable",
      "type": "function"
    },
    {
      "inputs": [
        {
          "internalType": "uint256",
          "name": "_auctionId",
          "type": "uint256"
        }
      ],
      "name": "bid",
      "outputs": [],
      "stateMutability": "payable",
      "type": "function",
      "payable": true
    },
    {
      "inputs": [
        {
          "internalType": "uint256",
          "name": "_auctionId",
          "type": "uint256"
        }
      ],
      "name": "cancelAuction",
      "outputs": [],
      "stateMutability": "nonpayable",
      "type": "function"
    },
    {
      "inputs": [
        {
          "internalType": "uint256",
          "name": "_auctionId",
          "type": "uint256"
        }
      ],
      "name": "finalizeAuction",
      "outputs": [],
      "stateMutability": "nonpayable",
      "type": "function"
    },
    {
      "inputs": [
        {
          "internalType": "uint256",
          "name": "_auctionId",
          "type": "uint256"
        }
      ],
      "name": "endAuction",
      "outputs": [],
      "stateMutability": "nonpayable",
      "type": "function"
    }
  ],
  "bytecode": "0x608060405234801561001057600080fd5b5061273f806100206000396000f3fe6080604052600436106100865760003560e01c806396b5a7551161005957806396b5a75514610151578063a7e766441461017a578063b9a2de3a146101a5578063e8083863146101ce578063ed9559f7146101f757610086565b8063454a2ab31461008b578063571a26a0146100a757806361beb1d7146100eb5780638ddac1ef14610114575b600080fd5b6100a560048036038101906100a09190611a93565b610234565b005b3480156100b357600080fd5b506100ce60048036038101906100c99190611a93565b61064b565b6040516100e2989796959493929190611dc4565b60405180910390f35b3480156100f757600080fd5b50610112600480360381019061010d9190611a30565b610700565b005b34801561012057600080fd5b5061013b60048036038101906101369190611abc565b610ccf565b604051610148919061206b565b60405180910390f35b34801561015d57600080fd5b5061017860048036038101906101739190611a93565b610cf4565b005b34801561018657600080fd5b5061018f61107a565b60405161019c919061206b565b60405180910390f35b3480156101b157600080fd5b506101cc60048036038101906101c79190611a93565b611080565b005b3480156101da57600080fd5b506101f560048036038101906101f09190611a93565b6114a5565b005b34801561020357600080fd5b5061021e60048036038101906102199190611a93565b61195d565b60405161022b919061206b565b60405180910390f35b60008060008381526020019081526020016000209050600073ffffffffffffffffffffffffffffffffffffffff168160000160009054906101000a900473ffffffffffffffffffffffffffffffffffffffff1673ffffffffffffffffffffffffffffffffffffffff1614156102de576040517f08c379a00000000000000000000000000000000000000000000000000000000081526004016102d590611f6b565b60405180910390fd5b8060070160009054906101000a900460ff1615610330576040517f08c379a000000000000000000000000000000000000000000000000000000000815260040161032790611f2b565b60405180910390fd5b8060040154421115610377576040517f08c379a000000000000000000000000000000000000000000000000000000000815260040161036e90611f2b565b60405180910390fd5b8060000160009054906101000a900473ffffffffffffffffffffffffffffffffffffffff1673ffffffffffffffffffffffffffffffffffffffff163373ffffffffffffffffffffffffffffffffffffffff16141561040a576040517f08c379a000000000000000000000000000000000000000000000000000000000815260040161040190611f4b565b60405180910390fd5b8060030154341015610451576040517f08c379a00000000000000000000000000000000000000000000000000000000081526004016104489061202b565b60405180910390fd5b80600601543411610497576040517f08c379a000000000000000000000000000000000000000000000000000000000815260040161048e90611e8b565b60405180910390fd5b600073ffffffffffffffffffffffffffffffffffffffff168160050160009054906101000a900473ffffffffffffffffffffffffffffffffffffffff1673ffffffffffffffffffffffffffffffffffffffff16146105c0578060050160009054906101000a900473ffffffffffffffffffffffffffffffffffffffff1673ffffffffffffffffffffffffffffffffffffffff166108fc82600601549081150290604051600060405180830381858888f1935050505015801561055d573d6000803e3d6000fd5b507fd7dee2702d63ad89917b6a4da9981c90c4d24f8c2bdfd64c604ecae57d8d06518160050160009054906101000a900473ffffffffffffffffffffffffffffffffffffffff1682600601546040516105b7929190611e42565b60405180910390a15b338160050160006101000a81548173ffffffffffffffffffffffffffffffffffffffff021916908373ffffffffffffffffffffffffffffffffffffffff1602179055503481600601819055507f558a0d5d5468d74b0db24c74eb348b42271c2ebb4c9e953ced38aaed95fa436182333460405161063f93929190612086565b60405180910390a15050565b60006020528060005260406000206000915090508060000160009054906101000a900473ffffffffffffffffffffffffffffffffffffffff16908060010160009054906101000a900473ffffffffffffffffffffffffffffffffffffffff16908060020154908060030154908060040154908060050160009054906101000a900473ffffffffffffffffffffffffffffffffffffffff16908060060154908060070160009054906101000a900460ff16905088565b60008211610743576040517f08c379a000000000000000000000000000000000000000000000000000000000815260040161073a90611feb565b60405180910390fd5b60008111610786576040517f08c379a000000000000000000000000000000000000000000000000000000000815260040161077d90611eab565b60405180910390fd5b3373ffffffffffffffffffffffffffffffffffffffff168473ffffffffffffffffffffffffffffffffffffffff16636352211e856040518263ffffffff1660e01b81526004016107d6919061206b565b60206040518083038186803b1580156107ee57600080fd5b505afa158015610802573d6000803e3d6000fd5b505050506040513d601f19601f8201168201806040525081019061082691906119de565b73ffffffffffffffffffffffffffffffffffffffff161461087c576040517f08c379a00000000000000000000000000000000000000000000000000000000081526004016108739061204b565b60405180910390fd5b3073ffffffffffffffffffffffffffffffffffffffff168473ffffffffffffffffffffffffffffffffffffffff1663081812fc856040518263ffffffff1660e01b81526004016108cc919061206b565b60206040518083038186803b1580156108e457600080fd5b505afa1580156108f8573d6000803e3d6000fd5b505050506040513d601f19601f8201168201806040525081019061091c91906119de565b73ffffffffffffffffffffffffffffffffffffffff1614806109c557508373ffffffffffffffffffffffffffffffffffffffff1663e985e9c533306040518363ffffffff1660e01b8152600401610974929190611d64565b60206040518083038186803b15801561098c57600080fd5b505afa1580156109a0573d6000803e3d6000fd5b505050506040513d601f19601f820116820180604052508101906109c49190611a07565b5b610a04576040517f08c379a00000000000000000000000000000000000000000000000000000000081526004016109fb90611f0b565b60405180910390fd5b8373ffffffffffffffffffffffffffffffffffffffff166323b872dd3330866040518463ffffffff1660e01b8152600401610a4193929190611d8d565b600060405180830381600087803b158015610a5b57600080fd5b505af1158015610a6f573d6000803e3d6000fd5b5050505060016000815480929190610a869061224f565b91905055506040518061010001604052803373ffffffffffffffffffffffffffffffffffffffff1681526020018573ffffffffffffffffffffffffffffffffffffffff168152602001848152602001838152602001603c83610ae89190612177565b42610af39190612121565b8152602001600073ffffffffffffffffffffffffffffffffffffffff1681526020016000815260200160001515815250600080600154815260200190815260200160002060008201518160000160006101000a81548173ffffffffffffffffffffffffffffffffffffffff021916908373ffffffffffffffffffffffffffffffffffffffff16021790555060208201518160010160006101000a81548173ffffffffffffffffffffffffffffffffffffffff021916908373ffffffffffffffffffffffffffffffffffffffff16021790555060408201518160020155606082015181600301556080820151816004015560a08201518160050160006101000a81548173ffffffffffffffffffffffffffffffffffffffff021916908373ffffffffffffffffffffffffffffffffffffffff16021790555060c0820151816006015560e08201518160070160006101000a81548160ff02191690831515021790555090505060015460026000858152602001908152602001600020819055507f05f9bf100dd0ca9f37f08e0526690286d357ed7d6c5a4ac29730440b6e2dfd62600154338585600080600154815260200190815260200160002060040154604051610cc19594939291906120bd565b60405180910390a150505050565b6003602052816000526040600020602052806000526040600020600091509150505481565b60008060008381526020019081526020016000209050600073ffffffffffffffffffffffffffffffffffffffff168160000160009054906101000a900473ffffffffffffffffffffffffffffffffffffffff1673ffffffffffffffffffffffffffffffffffffffff161415610d9e576040517f08c379a0000000000000000000000000000000000000000000000000000000008152600401610d9590611f6b565b60405180910390fd5b8060000160009054906101000a900473ffffffffffffffffffffffffffffffffffffffff1673ffffffffffffffffffffffffffffffffffffffff163373ffffffffffffffffffffffffffffffffffffffff1614610e30576040517f08c379a0000000000000000000000000000000000000000000000000000000008152600401610e279061200b565b60405180910390fd5b8060070160009054906101000a900460ff1615610e82576040517f08c379a0000000000000000000000000000000000000000000000000000000008152600401610e7990611eeb565b60405180910390fd5b60018160070160006101000a81548160ff0219169083151502179055508060010160009054906101000a900473ffffffffffffffffffffffffffffffffffffffff1673ffffffffffffffffffffffffffffffffffffffff166323b872dd308360000160009054906101000a900473ffffffffffffffffffffffffffffffffffffffff1684600201546040518463ffffffff1660e01b8152600401610f2893929190611d8d565b600060405180830381600087803b158015610f4257600080fd5b505af1158015610f56573d6000803e3d6000fd5b50505050600073ffffffffffffffffffffffffffffffffffffffff168160050160009054906101000a900473ffffffffffffffffffffffffffffffffffffffff1673ffffffffffffffffffffffffffffffffffffffff1614611022578060050160009054906101000a900473ffffffffffffffffffffffffffffffffffffffff1673ffffffffffffffffffffffffffffffffffffffff166108fc82600601549081150290604051600060405180830381858888f19350505050158015611020573d6000803e3d6000fd5b505b60006002600083600201548152602001908152602001600020819055507f2809c7e17bf978fbc7194c0a694b638c4215e9140cacc6c38ca36010b45697df8260405161106e919061206b565b60405180910390a15050565b60015481565b6000806000838152602001908152602001600020905080600401544210156110dd576040517f08c379a00000000000000000000000000000000000000000000000000000000081526004016110d490611ecb565b60405180910390fd5b8060070160009054906101000a900460ff161561112f576040517f08c379a000000000000000000000000000000000000000000000000000000000815260040161112690611e6b565b60405180910390fd5b8060000160009054906101000a900473ffffffffffffffffffffffffffffffffffffffff1673ffffffffffffffffffffffffffffffffffffffff163373ffffffffffffffffffffffffffffffffffffffff16146111c1576040517f08c379a00000000000000000000000000000000000000000000000000000000081526004016111b890611fab565b60405180910390fd5b60018160070160006101000a81548160ff0219169083151502179055506000600260008360020154815260200190815260200160002081905550600073ffffffffffffffffffffffffffffffffffffffff168160050160009054906101000a900473ffffffffffffffffffffffffffffffffffffffff1673ffffffffffffffffffffffffffffffffffffffff1614611382578060000160009054906101000a900473ffffffffffffffffffffffffffffffffffffffff1673ffffffffffffffffffffffffffffffffffffffff166108fc82600601549081150290604051600060405180830381858888f193505050501580156112c1573d6000803e3d6000fd5b508060010160009054906101000a900473ffffffffffffffffffffffffffffffffffffffff1673ffffffffffffffffffffffffffffffffffffffff166323b872dd308360050160009054906101000a900473ffffffffffffffffffffffffffffffffffffffff1684600201546040518463ffffffff1660e01b815260040161134b93929190611d8d565b600060405180830381600087803b15801561136557600080fd5b505af1158015611379573d6000803e3d6000fd5b5050505061143e565b8060010160009054906101000a900473ffffffffffffffffffffffffffffffffffffffff1673ffffffffffffffffffffffffffffffffffffffff166323b872dd308360000160009054906101000a900473ffffffffffffffffffffffffffffffffffffffff1684600201546040518463ffffffff1660e01b815260040161140b93929190611d8d565b600060405180830381600087803b15801561142557600080fd5b505af1158015611439573d6000803e3d6000fd5b505050505b7fd2aa34a4fdbbc6dff6a3e56f46e0f3ae2a31d7785ff3487aa5c95c642acea501828260050160009054906101000a900473ffffffffffffffffffffffffffffffffffffffff16836006015460405161149993929190612086565b60405180910390a15050565b60008060008381526020019081526020016000209050600073ffffffffffffffffffffffffffffffffffffffff168160000160009054906101000a900473ffffffffffffffffffffffffffffffffffffffff1673ffffffffffffffffffffffffffffffffffffffff16141561154f576040517f08c379a000000000000000000000000000000000000000000000000000000000815260040161154690611f6b565b60405180910390fd5b80600401544211611595576040517f08c379a000000000000000000000000000000000000000000000000000000000815260040161158c90611fcb565b60405180910390fd5b8060070160009054906101000a900460ff16156115e7576040517f08c379a00000000000000000000000000000000000000000000000000000000081526004016115de90611eeb565b60405180910390fd5b8060000160009054906101000a900473ffffffffffffffffffffffffffffffffffffffff1673ffffffffffffffffffffffffffffffffffffffff163373ffffffffffffffffffffffffffffffffffffffff1614611679576040517f08c379a000000000000000000000000000000000000000000000000000000000815260040161167090611f8b565b60405180910390fd5b60018160070160006101000a81548160ff0219169083151502179055506000600260008360020154815260200190815260200160002081905550600073ffffffffffffffffffffffffffffffffffffffff168160050160009054906101000a900473ffffffffffffffffffffffffffffffffffffffff1673ffffffffffffffffffffffffffffffffffffffff161461183a578060010160009054906101000a900473ffffffffffffffffffffffffffffffffffffffff1673ffffffffffffffffffffffffffffffffffffffff166323b872dd308360050160009054906101000a900473ffffffffffffffffffffffffffffffffffffffff1684600201546040518463ffffffff1660e01b815260040161179493929190611d8d565b600060405180830381600087803b1580156117ae57600080fd5b505af11580156117c2573d6000803e3d6000fd5b505050508060000160009054906101000a900473ffffffffffffffffffffffffffffffffffffffff1673ffffffffffffffffffffffffffffffffffffffff166108fc82600601549081150290604051600060405180830381858888f19350505050158015611834573d6000803e3d6000fd5b506118f6565b8060010160009054906101000a900473ffffffffffffffffffffffffffffffffffffffff1673ffffffffffffffffffffffffffffffffffffffff166323b872dd308360000160009054906101000a900473ffffffffffffffffffffffffffffffffffffffff1684600201546040518463ffffffff1660e01b81526004016118c393929190611d8d565b600060405180830381600087803b1580156118dd57600080fd5b505af11580156118f1573d6000803e3d6000fd5b505050505b7fd2aa34a4fdbbc6dff6a3e56f46e0f3ae2a31d7785ff3487aa5c95c642acea501828260050160009054906101000a900473ffffffffffffffffffffffffffffffffffffffff16836006015460405161195193929190612086565b60405180910390a15050565b60026020528060005260406000206000915090505481565b600081359050611984816126ad565b92915050565b600081519050611999816126ad565b92915050565b6000815190506119ae816126c4565b92915050565b6000813590506119c3816126db565b92915050565b6000813590506119d8816126f2565b92915050565b6000602082840312156119f057600080fd5b60006119fe8482850161198a565b91505092915050565b600060208284031215611a1957600080fd5b6000611a278482850161199f565b91505092915050565b60008060008060808587031215611a4657600080fd5b6000611a54878288016119b4565b9450506020611a65878288016119c9565b9350506040611a76878288016119c9565b9250506060611a87878288016119c9565b91505092959194509250565b600060208284031215611aa557600080fd5b6000611ab3848285016119c9565b91505092915050565b60008060408385031215611acf57600080fd5b6000611add858286016119c9565b9250506020611aee85828601611975565b9150509250929050565b611b01816121d1565b82525050565b611b10816121e3565b82525050565b611b1f8161222b565b82525050565b6000611b32602c83612110565b9150611b3d826122c7565b604082019050919050565b6000611b55603083612110565b9150611b6082612316565b604082019050919050565b6000611b78602283612110565b9150611b8382612365565b604082019050919050565b6000611b9b602483612110565b9150611ba6826123b4565b604082019050919050565b6000611bbe601583612110565b9150611bc982612403565b602082019050919050565b6000611be1602e83612110565b9150611bec8261242c565b604082019050919050565b6000611c04601183612110565b9150611c0f8261247b565b602082019050919050565b6000611c27601283612110565b9150611c32826124a4565b602082019050919050565b6000611c4a601683612110565b9150611c55826124cd565b602082019050919050565b6000611c6d601983612110565b9150611c78826124f6565b602082019050919050565b6000611c90603083612110565b9150611c9b8261251f565b604082019050919050565b6000611cb3601583612110565b9150611cbe8261256e565b602082019050919050565b6000611cd6602283612110565b9150611ce182612597565b604082019050919050565b6000611cf9601f83612110565b9150611d04826125e6565b602082019050919050565b6000611d1c603483612110565b9150611d278261260f565b604082019050919050565b6000611d3f602483612110565b9150611d4a8261265e565b604082019050919050565b611d5e81612221565b82525050565b6000604082019050611d796000830185611af8565b611d866020830184611af8565b9392505050565b6000606082019050611da26000830186611af8565b611daf6020830185611af8565b611dbc6040830184611d55565b949350505050565b600061010082019050611dda600083018b611af8565b611de7602083018a611b16565b611df46040830189611d55565b611e016060830188611d55565b611e0e6080830187611d55565b611e1b60a0830186611af8565b611e2860c0830185611d55565b611e3560e0830184611b07565b9998505050505050505050565b6000604082019050611e576000830185611af8565b611e646020830184611d55565b9392505050565b60006020820190508181036000830152611e8481611b25565b9050919050565b60006020820190508181036000830152611ea481611b48565b9050919050565b60006020820190508181036000830152611ec481611b6b565b9050919050565b60006020820190508181036000830152611ee481611b8e565b9050919050565b60006020820190508181036000830152611f0481611bb1565b9050919050565b60006020820190508181036000830152611f2481611bd4565b9050919050565b60006020820190508181036000830152611f4481611bf7565b9050919050565b60006020820190508181036000830152611f6481611c1a565b9050919050565b60006020820190508181036000830152611f8481611c3d565b9050919050565b60006020820190508181036000830152611fa481611c60565b9050919050565b60006020820190508181036000830152611fc481611c83565b9050919050565b60006020820190508181036000830152611fe481611ca6565b9050919050565b6000602082019050818103600083015261200481611cc9565b9050919050565b6000602082019050818103600083015261202481611cec565b9050919050565b6000602082019050818103600083015261204481611d0f565b9050919050565b6000602082019050818103600083015261206481611d32565b9050919050565b60006020820190506120806000830184611d55565b92915050565b600060608201905061209b6000830186611d55565b6120a86020830185611af8565b6120b56040830184611d55565b949350505050565b600060a0820190506120d26000830188611d55565b6120df6020830187611af8565b6120ec6040830186611d55565b6120f96060830185611d55565b6121066080830184611d55565b9695505050505050565b600082825260208201905092915050565b600061212c82612221565b915061213783612221565b9250827fffffffffffffffffffffffffffffffffffffffffffffffffffffffffffffffff0382111561216c5761216b612298565b5b828201905092915050565b600061218282612221565b915061218d83612221565b9250817fffffffffffffffffffffffffffffffffffffffffffffffffffffffffffffffff04831182151516156121c6576121c5612298565b5b828202905092915050565b60006121dc82612201565b9050919050565b60008115159050919050565b60006121fa826121d1565b9050919050565b600073ffffffffffffffffffffffffffffffffffffffff82169050919050565b6000819050919050565b60006122368261223d565b9050919050565b600061224882612201565b9050919050565b600061225a82612221565b91507fffffffffffffffffffffffffffffffffffffffffffffffffffffffffffffffff82141561228d5761228c612298565b5b600182019050919050565b7f4e487b7100000000000000000000000000000000000000000000000000000000600052601160045260246000fd5b7f506869c3aa6e20c491e1baa575206769c3a120c491c3a320c491c6b0e1bba36360008201527f206be1babf74207468c3ba630000000000000000000000000000000000000000602082015250565b7f426964206d7573742062652067726561746572207468616e207468652063757260008201527f72656e7420686967686573742062696400000000000000000000000000000000602082015250565b7f4475726174696f6e206d757374206265206174206c656173742031206d696e7560008201527f7465000000000000000000000000000000000000000000000000000000000000602082015250565b7f506869c3aa6e20c491e1baa575206769c3a1206368c6b061206be1babf74207460008201527f68c3ba6300000000000000000000000000000000000000000000000000000000602082015250565b7f41756374696f6e20616c726561647920656e6465640000000000000000000000600082015250565b7f4e465441756374696f6e206e6f7420617070726f76656420746f207472616e7360008201527f666572207468697320746f6b656e000000000000000000000000000000000000602082015250565b7f41756374696f6e2068617320656e646564000000000000000000000000000000600082015250565b7f43726561746f722063616e6e6f74206269640000000000000000000000000000600082015250565b7f41756374696f6e20646f6573206e6f7420657869737400000000000000000000600082015250565b7f4f6e6c792063726561746f722063616e2066696e616c697a6500000000000000600082015250565b7f4368e1bb89206e67c6b0e1bb9d692074e1baa16f206de1bb9b692063c3b3207460008201527f68e1bb83206be1babf74207468c3ba6300000000000000000000000000000000602082015250565b7f41756374696f6e206e6f742079657420656e6465640000000000000000000000600082015250565b7f5374617274207072696365206d7573742062652067726561746572207468616e60008201527f2030000000000000000000000000000000000000000000000000000000000000602082015250565b7f4f6e6c792063726561746f722063616e2063616e63656c2061756374696f6e00600082015250565b7f426964206d7573742062652067726561746572207468616e206f72206571756160008201527f6c20746f20746865207374617274207072696365000000000000000000000000602082015250565b7f42e1baa16e206b68c3b46e67207068e1baa369206368e1bba72073e1bb9f206860008201527fe1bbaf7500000000000000000000000000000000000000000000000000000000602082015250565b6126b6816121d1565b81146126c157600080fd5b50565b6126cd816121e3565b81146126d857600080fd5b50565b6126e4816121ef565b81146126ef57600080fd5b50565b6126fb81612221565b811461270657600080fd5b5056fea26469706673582212209ec687b8995c5bc168327c5586e3393b5712ff8a1e9a83d7196c177096ccb50764736f6c63430008010033",
  "immutableReferences": {},
  "source": "// SPDX-License-Identifier: MIT\r\npragma solidity ^0.8.0;\r\n\r\nimport \"@openzeppelin/contracts/token/ERC721/IERC721.sol\";\r\n\r\ncontract NFTAuction {\r\n        struct Auction {\r\n        address creator;          // a ch ngi to u gi\r\n        IERC721 nftContract;     // a ch hp ng NFT\r\n        uint256 tokenId;         // ID ca token ang u gi\r\n        uint256 startPrice;      // Gi khi im\r\n        uint256 endTime;         // Thi gian kt thc\r\n        address highestBidder;   // Ngi tr gi cao nht\r\n        uint256 highestBid;      // Gi cao nht hin ti\r\n        bool ended;              // Trng thi  kt thc\r\n    }\r\n\r\n    // Lu tr thng tin cc phin u gi theo ID\r\n    mapping(uint256 => Auction) public auctions;\r\n    uint256 public auctionCounter;\r\n\r\n    // Theo di phin u gi ang hot ng ca mi token\r\n    mapping(uint256 => uint256) public activeAuctionByToken;\r\n\r\n    // Lu tr s tin cn hon tr cho ngi u gi\r\n    mapping(uint256 => mapping(address => uint256)) public pendingReturns;\r\n\r\n        event AuctionCreated(\r\nuint256 auctionId,\r\naddress creator,\r\nuint256 tokenId,\r\nuint256 startPrice,\r\nuint256 endTime\r\n);\r\n    event NewBid(uint256 auctionId, address bidder, uint256 amount);\r\n    event AuctionEnded(uint256 auctionId, address winner, uint256 amount);\r\n    event AuctionCancelled(uint256 auctionId);\r\n    event Refunded(address bidder, uint256 amount);\r\n\r\n    // Hm to phin u gi mi\r\n    function createAuction(\r\n        IERC721 _nftContract,\r\n        uint256 _tokenId,\r\n        uint256 _startPrice,\r\n        uint256 _durationInMinutes\r\n    ) public {\r\n        require(_startPrice > 0, \"Start price must be greater than 0\");\r\n        require(_durationInMinutes > 0, \"Duration must be at least 1 minute\");\r\n        \r\n        // Kim tra ngi gi l ch s hu ca NFT\r\n        require(_nftContract.ownerOf(_tokenId) == msg.sender, unicode\"Bn khng phi ch s hu\");\r\n        \r\n        // Kim tra xem contract auction  c ph duyt cha\r\n        require(\r\n            _nftContract.getApproved(_tokenId) == address(this) || \r\n            _nftContract.isApprovedForAll(msg.sender, address(this)),\r\n            \"NFTAuction not approved to transfer this token\"\r\n        );\r\n        \r\n        // Chuyn NFT t ngi to n hp ng auction\r\n        _nftContract.transferFrom(msg.sender, address(this), _tokenId);\r\n        \r\n        // To phin u gi mi\r\n        auctionCounter++;\r\n        auctions[auctionCounter] = Auction({\r\n            creator: msg.sender,\r\n            nftContract: _nftContract,\r\n            tokenId: _tokenId,\r\n            startPrice: _startPrice,\r\n            endTime: block.timestamp + (_durationInMinutes * 1 minutes),\r\n            highestBidder: address(0),\r\n            highestBid: 0,\r\n            ended: false\r\n        });\r\n        activeAuctionByToken[_tokenId] = auctionCounter;\r\n    \r\n        emit AuctionCreated(\r\n            auctionCounter,\r\n            msg.sender,\r\n            _tokenId,\r\n            _startPrice,\r\n            auctions[auctionCounter].endTime\r\n        );\r\n    }\r\n\r\n    // Hm t gi thu\r\n    function bid(uint256 _auctionId) public payable {\r\n        Auction storage auction = auctions[_auctionId];\r\n        require(auction.creator != address(0), \"Auction does not exist\");\r\n        require(!auction.ended, \"Auction has ended\");\r\n        require(block.timestamp <= auction.endTime, \"Auction has ended\");\r\n        require(msg.sender != auction.creator, \"Creator cannot bid\");\r\n        require(\r\n            msg.value >= auction.startPrice,\r\n            \"Bid must be greater than or equal to the start price\"\r\n        );\r\n        require(\r\n            msg.value > auction.highestBid,\r\n            \"Bid must be greater than the current highest bid\"\r\n        );\r\n\r\n        // Hon tin cho ngi u gi trc\r\n        if (auction.highestBidder != address(0)) {\r\n            payable(auction.highestBidder).transfer(auction.highestBid);\r\n            emit Refunded(auction.highestBidder, auction.highestBid);\r\n        }\r\n\r\n        auction.highestBidder = msg.sender;\r\n        auction.highestBid = msg.value;\r\n\r\n        emit NewBid(_auctionId, msg.sender, msg.value);\r\n    }\r\n\r\n    // Hm hy phin u gi\r\n    function cancelAuction(uint256 _auctionId) public {\r\n        Auction storage auction = auctions[_auctionId];\r\n        require(auction.creator != address(0), \"Auction does not exist\");\r\n        require(msg.sender == auction.creator, \"Only creator can cancel auction\");\r\n        require(!auction.ended, \"Auction already ended\");\r\n        \r\n        auction.ended = true;\r\n        auction.nftContract.transferFrom(\r\n            address(this),\r\n            auction.creator,\r\n            auction.tokenId\r\n        );\r\n        \r\n        if (auction.highestBidder != address(0)) {\r\n            payable(auction.highestBidder).transfer(auction.highestBid);\r\n        }\r\n        \r\n        // Clear active auction for the token\r\n        activeAuctionByToken[auction.tokenId] = 0;\r\n        emit AuctionCancelled(_auctionId);\r\n    }\r\n\r\n    // Hm kt thc v thanh ton phin u gi\r\n    function finalizeAuction(uint256 _auctionId) public {\r\n        Auction storage auction = auctions[_auctionId];\r\n        require(auction.creator != address(0), \"Auction does not exist\");\r\n        require(block.timestamp > auction.endTime, \"Auction not yet ended\");\r\n        require(!auction.ended, \"Auction already ended\");\r\n        require(msg.sender == auction.creator, \"Only creator can finalize\");\r\n\r\n        auction.ended = true;\r\n        // Clear active auction for the token\r\n        activeAuctionByToken[auction.tokenId] = 0;\r\n\r\n        if (auction.highestBidder != address(0)) {\r\n            auction.nftContract.transferFrom(\r\n                address(this),\r\n                auction.highestBidder,\r\n                auction.tokenId\r\n            );\r\n            payable(auction.creator).transfer(auction.highestBid);\r\n        } else {\r\n            auction.nftContract.transferFrom(\r\n                address(this),\r\n                auction.creator,\r\n                auction.tokenId\r\n            );\r\n        }\r\n\r\n        emit AuctionEnded(_auctionId, auction.highestBidder, auction.highestBid);\r\n    }\r\n\r\n    // Hm kt thc u gi v x l kt qu\r\n    function endAuction(uint256 _auctionId) public {\r\n        Auction storage auction = auctions[_auctionId];\r\n        require(\r\n            block.timestamp >= auction.endTime,\r\n            unicode\"Phin u gi cha kt thc\"\r\n        );\r\n        require(!auction.ended, unicode\"Phin u gi  c kt thc\");\r\n        require(\r\n            msg.sender == auction.creator,\r\n            unicode\"Ch ngi to mi c th kt thc\"\r\n        );\r\n\r\n        auction.ended = true;\r\n        activeAuctionByToken[auction.tokenId] = 0;\r\n\r\n        if (auction.highestBidder != address(0)) {\r\n            // Chuyn tin cho ngi to\r\n            payable(auction.creator).transfer(auction.highestBid);\r\n            // Chuyn NFT cho ngi thng\r\n            auction.nftContract.transferFrom(\r\n                address(this),\r\n                auction.highestBidder,\r\n                auction.tokenId\r\n            );\r\n        } else {\r\n            // Nu khng c ai u gi, tr NFT li cho ngi to\r\n            auction.nftContract.transferFrom(\r\n                address(this),\r\n                auction.creator,\r\n                auction.tokenId\r\n            );\r\n        }\r\n\r\n        emit AuctionEnded(\r\n            _auctionId,\r\n            auction.highestBidder,\r\n            auction.highestBid\r\n        );\r\n    }\r\n}\r\n",
  "sourcePath": "D:\\Users\\trieunth\\Desktop\\Team_Work\\Blockchain\\blockchain-auction1\\blockchain-auction\\contracts\\NFTAuction.sol",
  "compiler": {
    "name": "solc",
    "version": "0.8.1+commit.df193b15.Emscripten.clang"
  },
  "schemaVersion": "3.4.16",
  "updatedAt": "2025-03-13T16:43:42.103Z",
  "networkType": "ethereum",
  "devdoc": {
    "kind": "dev",
    "methods": {},
    "version": 1
  },
  "userdoc": {
    "kind": "user",
    "methods": {},
    "version": 1
  }
}