{
  "contractName": "NFTMinting",
  "abi": [
    {
      "inputs": [],
      "stateMutability": "nonpayable",
      "type": "constructor"
    },
    {
      "anonymous": false,
      "inputs": [
        {
          "indexed": true,
          "internalType": "address",
          "name": "owner",
          "type": "address"
        },
        {
          "indexed": true,
          "internalType": "address",
          "name": "approved",
          "type": "address"
        },
        {
          "indexed": true,
          "internalType": "uint256",
          "name": "tokenId",
          "type": "uint256"
        }
      ],
      "name": "Approval",
      "type": "event"
    },
    {
      "anonymous": false,
      "inputs": [
        {
          "indexed": true,
          "internalType": "address",
          "name": "owner",
          "type": "address"
        },
        {
          "indexed": true,
          "internalType": "address",
          "name": "operator",
          "type": "address"
        },
        {
          "indexed": false,
          "internalType": "bool",
          "name": "approved",
          "type": "bool"
        }
      ],
      "name": "ApprovalForAll",
      "type": "event"
    },
    {
      "anonymous": false,
      "inputs": [
        {
          "indexed": true,
          "internalType": "uint256",
          "name": "tokenId",
          "type": "uint256"
        },
        {
          "indexed": false,
          "internalType": "string",
          "name": "tokenURI",
          "type": "string"
        },
        {
          "indexed": false,
          "internalType": "uint256",
          "name": "price",
          "type": "uint256"
        }
      ],
      "name": "NFTCreated",
      "type": "event"
    },
    {
      "anonymous": false,
      "inputs": [
        {
          "indexed": true,
          "internalType": "address",
          "name": "minter",
          "type": "address"
        },
        {
          "indexed": true,
          "internalType": "uint256",
          "name": "tokenId",
          "type": "uint256"
        }
      ],
      "name": "NFTMinted",
      "type": "event"
    },
    {
      "anonymous": false,
      "inputs": [
        {
          "indexed": true,
          "internalType": "address",
          "name": "previousOwner",
          "type": "address"
        },
        {
          "indexed": true,
          "internalType": "address",
          "name": "newOwner",
          "type": "address"
        }
      ],
      "name": "OwnershipTransferred",
      "type": "event"
    },
    {
      "anonymous": false,
      "inputs": [
        {
          "indexed": true,
          "internalType": "address",
          "name": "from",
          "type": "address"
        },
        {
          "indexed": true,
          "internalType": "address",
          "name": "to",
          "type": "address"
        },
        {
          "indexed": true,
          "internalType": "uint256",
          "name": "tokenId",
          "type": "uint256"
        }
      ],
      "name": "Transfer",
      "type": "event"
    },
    {
      "inputs": [
        {
          "internalType": "address",
          "name": "to",
          "type": "address"
        },
        {
          "internalType": "uint256",
          "name": "tokenId",
          "type": "uint256"
        }
      ],
      "name": "approve",
      "outputs": [],
      "stateMutability": "nonpayable",
      "type": "function"
    },
    {
      "inputs": [
        {
          "internalType": "uint256",
          "name": "",
          "type": "uint256"
        }
      ],
      "name": "availableToMint",
      "outputs": [
        {
          "internalType": "bool",
          "name": "",
          "type": "bool"
        }
      ],
      "stateMutability": "view",
      "type": "function",
      "constant": true
    },
    {
      "inputs": [
        {
          "internalType": "address",
          "name": "owner",
          "type": "address"
        }
      ],
      "name": "balanceOf",
      "outputs": [
        {
          "internalType": "uint256",
          "name": "",
          "type": "uint256"
        }
      ],
      "stateMutability": "view",
      "type": "function",
      "constant": true
    },
    {
      "inputs": [
        {
          "internalType": "uint256",
          "name": "tokenId",
          "type": "uint256"
        }
      ],
      "name": "getApproved",
      "outputs": [
        {
          "internalType": "address",
          "name": "",
          "type": "address"
        }
      ],
      "stateMutability": "view",
      "type": "function",
      "constant": true
    },
    {
      "inputs": [
        {
          "internalType": "address",
          "name": "owner",
          "type": "address"
        },
        {
          "internalType": "address",
          "name": "operator",
          "type": "address"
        }
      ],
      "name": "isApprovedForAll",
      "outputs": [
        {
          "internalType": "bool",
          "name": "",
          "type": "bool"
        }
      ],
      "stateMutability": "view",
      "type": "function",
      "constant": true
    },
    {
      "inputs": [
        {
          "internalType": "uint256",
          "name": "",
          "type": "uint256"
        }
      ],
      "name": "mintPrices",
      "outputs": [
        {
          "internalType": "uint256",
          "name": "",
          "type": "uint256"
        }
      ],
      "stateMutability": "view",
      "type": "function",
      "constant": true
    },
    {
      "inputs": [],
      "name": "name",
      "outputs": [
        {
          "internalType": "string",
          "name": "",
          "type": "string"
        }
      ],
      "stateMutability": "view",
      "type": "function",
      "constant": true
    },
    {
      "inputs": [],
      "name": "owner",
      "outputs": [
        {
          "internalType": "address",
          "name": "",
          "type": "address"
        }
      ],
      "stateMutability": "view",
      "type": "function",
      "constant": true
    },
    {
      "inputs": [
        {
          "internalType": "uint256",
          "name": "tokenId",
          "type": "uint256"
        }
      ],
      "name": "ownerOf",
      "outputs": [
        {
          "internalType": "address",
          "name": "",
          "type": "address"
        }
      ],
      "stateMutability": "view",
      "type": "function",
      "constant": true
    },
    {
      "inputs": [],
      "name": "renounceOwnership",
      "outputs": [],
      "stateMutability": "nonpayable",
      "type": "function"
    },
    {
      "inputs": [
        {
          "internalType": "address",
          "name": "from",
          "type": "address"
        },
        {
          "internalType": "address",
          "name": "to",
          "type": "address"
        },
        {
          "internalType": "uint256",
          "name": "tokenId",
          "type": "uint256"
        }
      ],
      "name": "safeTransferFrom",
      "outputs": [],
      "stateMutability": "nonpayable",
      "type": "function"
    },
    {
      "inputs": [
        {
          "internalType": "address",
          "name": "from",
          "type": "address"
        },
        {
          "internalType": "address",
          "name": "to",
          "type": "address"
        },
        {
          "internalType": "uint256",
          "name": "tokenId",
          "type": "uint256"
        },
        {
          "internalType": "bytes",
          "name": "data",
          "type": "bytes"
        }
      ],
      "name": "safeTransferFrom",
      "outputs": [],
      "stateMutability": "nonpayable",
      "type": "function"
    },
    {
      "inputs": [
        {
          "internalType": "address",
          "name": "operator",
          "type": "address"
        },
        {
          "internalType": "bool",
          "name": "approved",
          "type": "bool"
        }
      ],
      "name": "setApprovalForAll",
      "outputs": [],
      "stateMutability": "nonpayable",
      "type": "function"
    },
    {
      "inputs": [
        {
          "internalType": "bytes4",
          "name": "interfaceId",
          "type": "bytes4"
        }
      ],
      "name": "supportsInterface",
      "outputs": [
        {
          "internalType": "bool",
          "name": "",
          "type": "bool"
        }
      ],
      "stateMutability": "view",
      "type": "function",
      "constant": true
    },
    {
      "inputs": [],
      "name": "symbol",
      "outputs": [
        {
          "internalType": "string",
          "name": "",
          "type": "string"
        }
      ],
      "stateMutability": "view",
      "type": "function",
      "constant": true
    },
    {
      "inputs": [],
      "name": "tokenCounter",
      "outputs": [
        {
          "internalType": "uint256",
          "name": "",
          "type": "uint256"
        }
      ],
      "stateMutability": "view",
      "type": "function",
      "constant": true
    },
    {
      "inputs": [
        {
          "internalType": "address",
          "name": "from",
          "type": "address"
        },
        {
          "internalType": "address",
          "name": "to",
          "type": "address"
        },
        {
          "internalType": "uint256",
          "name": "tokenId",
          "type": "uint256"
        }
      ],
      "name": "transferFrom",
      "outputs": [],
      "stateMutability": "nonpayable",
      "type": "function"
    },
    {
      "inputs": [
        {
          "internalType": "address",
          "name": "newOwner",
          "type": "address"
        }
      ],
      "name": "transferOwnership",
      "outputs": [],
      "stateMutability": "nonpayable",
      "type": "function"
    },
    {
      "inputs": [
        {
          "internalType": "string",
          "name": "_tokenURI",
          "type": "string"
        },
        {
          "internalType": "uint256",
          "name": "price",
          "type": "uint256"
        }
      ],
      "name": "createNFT",
      "outputs": [
        {
          "internalType": "uint256",
          "name": "",
          "type": "uint256"
        }
      ],
      "stateMutability": "nonpayable",
      "type": "function"
    },
    {
      "inputs": [
        {
          "internalType": "uint256",
          "name": "tokenId",
          "type": "uint256"
        }
      ],
      "name": "mintNFT",
      "outputs": [],
      "stateMutability": "payable",
      "type": "function",
      "payable": true
    },
    {
      "inputs": [
        {
          "internalType": "uint256",
          "name": "tokenId",
          "type": "uint256"
        }
      ],
      "name": "tokenURI",
      "outputs": [
        {
          "internalType": "string",
          "name": "",
          "type": "string"
        }
      ],
      "stateMutability": "view",
      "type": "function",
      "constant": true
    },
    {
      "inputs": [
        {
          "internalType": "uint256",
          "name": "tokenId",
          "type": "uint256"
        }
      ],
      "name": "getMintPrice",
      "outputs": [
        {
          "internalType": "uint256",
          "name": "",
          "type": "uint256"
        }
      ],
      "stateMutability": "view",
      "type": "function",
      "constant": true
    },
    {
      "inputs": [],
      "name": "getAvailableNFTs",
      "outputs": [
        {
          "internalType": "uint256[]",
          "name": "",
          "type": "uint256[]"
        }
      ],
      "stateMutability": "view",
      "type": "function",
      "constant": true
    },
    {
      "inputs": [],
      "name": "withdraw",
      "outputs": [],
      "stateMutability": "nonpayable",
      "type": "function"
    }
  ],
  "bytecode": "0x60806040523480156200001157600080fd5b506040518060400160405280600581526020017f4d794e46540000000000000000000000000000000000000000000000000000008152506040518060400160405280600481526020017f4d4e465400000000000000000000000000000000000000000000000000000000815250816000908051906020019062000096929190620001ae565b508060019080519060200190620000af929190620001ae565b505050620000d2620000c6620000e060201b60201c565b620000e860201b60201c565b6000600781905550620002c3565b600033905090565b6000600660009054906101000a900473ffffffffffffffffffffffffffffffffffffffff16905081600660006101000a81548173ffffffffffffffffffffffffffffffffffffffff021916908373ffffffffffffffffffffffffffffffffffffffff1602179055508173ffffffffffffffffffffffffffffffffffffffff168173ffffffffffffffffffffffffffffffffffffffff167f8be0079c531659141344cd1fd0a4f28419497f9722a3daafe3b4186f6b6457e060405160405180910390a35050565b828054620001bc906200025e565b90600052602060002090601f016020900481019282620001e057600085556200022c565b82601f10620001fb57805160ff19168380011785556200022c565b828001600101855582156200022c579182015b828111156200022b5782518255916020019190600101906200020e565b5b5090506200023b91906200023f565b5090565b5b808211156200025a57600081600090555060010162000240565b5090565b600060028204905060018216806200027757607f821691505b602082108114156200028e576200028d62000294565b5b50919050565b7f4e487b7100000000000000000000000000000000000000000000000000000000600052602260045260246000fd5b6134e380620002d36000396000f3fe60806040526004361061014b5760003560e01c80636352211e116100b6578063a22cb4651161006f578063a22cb465146104a9578063b88d4fde146104d2578063c87b56dd146104fb578063d082e38114610538578063e985e9c514610563578063f2fde38b146105a05761014b565b80636352211e146103a657806370a08231146103e3578063715018a6146104205780638da5cb5b14610437578063926427441461046257806395d89b411461047e5761014b565b806332702c951161010857806332702c95146102845780633ccfd60b146102af57806342842e0e146102c6578063559e775b146102ef5780635bd8c4db1461032c5780636187b33e146103695761014b565b806301ffc9a71461015057806306fdde031461018d578063081812fc146101b8578063095ea7b3146101f557806323b872dd1461021e5780632682915514610247575b600080fd5b34801561015c57600080fd5b5061017760048036038101906101729190612503565b6105c9565b60405161018491906129f5565b60405180910390f35b34801561019957600080fd5b506101a26106ab565b6040516101af9190612a10565b60405180910390f35b3480156101c457600080fd5b506101df60048036038101906101da91906125a9565b61073d565b6040516101ec919061296c565b60405180910390f35b34801561020157600080fd5b5061021c600480360381019061021791906124c7565b610783565b005b34801561022a57600080fd5b50610245600480360381019061024091906123c1565b61089b565b005b34801561025357600080fd5b5061026e60048036038101906102699190612555565b6108fb565b60405161027b9190612ca2565b60405180910390f35b34801561029057600080fd5b506102996109d4565b6040516102a691906129d3565b60405180910390f35b3480156102bb57600080fd5b506102c4610b46565b005b3480156102d257600080fd5b506102ed60048036038101906102e891906123c1565b610be7565b005b3480156102fb57600080fd5b50610316600480360381019061031191906125a9565b610c07565b6040516103239190612ca2565b60405180910390f35b34801561033857600080fd5b50610353600480360381019061034e91906125a9565b610c84565b60405161036091906129f5565b60405180910390f35b34801561037557600080fd5b50610390600480360381019061038b91906125a9565b610ca4565b60405161039d9190612ca2565b60405180910390f35b3480156103b257600080fd5b506103cd60048036038101906103c891906125a9565b610cbc565b6040516103da919061296c565b60405180910390f35b3480156103ef57600080fd5b5061040a6004803603810190610405919061235c565b610d43565b6040516104179190612ca2565b60405180910390f35b34801561042c57600080fd5b50610435610dfb565b005b34801561044357600080fd5b5061044c610e0f565b604051610459919061296c565b60405180910390f35b61047c600480360381019061047791906125a9565b610e39565b005b34801561048a57600080fd5b50610493611036565b6040516104a09190612a10565b60405180910390f35b3480156104b557600080fd5b506104d060048036038101906104cb919061248b565b6110c8565b005b3480156104de57600080fd5b506104f960048036038101906104f49190612410565b6110de565b005b34801561050757600080fd5b50610522600480360381019061051d91906125a9565b611140565b60405161052f9190612a10565b60405180910390f35b34801561054457600080fd5b5061054d611255565b60405161055a9190612ca2565b60405180910390f35b34801561056f57600080fd5b5061058a60048036038101906105859190612385565b61125b565b60405161059791906129f5565b60405180910390f35b3480156105ac57600080fd5b506105c760048036038101906105c2919061235c565b6112ef565b005b60007f80ac58cd000000000000000000000000000000000000000000000000000000007bffffffffffffffffffffffffffffffffffffffffffffffffffffffff1916827bffffffffffffffffffffffffffffffffffffffffffffffffffffffff1916148061069457507f5b5e139f000000000000000000000000000000000000000000000000000000007bffffffffffffffffffffffffffffffffffffffffffffffffffffffff1916827bffffffffffffffffffffffffffffffffffffffffffffffffffffffff1916145b806106a457506106a382611373565b5b9050919050565b6060600080546106ba90612ef5565b80601f01602080910402602001604051908101604052809291908181526020018280546106e690612ef5565b80156107335780601f1061070857610100808354040283529160200191610733565b820191906000526020600020905b81548152906001019060200180831161071657829003601f168201915b5050505050905090565b6000610748826113dd565b6004600083815260200190815260200160002060009054906101000a900473ffffffffffffffffffffffffffffffffffffffff169050919050565b600061078e82610cbc565b90508073ffffffffffffffffffffffffffffffffffffffff168373ffffffffffffffffffffffffffffffffffffffff1614156107ff576040517f08c379a00000000000000000000000000000000000000000000000000000000081526004016107f690612c62565b60405180910390fd5b8073ffffffffffffffffffffffffffffffffffffffff1661081e611428565b73ffffffffffffffffffffffffffffffffffffffff16148061084d575061084c81610847611428565b61125b565b5b61088c576040517f08c379a000000000000000000000000000000000000000000000000000000000815260040161088390612c82565b60405180910390fd5b6108968383611430565b505050565b6108ac6108a6611428565b826114e9565b6108eb576040517f08c379a00000000000000000000000000000000000000000000000000000000081526004016108e290612a62565b60405180910390fd5b6108f683838361157e565b505050565b6000610905611878565b6000600754905083600860008381526020019081526020016000209080519060200190610933929190612180565b508260096000838152602001908152602001600020819055506001600a600083815260200190815260200160002060006101000a81548160ff0219169083151502179055506007600081548092919061098b90612f58565b9190505550807fcfced03c29b25b69154f93cdeeaf3c30acf71c9196106123a35ce944ad4e889d85856040516109c2929190612a32565b60405180910390a28091505092915050565b60606000805b600754811015610a2c57600a600082815260200190815260200160002060009054906101000a900460ff1615610a19578180610a1590612f58565b9250505b8080610a2490612f58565b9150506109da565b5060008167ffffffffffffffff811115610a6f577f4e487b7100000000000000000000000000000000000000000000000000000000600052604160045260246000fd5b604051908082528060200260200182016040528015610a9d5781602001602082028036833780820191505090505b5090506000805b600754811015610b3c57600a600082815260200190815260200160002060009054906101000a900460ff1615610b295780838381518110610b0e577f4e487b7100000000000000000000000000000000000000000000000000000000600052603260045260246000fd5b6020026020010181815250508180610b2590612f58565b9250505b8080610b3490612f58565b915050610aa4565b5081935050505090565b610b4e611878565b600047905060008111610b96576040517f08c379a0000000000000000000000000000000000000000000000000000000008152600401610b8d90612c22565b60405180910390fd5b610b9e610e0f565b73ffffffffffffffffffffffffffffffffffffffff166108fc829081150290604051600060405180830381858888f19350505050158015610be3573d6000803e3d6000fd5b5050565b610c02838383604051806020016040528060008152506110de565b505050565b6000600a600083815260200190815260200160002060009054906101000a900460ff16610c69576040517f08c379a0000000000000000000000000000000000000000000000000000000008152600401610c6090612b82565b60405180910390fd5b60096000838152602001908152602001600020549050919050565b600a6020528060005260406000206000915054906101000a900460ff1681565b60096020528060005260406000206000915090505481565b600080610cc8836118f6565b9050600073ffffffffffffffffffffffffffffffffffffffff168173ffffffffffffffffffffffffffffffffffffffff161415610d3a576040517f08c379a0000000000000000000000000000000000000000000000000000000008152600401610d3190612c42565b60405180910390fd5b80915050919050565b60008073ffffffffffffffffffffffffffffffffffffffff168273ffffffffffffffffffffffffffffffffffffffff161415610db4576040517f08c379a0000000000000000000000000000000000000000000000000000000008152600401610dab90612ba2565b60405180910390fd5b600360008373ffffffffffffffffffffffffffffffffffffffff1673ffffffffffffffffffffffffffffffffffffffff168152602001908152602001600020549050919050565b610e03611878565b610e0d6000611933565b565b6000600660009054906101000a900473ffffffffffffffffffffffffffffffffffffffff16905090565b600a600082815260200190815260200160002060009054906101000a900460ff16610e99576040517f08c379a0000000000000000000000000000000000000000000000000000000008152600401610e9090612b82565b60405180910390fd5b6009600082815260200190815260200160002054341015610eef576040517f08c379a0000000000000000000000000000000000000000000000000000000008152600401610ee690612be2565b60405180910390fd5b610ef8816119f9565b15610f38576040517f08c379a0000000000000000000000000000000000000000000000000000000008152600401610f2f90612b42565b60405180910390fd5b610f423382611a3a565b6000600a600083815260200190815260200160002060006101000a81548160ff0219169083151502179055506009600082815260200190815260200160002054341115610fef573373ffffffffffffffffffffffffffffffffffffffff166108fc600960008481526020019081526020016000205434610fc29190612e0b565b9081150290604051600060405180830381858888f19350505050158015610fed573d6000803e3d6000fd5b505b803373ffffffffffffffffffffffffffffffffffffffff167f4cc0a9c4a99ddc700de1af2c9f916a7cbfdb71f14801ccff94061ad1ef8a804060405160405180910390a350565b60606001805461104590612ef5565b80601f016020809104026020016040519081016040528092919081815260200182805461107190612ef5565b80156110be5780601f10611093576101008083540402835291602001916110be565b820191906000526020600020905b8154815290600101906020018083116110a157829003601f168201915b5050505050905090565b6110da6110d3611428565b8383611a58565b5050565b6110ef6110e9611428565b836114e9565b61112e576040517f08c379a000000000000000000000000000000000000000000000000000000000815260040161112590612a62565b60405180910390fd5b61113a84848484611bc5565b50505050565b606061114b826119f9565b806111735750600a600083815260200190815260200160002060009054906101000a900460ff165b6111b2576040517f08c379a00000000000000000000000000000000000000000000000000000000081526004016111a990612a82565b60405180910390fd5b6008600083815260200190815260200160002080546111d090612ef5565b80601f01602080910402602001604051908101604052809291908181526020018280546111fc90612ef5565b80156112495780601f1061121e57610100808354040283529160200191611249565b820191906000526020600020905b81548152906001019060200180831161122c57829003601f168201915b50505050509050919050565b60075481565b6000600560008473ffffffffffffffffffffffffffffffffffffffff1673ffffffffffffffffffffffffffffffffffffffff16815260200190815260200160002060008373ffffffffffffffffffffffffffffffffffffffff1673ffffffffffffffffffffffffffffffffffffffff16815260200190815260200160002060009054906101000a900460ff16905092915050565b6112f7611878565b600073ffffffffffffffffffffffffffffffffffffffff168173ffffffffffffffffffffffffffffffffffffffff161415611367576040517f08c379a000000000000000000000000000000000000000000000000000000000815260040161135e90612ac2565b60405180910390fd5b61137081611933565b50565b60007f01ffc9a7000000000000000000000000000000000000000000000000000000007bffffffffffffffffffffffffffffffffffffffffffffffffffffffff1916827bffffffffffffffffffffffffffffffffffffffffffffffffffffffff1916149050919050565b6113e6816119f9565b611425576040517f08c379a000000000000000000000000000000000000000000000000000000000815260040161141c90612c42565b60405180910390fd5b50565b600033905090565b816004600083815260200190815260200160002060006101000a81548173ffffffffffffffffffffffffffffffffffffffff021916908373ffffffffffffffffffffffffffffffffffffffff160217905550808273ffffffffffffffffffffffffffffffffffffffff166114a383610cbc565b73ffffffffffffffffffffffffffffffffffffffff167f8c5be1e5ebec7d5bd14f71427d1e84f3dd0314c0f7b2291e5b200ac8c7c3b92560405160405180910390a45050565b6000806114f583610cbc565b90508073ffffffffffffffffffffffffffffffffffffffff168473ffffffffffffffffffffffffffffffffffffffff1614806115375750611536818561125b565b5b8061157557508373ffffffffffffffffffffffffffffffffffffffff1661155d8461073d565b73ffffffffffffffffffffffffffffffffffffffff16145b91505092915050565b8273ffffffffffffffffffffffffffffffffffffffff1661159e82610cbc565b73ffffffffffffffffffffffffffffffffffffffff16146115f4576040517f08c379a00000000000000000000000000000000000000000000000000000000081526004016115eb90612ae2565b60405180910390fd5b600073ffffffffffffffffffffffffffffffffffffffff168273ffffffffffffffffffffffffffffffffffffffff161415611664576040517f08c379a000000000000000000000000000000000000000000000000000000000815260040161165b90612b22565b60405180910390fd5b6116718383836001611c21565b8273ffffffffffffffffffffffffffffffffffffffff1661169182610cbc565b73ffffffffffffffffffffffffffffffffffffffff16146116e7576040517f08c379a00000000000000000000000000000000000000000000000000000000081526004016116de90612ae2565b60405180910390fd5b6004600082815260200190815260200160002060006101000a81549073ffffffffffffffffffffffffffffffffffffffff02191690556001600360008573ffffffffffffffffffffffffffffffffffffffff1673ffffffffffffffffffffffffffffffffffffffff168152602001908152602001600020600082825403925050819055506001600360008473ffffffffffffffffffffffffffffffffffffffff1673ffffffffffffffffffffffffffffffffffffffff16815260200190815260200160002060008282540192505081905550816002600083815260200190815260200160002060006101000a81548173ffffffffffffffffffffffffffffffffffffffff021916908373ffffffffffffffffffffffffffffffffffffffff160217905550808273ffffffffffffffffffffffffffffffffffffffff168473ffffffffffffffffffffffffffffffffffffffff167fddf252ad1be2c89b69c2b068fc378daa952ba7f163c4a11628f55a4df523b3ef60405160405180910390a46118738383836001611d47565b505050565b611880611428565b73ffffffffffffffffffffffffffffffffffffffff1661189e610e0f565b73ffffffffffffffffffffffffffffffffffffffff16146118f4576040517f08c379a00000000000000000000000000000000000000000000000000000000081526004016118eb90612c02565b60405180910390fd5b565b60006002600083815260200190815260200160002060009054906101000a900473ffffffffffffffffffffffffffffffffffffffff169050919050565b6000600660009054906101000a900473ffffffffffffffffffffffffffffffffffffffff16905081600660006101000a81548173ffffffffffffffffffffffffffffffffffffffff021916908373ffffffffffffffffffffffffffffffffffffffff1602179055508173ffffffffffffffffffffffffffffffffffffffff168173ffffffffffffffffffffffffffffffffffffffff167f8be0079c531659141344cd1fd0a4f28419497f9722a3daafe3b4186f6b6457e060405160405180910390a35050565b60008073ffffffffffffffffffffffffffffffffffffffff16611a1b836118f6565b73ffffffffffffffffffffffffffffffffffffffff1614159050919050565b611a54828260405180602001604052806000815250611d4d565b5050565b8173ffffffffffffffffffffffffffffffffffffffff168373ffffffffffffffffffffffffffffffffffffffff161415611ac7576040517f08c379a0000000000000000000000000000000000000000000000000000000008152600401611abe90612b62565b60405180910390fd5b80600560008573ffffffffffffffffffffffffffffffffffffffff1673ffffffffffffffffffffffffffffffffffffffff16815260200190815260200160002060008473ffffffffffffffffffffffffffffffffffffffff1673ffffffffffffffffffffffffffffffffffffffff16815260200190815260200160002060006101000a81548160ff0219169083151502179055508173ffffffffffffffffffffffffffffffffffffffff168373ffffffffffffffffffffffffffffffffffffffff167f17307eab39ab6107e8899845ad3d59bd9653f200f220920489ca2b5937696c3183604051611bb891906129f5565b60405180910390a3505050565b611bd084848461157e565b611bdc84848484611da8565b611c1b576040517f08c379a0000000000000000000000000000000000000000000000000000000008152600401611c1290612aa2565b60405180910390fd5b50505050565b6001811115611d4157600073ffffffffffffffffffffffffffffffffffffffff168473ffffffffffffffffffffffffffffffffffffffff1614611cb55780600360008673ffffffffffffffffffffffffffffffffffffffff1673ffffffffffffffffffffffffffffffffffffffff1681526020019081526020016000206000828254611cad9190612e0b565b925050819055505b600073ffffffffffffffffffffffffffffffffffffffff168373ffffffffffffffffffffffffffffffffffffffff1614611d405780600360008573ffffffffffffffffffffffffffffffffffffffff1673ffffffffffffffffffffffffffffffffffffffff1681526020019081526020016000206000828254611d389190612db5565b925050819055505b5b50505050565b50505050565b611d578383611f3f565b611d646000848484611da8565b611da3576040517f08c379a0000000000000000000000000000000000000000000000000000000008152600401611d9a90612aa2565b60405180910390fd5b505050565b6000611dc98473ffffffffffffffffffffffffffffffffffffffff1661215d565b15611f32578373ffffffffffffffffffffffffffffffffffffffff1663150b7a02611df2611428565b8786866040518563ffffffff1660e01b8152600401611e149493929190612987565b602060405180830381600087803b158015611e2e57600080fd5b505af1925050508015611e5f57506040513d601f19601f82011682018060405250810190611e5c919061252c565b60015b611ee2573d8060008114611e8f576040519150601f19603f3d011682016040523d82523d6000602084013e611e94565b606091505b50600081511415611eda576040517f08c379a0000000000000000000000000000000000000000000000000000000008152600401611ed190612aa2565b60405180910390fd5b805181602001fd5b63150b7a0260e01b7bffffffffffffffffffffffffffffffffffffffffffffffffffffffff1916817bffffffffffffffffffffffffffffffffffffffffffffffffffffffff191614915050611f37565b600190505b949350505050565b600073ffffffffffffffffffffffffffffffffffffffff168273ffffffffffffffffffffffffffffffffffffffff161415611faf576040517f08c379a0000000000000000000000000000000000000000000000000000000008152600401611fa690612bc2565b60405180910390fd5b611fb8816119f9565b15611ff8576040517f08c379a0000000000000000000000000000000000000000000000000000000008152600401611fef90612b02565b60405180910390fd5b612006600083836001611c21565b61200f816119f9565b1561204f576040517f08c379a000000000000000000000000000000000000000000000000000000000815260040161204690612b02565b60405180910390fd5b6001600360008473ffffffffffffffffffffffffffffffffffffffff1673ffffffffffffffffffffffffffffffffffffffff16815260200190815260200160002060008282540192505081905550816002600083815260200190815260200160002060006101000a81548173ffffffffffffffffffffffffffffffffffffffff021916908373ffffffffffffffffffffffffffffffffffffffff160217905550808273ffffffffffffffffffffffffffffffffffffffff16600073ffffffffffffffffffffffffffffffffffffffff167fddf252ad1be2c89b69c2b068fc378daa952ba7f163c4a11628f55a4df523b3ef60405160405180910390a4612159600083836001611d47565b5050565b6000808273ffffffffffffffffffffffffffffffffffffffff163b119050919050565b82805461218c90612ef5565b90600052602060002090601f0160209004810192826121ae57600085556121f5565b82601f106121c757805160ff19168380011785556121f5565b828001600101855582156121f5579182015b828111156121f45782518255916020019190600101906121d9565b5b5090506122029190612206565b5090565b5b8082111561221f576000816000905550600101612207565b5090565b600061223661223184612ce2565b612cbd565b90508281526020810184848401111561224e57600080fd5b612259848285612eb3565b509392505050565b600061227461226f84612d13565b612cbd565b90508281526020810184848401111561228c57600080fd5b612297848285612eb3565b509392505050565b6000813590506122ae81613451565b92915050565b6000813590506122c381613468565b92915050565b6000813590506122d88161347f565b92915050565b6000815190506122ed8161347f565b92915050565b600082601f83011261230457600080fd5b8135612314848260208601612223565b91505092915050565b600082601f83011261232e57600080fd5b813561233e848260208601612261565b91505092915050565b60008135905061235681613496565b92915050565b60006020828403121561236e57600080fd5b600061237c8482850161229f565b91505092915050565b6000806040838503121561239857600080fd5b60006123a68582860161229f565b92505060206123b78582860161229f565b9150509250929050565b6000806000606084860312156123d657600080fd5b60006123e48682870161229f565b93505060206123f58682870161229f565b925050604061240686828701612347565b9150509250925092565b6000806000806080858703121561242657600080fd5b60006124348782880161229f565b94505060206124458782880161229f565b935050604061245687828801612347565b925050606085013567ffffffffffffffff81111561247357600080fd5b61247f878288016122f3565b91505092959194509250565b6000806040838503121561249e57600080fd5b60006124ac8582860161229f565b92505060206124bd858286016122b4565b9150509250929050565b600080604083850312156124da57600080fd5b60006124e88582860161229f565b92505060206124f985828601612347565b9150509250929050565b60006020828403121561251557600080fd5b6000612523848285016122c9565b91505092915050565b60006020828403121561253e57600080fd5b600061254c848285016122de565b91505092915050565b6000806040838503121561256857600080fd5b600083013567ffffffffffffffff81111561258257600080fd5b61258e8582860161231d565b925050602061259f85828601612347565b9150509250929050565b6000602082840312156125bb57600080fd5b60006125c984828501612347565b91505092915050565b60006125de838361294e565b60208301905092915050565b6125f381612e3f565b82525050565b600061260482612d54565b61260e8185612d82565b935061261983612d44565b8060005b8381101561264a57815161263188826125d2565b975061263c83612d75565b92505060018101905061261d565b5085935050505092915050565b61266081612e51565b82525050565b600061267182612d5f565b61267b8185612d93565b935061268b818560208601612ec2565b6126948161302e565b840191505092915050565b60006126aa82612d6a565b6126b48185612da4565b93506126c4818560208601612ec2565b6126cd8161302e565b840191505092915050565b60006126e5602d83612da4565b91506126f08261303f565b604082019050919050565b6000612708601f83612da4565b91506127138261308e565b602082019050919050565b600061272b603283612da4565b9150612736826130b7565b604082019050919050565b600061274e602683612da4565b915061275982613106565b604082019050919050565b6000612771602583612da4565b915061277c82613155565b604082019050919050565b6000612794601c83612da4565b915061279f826131a4565b602082019050919050565b60006127b7602483612da4565b91506127c2826131cd565b604082019050919050565b60006127da601283612da4565b91506127e58261321c565b602082019050919050565b60006127fd601983612da4565b915061280882613245565b602082019050919050565b6000612820601c83612da4565b915061282b8261326e565b602082019050919050565b6000612843602983612da4565b915061284e82613297565b604082019050919050565b6000612866602083612da4565b9150612871826132e6565b602082019050919050565b6000612889601483612da4565b91506128948261330f565b602082019050919050565b60006128ac602083612da4565b91506128b782613338565b602082019050919050565b60006128cf601683612da4565b91506128da82613361565b602082019050919050565b60006128f2601883612da4565b91506128fd8261338a565b602082019050919050565b6000612915602183612da4565b9150612920826133b3565b604082019050919050565b6000612938603d83612da4565b915061294382613402565b604082019050919050565b61295781612ea9565b82525050565b61296681612ea9565b82525050565b600060208201905061298160008301846125ea565b92915050565b600060808201905061299c60008301876125ea565b6129a960208301866125ea565b6129b6604083018561295d565b81810360608301526129c88184612666565b905095945050505050565b600060208201905081810360008301526129ed81846125f9565b905092915050565b6000602082019050612a0a6000830184612657565b92915050565b60006020820190508181036000830152612a2a818461269f565b905092915050565b60006040820190508181036000830152612a4c818561269f565b9050612a5b602083018461295d565b9392505050565b60006020820190508181036000830152612a7b816126d8565b9050919050565b60006020820190508181036000830152612a9b816126fb565b9050919050565b60006020820190508181036000830152612abb8161271e565b9050919050565b60006020820190508181036000830152612adb81612741565b9050919050565b60006020820190508181036000830152612afb81612764565b9050919050565b60006020820190508181036000830152612b1b81612787565b9050919050565b60006020820190508181036000830152612b3b816127aa565b9050919050565b60006020820190508181036000830152612b5b816127cd565b9050919050565b60006020820190508181036000830152612b7b816127f0565b9050919050565b60006020820190508181036000830152612b9b81612813565b9050919050565b60006020820190508181036000830152612bbb81612836565b9050919050565b60006020820190508181036000830152612bdb81612859565b9050919050565b60006020820190508181036000830152612bfb8161287c565b9050919050565b60006020820190508181036000830152612c1b8161289f565b9050919050565b60006020820190508181036000830152612c3b816128c2565b9050919050565b60006020820190508181036000830152612c5b816128e5565b9050919050565b60006020820190508181036000830152612c7b81612908565b9050919050565b60006020820190508181036000830152612c9b8161292b565b9050919050565b6000602082019050612cb7600083018461295d565b92915050565b6000612cc7612cd8565b9050612cd38282612f27565b919050565b6000604051905090565b600067ffffffffffffffff821115612cfd57612cfc612fff565b5b612d068261302e565b9050602081019050919050565b600067ffffffffffffffff821115612d2e57612d2d612fff565b5b612d378261302e565b9050602081019050919050565b6000819050602082019050919050565b600081519050919050565b600081519050919050565b600081519050919050565b6000602082019050919050565b600082825260208201905092915050565b600082825260208201905092915050565b600082825260208201905092915050565b6000612dc082612ea9565b9150612dcb83612ea9565b9250827fffffffffffffffffffffffffffffffffffffffffffffffffffffffffffffffff03821115612e0057612dff612fa1565b5b828201905092915050565b6000612e1682612ea9565b9150612e2183612ea9565b925082821015612e3457612e33612fa1565b5b828203905092915050565b6000612e4a82612e89565b9050919050565b60008115159050919050565b60007fffffffff0000000000000000000000000000000000000000000000000000000082169050919050565b600073ffffffffffffffffffffffffffffffffffffffff82169050919050565b6000819050919050565b82818337600083830152505050565b60005b83811015612ee0578082015181840152602081019050612ec5565b83811115612eef576000848401525b50505050565b60006002820490506001821680612f0d57607f821691505b60208210811415612f2157612f20612fd0565b5b50919050565b612f308261302e565b810181811067ffffffffffffffff82111715612f4f57612f4e612fff565b5b80604052505050565b6000612f6382612ea9565b91507fffffffffffffffffffffffffffffffffffffffffffffffffffffffffffffffff821415612f9657612f95612fa1565b5b600182019050919050565b7f4e487b7100000000000000000000000000000000000000000000000000000000600052601160045260246000fd5b7f4e487b7100000000000000000000000000000000000000000000000000000000600052602260045260246000fd5b7f4e487b7100000000000000000000000000000000000000000000000000000000600052604160045260246000fd5b6000601f19601f8301169050919050565b7f4552433732313a2063616c6c6572206973206e6f7420746f6b656e206f776e6560008201527f72206f7220617070726f76656400000000000000000000000000000000000000602082015250565b7f55524920717565727920666f72206e6f6e6578697374656e7420746f6b656e00600082015250565b7f4552433732313a207472616e7366657220746f206e6f6e20455243373231526560008201527f63656976657220696d706c656d656e7465720000000000000000000000000000602082015250565b7f4f776e61626c653a206e6577206f776e657220697320746865207a65726f206160008201527f6464726573730000000000000000000000000000000000000000000000000000602082015250565b7f4552433732313a207472616e736665722066726f6d20696e636f72726563742060008201527f6f776e6572000000000000000000000000000000000000000000000000000000602082015250565b7f4552433732313a20746f6b656e20616c7265616479206d696e74656400000000600082015250565b7f4552433732313a207472616e7366657220746f20746865207a65726f2061646460008201527f7265737300000000000000000000000000000000000000000000000000000000602082015250565b7f4e465420616c7265616479206d696e7465640000000000000000000000000000600082015250565b7f4552433732313a20617070726f766520746f2063616c6c657200000000000000600082015250565b7f4e4654206973206e6f7420617661696c61626c6520746f206d696e7400000000600082015250565b7f4552433732313a2061646472657373207a65726f206973206e6f74206120766160008201527f6c6964206f776e65720000000000000000000000000000000000000000000000602082015250565b7f4552433732313a206d696e7420746f20746865207a65726f2061646472657373600082015250565b7f496e73756666696369656e74207061796d656e74000000000000000000000000600082015250565b7f4f776e61626c653a2063616c6c6572206973206e6f7420746865206f776e6572600082015250565b7f4e6f2062616c616e636520746f20776974686472617700000000000000000000600082015250565b7f4552433732313a20696e76616c696420746f6b656e2049440000000000000000600082015250565b7f4552433732313a20617070726f76616c20746f2063757272656e74206f776e6560008201527f7200000000000000000000000000000000000000000000000000000000000000602082015250565b7f4552433732313a20617070726f76652063616c6c6572206973206e6f7420746f60008201527f6b656e206f776e6572206f7220617070726f76656420666f7220616c6c000000602082015250565b61345a81612e3f565b811461346557600080fd5b50565b61347181612e51565b811461347c57600080fd5b50565b61348881612e5d565b811461349357600080fd5b50565b61349f81612ea9565b81146134aa57600080fd5b5056fea26469706673582212207b0d091c5049e85e85a3929b2f9deae21a1a53ea52b73a9dc1752fa137291ab564736f6c63430008010033",
  "immutableReferences": {},
  "source": "// SPDX-License-Identifier: MIT\r\npragma solidity ^0.8.0;\r\n\r\nimport \"@openzeppelin/contracts/token/ERC721/ERC721.sol\";\r\nimport \"@openzeppelin/contracts/access/Ownable.sol\";\r\nimport \"@openzeppelin/contracts/utils/Strings.sol\";\r\n\r\ncontract NFTMinting is ERC721, Ownable {\r\n    using Strings for uint256;\r\n\r\n    uint256 public tokenCounter;\r\n    mapping(uint256 => string) private _tokenURIs;\r\n    mapping(uint256 => uint256) public mintPrices;\r\n    mapping(uint256 => bool) public availableToMint;\r\n\r\n    event NFTCreated(uint256 indexed tokenId, string tokenURI, uint256 price);\r\n    event NFTMinted(address indexed minter, uint256 indexed tokenId);\r\n\r\n    constructor() ERC721(\"MyNFT\", \"MNFT\") {\r\n        tokenCounter = 0;\r\n    }\r\n\r\n    // Ch admin c th to NFT mi\r\n    function createNFT(\r\n        string memory _tokenURI,\r\n        uint256 price\r\n    ) public onlyOwner returns (uint256) {\r\n        uint256 newTokenId = tokenCounter;\r\n        _tokenURIs[newTokenId] = _tokenURI;\r\n        mintPrices[newTokenId] = price;\r\n        availableToMint[newTokenId] = true;\r\n\r\n        tokenCounter++;\r\n        emit NFTCreated(newTokenId, _tokenURI, price);\r\n        return newTokenId;\r\n    }\r\n\r\n    // Ngi dng c th mint NFT  c to\r\n    function mintNFT(uint256 tokenId) public payable {\r\n        require(availableToMint[tokenId], \"NFT is not available to mint\");\r\n        require(msg.value >= mintPrices[tokenId], \"Insufficient payment\");\r\n        require(!_exists(tokenId), \"NFT already minted\");\r\n\r\n        _safeMint(msg.sender, tokenId);\r\n        availableToMint[tokenId] = false;\r\n\r\n        // Hon tr tin tha nu c\r\n        if (msg.value > mintPrices[tokenId]) {\r\n            payable(msg.sender).transfer(msg.value - mintPrices[tokenId]);\r\n        }\r\n\r\n        emit NFTMinted(msg.sender, tokenId);\r\n    }\r\n\r\n    // Ly URI ca token\r\n    function tokenURI(\r\n        uint256 tokenId\r\n    ) public view virtual override returns (string memory) {\r\n        require(\r\n            _exists(tokenId) || availableToMint[tokenId],\r\n            \"URI query for nonexistent token\"\r\n        );\r\n        return _tokenURIs[tokenId];\r\n    }\r\n\r\n    // Ly gi mint ca token\r\n    function getMintPrice(uint256 tokenId) public view returns (uint256) {\r\n        require(availableToMint[tokenId], \"NFT is not available to mint\");\r\n        return mintPrices[tokenId];\r\n    }\r\n\r\n    // Ly danh sch NFT c th mint\r\n    function getAvailableNFTs() public view returns (uint256[] memory) {\r\n        uint256 count = 0;\r\n        for (uint256 i = 0; i < tokenCounter; i++) {\r\n            if (availableToMint[i]) count++;\r\n        }\r\n\r\n        uint256[] memory availableTokens = new uint256[](count);\r\n        uint256 index = 0;\r\n        for (uint256 i = 0; i < tokenCounter; i++) {\r\n            if (availableToMint[i]) {\r\n                availableTokens[index] = i;\r\n                index++;\r\n            }\r\n        }\r\n        return availableTokens;\r\n    }\r\n\r\n    // Admin c th rt tin\r\n    function withdraw() public onlyOwner {\r\n        uint256 balance = address(this).balance;\r\n        require(balance > 0, \"No balance to withdraw\");\r\n        payable(owner()).transfer(balance);\r\n    }\r\n}\r\n",
  "sourcePath": "D:\\Users\\trieunth\\Desktop\\Team_Work\\Blockchain\\blockchain-auction\\contracts\\NFTMinting.sol",
  "compiler": {
    "name": "solc",
    "version": "0.8.1+commit.df193b15.Emscripten.clang"
  },
  "schemaVersion": "3.4.16",
  "updatedAt": "2025-03-01T15:27:37.576Z",
  "networkType": "ethereum",
  "devdoc": {
    "kind": "dev",
    "methods": {
      "approve(address,uint256)": {
        "details": "See {IERC721-approve}."
      },
      "balanceOf(address)": {
        "details": "See {IERC721-balanceOf}."
      },
      "getApproved(uint256)": {
        "details": "See {IERC721-getApproved}."
      },
      "isApprovedForAll(address,address)": {
        "details": "See {IERC721-isApprovedForAll}."
      },
      "name()": {
        "details": "See {IERC721Metadata-name}."
      },
      "owner()": {
        "details": "Returns the address of the current owner."
      },
      "ownerOf(uint256)": {
        "details": "See {IERC721-ownerOf}."
      },
      "renounceOwnership()": {
        "details": "Leaves the contract without owner. It will not be possible to call `onlyOwner` functions anymore. Can only be called by the current owner. NOTE: Renouncing ownership will leave the contract without an owner, thereby removing any functionality that is only available to the owner."
      },
      "safeTransferFrom(address,address,uint256)": {
        "details": "See {IERC721-safeTransferFrom}."
      },
      "safeTransferFrom(address,address,uint256,bytes)": {
        "details": "See {IERC721-safeTransferFrom}."
      },
      "setApprovalForAll(address,bool)": {
        "details": "See {IERC721-setApprovalForAll}."
      },
      "supportsInterface(bytes4)": {
        "details": "See {IERC165-supportsInterface}."
      },
      "symbol()": {
        "details": "See {IERC721Metadata-symbol}."
      },
      "tokenURI(uint256)": {
        "details": "See {IERC721Metadata-tokenURI}."
      },
      "transferFrom(address,address,uint256)": {
        "details": "See {IERC721-transferFrom}."
      },
      "transferOwnership(address)": {
        "details": "Transfers ownership of the contract to a new account (`newOwner`). Can only be called by the current owner."
      }
    },
    "version": 1
  },
  "userdoc": {
    "kind": "user",
    "methods": {},
    "version": 1
  }
}