{
  "contractName": "NFTMinting",
  "abi": [
    {
      "inputs": [],
      "stateMutability": "nonpayable",
      "type": "constructor"
    },
    {
      "anonymous": false,
      "inputs": [
        {
          "indexed": true,
          "internalType": "address",
          "name": "owner",
          "type": "address"
        },
        {
          "indexed": true,
          "internalType": "address",
          "name": "approved",
          "type": "address"
        },
        {
          "indexed": true,
          "internalType": "uint256",
          "name": "tokenId",
          "type": "uint256"
        }
      ],
      "name": "Approval",
      "type": "event"
    },
    {
      "anonymous": false,
      "inputs": [
        {
          "indexed": true,
          "internalType": "address",
          "name": "owner",
          "type": "address"
        },
        {
          "indexed": true,
          "internalType": "address",
          "name": "operator",
          "type": "address"
        },
        {
          "indexed": false,
          "internalType": "bool",
          "name": "approved",
          "type": "bool"
        }
      ],
      "name": "ApprovalForAll",
      "type": "event"
    },
    {
      "anonymous": false,
      "inputs": [
        {
          "indexed": true,
          "internalType": "address",
          "name": "previousOwner",
          "type": "address"
        },
        {
          "indexed": true,
          "internalType": "address",
          "name": "newOwner",
          "type": "address"
        }
      ],
      "name": "OwnershipTransferred",
      "type": "event"
    },
    {
      "anonymous": false,
      "inputs": [
        {
          "indexed": true,
          "internalType": "address",
          "name": "from",
          "type": "address"
        },
        {
          "indexed": true,
          "internalType": "address",
          "name": "to",
          "type": "address"
        },
        {
          "indexed": true,
          "internalType": "uint256",
          "name": "tokenId",
          "type": "uint256"
        }
      ],
      "name": "Transfer",
      "type": "event"
    },
    {
      "inputs": [
        {
          "internalType": "address",
          "name": "to",
          "type": "address"
        },
        {
          "internalType": "uint256",
          "name": "tokenId",
          "type": "uint256"
        }
      ],
      "name": "approve",
      "outputs": [],
      "stateMutability": "nonpayable",
      "type": "function"
    },
    {
      "inputs": [
        {
          "internalType": "address",
          "name": "owner",
          "type": "address"
        }
      ],
      "name": "balanceOf",
      "outputs": [
        {
          "internalType": "uint256",
          "name": "",
          "type": "uint256"
        }
      ],
      "stateMutability": "view",
      "type": "function",
      "constant": true
    },
    {
      "inputs": [],
      "name": "baseURI",
      "outputs": [
        {
          "internalType": "string",
          "name": "",
          "type": "string"
        }
      ],
      "stateMutability": "view",
      "type": "function",
      "constant": true
    },
    {
      "inputs": [
        {
          "internalType": "uint256",
          "name": "tokenId",
          "type": "uint256"
        }
      ],
      "name": "getApproved",
      "outputs": [
        {
          "internalType": "address",
          "name": "",
          "type": "address"
        }
      ],
      "stateMutability": "view",
      "type": "function",
      "constant": true
    },
    {
      "inputs": [
        {
          "internalType": "address",
          "name": "owner",
          "type": "address"
        },
        {
          "internalType": "address",
          "name": "operator",
          "type": "address"
        }
      ],
      "name": "isApprovedForAll",
      "outputs": [
        {
          "internalType": "bool",
          "name": "",
          "type": "bool"
        }
      ],
      "stateMutability": "view",
      "type": "function",
      "constant": true
    },
    {
      "inputs": [],
      "name": "name",
      "outputs": [
        {
          "internalType": "string",
          "name": "",
          "type": "string"
        }
      ],
      "stateMutability": "view",
      "type": "function",
      "constant": true
    },
    {
      "inputs": [],
      "name": "owner",
      "outputs": [
        {
          "internalType": "address",
          "name": "",
          "type": "address"
        }
      ],
      "stateMutability": "view",
      "type": "function",
      "constant": true
    },
    {
      "inputs": [
        {
          "internalType": "uint256",
          "name": "tokenId",
          "type": "uint256"
        }
      ],
      "name": "ownerOf",
      "outputs": [
        {
          "internalType": "address",
          "name": "",
          "type": "address"
        }
      ],
      "stateMutability": "view",
      "type": "function",
      "constant": true
    },
    {
      "inputs": [],
      "name": "renounceOwnership",
      "outputs": [],
      "stateMutability": "nonpayable",
      "type": "function"
    },
    {
      "inputs": [
        {
          "internalType": "address",
          "name": "from",
          "type": "address"
        },
        {
          "internalType": "address",
          "name": "to",
          "type": "address"
        },
        {
          "internalType": "uint256",
          "name": "tokenId",
          "type": "uint256"
        }
      ],
      "name": "safeTransferFrom",
      "outputs": [],
      "stateMutability": "nonpayable",
      "type": "function"
    },
    {
      "inputs": [
        {
          "internalType": "address",
          "name": "from",
          "type": "address"
        },
        {
          "internalType": "address",
          "name": "to",
          "type": "address"
        },
        {
          "internalType": "uint256",
          "name": "tokenId",
          "type": "uint256"
        },
        {
          "internalType": "bytes",
          "name": "data",
          "type": "bytes"
        }
      ],
      "name": "safeTransferFrom",
      "outputs": [],
      "stateMutability": "nonpayable",
      "type": "function"
    },
    {
      "inputs": [
        {
          "internalType": "address",
          "name": "operator",
          "type": "address"
        },
        {
          "internalType": "bool",
          "name": "approved",
          "type": "bool"
        }
      ],
      "name": "setApprovalForAll",
      "outputs": [],
      "stateMutability": "nonpayable",
      "type": "function"
    },
    {
      "inputs": [
        {
          "internalType": "bytes4",
          "name": "interfaceId",
          "type": "bytes4"
        }
      ],
      "name": "supportsInterface",
      "outputs": [
        {
          "internalType": "bool",
          "name": "",
          "type": "bool"
        }
      ],
      "stateMutability": "view",
      "type": "function",
      "constant": true
    },
    {
      "inputs": [],
      "name": "symbol",
      "outputs": [
        {
          "internalType": "string",
          "name": "",
          "type": "string"
        }
      ],
      "stateMutability": "view",
      "type": "function",
      "constant": true
    },
    {
      "inputs": [],
      "name": "tokenCounter",
      "outputs": [
        {
          "internalType": "uint256",
          "name": "",
          "type": "uint256"
        }
      ],
      "stateMutability": "view",
      "type": "function",
      "constant": true
    },
    {
      "inputs": [
        {
          "internalType": "address",
          "name": "from",
          "type": "address"
        },
        {
          "internalType": "address",
          "name": "to",
          "type": "address"
        },
        {
          "internalType": "uint256",
          "name": "tokenId",
          "type": "uint256"
        }
      ],
      "name": "transferFrom",
      "outputs": [],
      "stateMutability": "nonpayable",
      "type": "function"
    },
    {
      "inputs": [
        {
          "internalType": "address",
          "name": "newOwner",
          "type": "address"
        }
      ],
      "name": "transferOwnership",
      "outputs": [],
      "stateMutability": "nonpayable",
      "type": "function"
    },
    {
      "inputs": [
        {
          "internalType": "string",
          "name": "newBaseURI",
          "type": "string"
        }
      ],
      "name": "setBaseURI",
      "outputs": [],
      "stateMutability": "nonpayable",
      "type": "function"
    },
    {
      "inputs": [
        {
          "internalType": "uint256",
          "name": "tokenId",
          "type": "uint256"
        },
        {
          "internalType": "string",
          "name": "_tokenURI",
          "type": "string"
        }
      ],
      "name": "setTokenURI",
      "outputs": [],
      "stateMutability": "nonpayable",
      "type": "function"
    },
    {
      "inputs": [
        {
          "internalType": "uint256",
          "name": "tokenId",
          "type": "uint256"
        }
      ],
      "name": "tokenURI",
      "outputs": [
        {
          "internalType": "string",
          "name": "",
          "type": "string"
        }
      ],
      "stateMutability": "view",
      "type": "function",
      "constant": true
    },
    {
      "inputs": [
        {
          "internalType": "address",
          "name": "to",
          "type": "address"
        }
      ],
      "name": "testMint",
      "outputs": [],
      "stateMutability": "nonpayable",
      "type": "function"
    }
  ],
  "bytecode": "0x60806040523480156200001157600080fd5b506040518060400160405280601181526020017f426f7265644170655961636874436c75620000000000000000000000000000008152506040518060400160405280600481526020017f4241594300000000000000000000000000000000000000000000000000000000815250816000908051906020019062000096929190620001e0565b508060019080519060200190620000af929190620001e0565b505050620000d2620000c66200011260201b60201c565b6200011a60201b60201c565b60006007819055506040518060800160405280604481526020016200344060449139600990805190602001906200010b929190620001e0565b50620002f5565b600033905090565b6000600660009054906101000a900473ffffffffffffffffffffffffffffffffffffffff16905081600660006101000a81548173ffffffffffffffffffffffffffffffffffffffff021916908373ffffffffffffffffffffffffffffffffffffffff1602179055508173ffffffffffffffffffffffffffffffffffffffff168173ffffffffffffffffffffffffffffffffffffffff167f8be0079c531659141344cd1fd0a4f28419497f9722a3daafe3b4186f6b6457e060405160405180910390a35050565b828054620001ee9062000290565b90600052602060002090601f0160209004810192826200021257600085556200025e565b82601f106200022d57805160ff19168380011785556200025e565b828001600101855582156200025e579182015b828111156200025d57825182559160200191906001019062000240565b5b5090506200026d919062000271565b5090565b5b808211156200028c57600081600090555060010162000272565b5090565b60006002820490506001821680620002a957607f821691505b60208210811415620002c057620002bf620002c6565b5b50919050565b7f4e487b7100000000000000000000000000000000000000000000000000000000600052602260045260246000fd5b61313b80620003056000396000f3fe608060405234801561001057600080fd5b50600436106101375760003560e01c806370a08231116100b8578063b88d4fde1161007c578063b88d4fde14610326578063c70c875a14610342578063c87b56dd1461035e578063d082e3811461038e578063e985e9c5146103ac578063f2fde38b146103dc57610137565b806370a0823114610294578063715018a6146102c45780638da5cb5b146102ce57806395d89b41146102ec578063a22cb4651461030a57610137565b806323b872dd116100ff57806323b872dd146101f257806342842e0e1461020e57806355f804b31461022a5780636352211e146102465780636c0360eb1461027657610137565b806301ffc9a71461013c57806306fdde031461016c578063081812fc1461018a578063095ea7b3146101ba578063162094c4146101d6575b600080fd5b6101566004803603810190610151919061227a565b6103f8565b6040516101639190612771565b60405180910390f35b6101746104da565b604051610181919061278c565b60405180910390f35b6101a4600480360381019061019f919061230d565b61056c565b6040516101b1919061270a565b60405180910390f35b6101d460048036038101906101cf919061223e565b6105b2565b005b6101f060048036038101906101eb9190612336565b6106ca565b005b61020c60048036038101906102079190612138565b6106e0565b005b61022860048036038101906102239190612138565b610740565b005b610244600480360381019061023f91906122cc565b610760565b005b610260600480360381019061025b919061230d565b610782565b60405161026d919061270a565b60405180910390f35b61027e610809565b60405161028b919061278c565b60405180910390f35b6102ae60048036038101906102a991906120d3565b610897565b6040516102bb919061298e565b60405180910390f35b6102cc61094f565b005b6102d6610963565b6040516102e3919061270a565b60405180910390f35b6102f461098d565b604051610301919061278c565b60405180910390f35b610324600480360381019061031f9190612202565b610a1f565b005b610340600480360381019061033b9190612187565b610a35565b005b61035c600480360381019061035791906120d3565b610a97565b005b6103786004803603810190610373919061230d565b610acc565b604051610385919061278c565b60405180910390f35b610396610bfd565b6040516103a3919061298e565b60405180910390f35b6103c660048036038101906103c191906120fc565b610c03565b6040516103d39190612771565b60405180910390f35b6103f660048036038101906103f191906120d3565b610c97565b005b60007f80ac58cd000000000000000000000000000000000000000000000000000000007bffffffffffffffffffffffffffffffffffffffffffffffffffffffff1916827bffffffffffffffffffffffffffffffffffffffffffffffffffffffff191614806104c357507f5b5e139f000000000000000000000000000000000000000000000000000000007bffffffffffffffffffffffffffffffffffffffffffffffffffffffff1916827bffffffffffffffffffffffffffffffffffffffffffffffffffffffff1916145b806104d357506104d282610d1b565b5b9050919050565b6060600080546104e990612bc8565b80601f016020809104026020016040519081016040528092919081815260200182805461051590612bc8565b80156105625780601f1061053757610100808354040283529160200191610562565b820191906000526020600020905b81548152906001019060200180831161054557829003601f168201915b5050505050905090565b600061057782610d85565b6004600083815260200190815260200160002060009054906101000a900473ffffffffffffffffffffffffffffffffffffffff169050919050565b60006105bd82610782565b90508073ffffffffffffffffffffffffffffffffffffffff168373ffffffffffffffffffffffffffffffffffffffff16141561062e576040517f08c379a00000000000000000000000000000000000000000000000000000000081526004016106259061294e565b60405180910390fd5b8073ffffffffffffffffffffffffffffffffffffffff1661064d610dd0565b73ffffffffffffffffffffffffffffffffffffffff16148061067c575061067b81610676610dd0565b610c03565b5b6106bb576040517f08c379a00000000000000000000000000000000000000000000000000000000081526004016106b29061296e565b60405180910390fd5b6106c58383610dd8565b505050565b6106d2610e91565b6106dc8282610f0f565b5050565b6106f16106eb610dd0565b82610f83565b610730576040517f08c379a0000000000000000000000000000000000000000000000000000000008152600401610727906127ae565b60405180910390fd5b61073b838383611018565b505050565b61075b83838360405180602001604052806000815250610a35565b505050565b610768610e91565b806009908051906020019061077e929190611ef7565b5050565b60008061078e83611312565b9050600073ffffffffffffffffffffffffffffffffffffffff168173ffffffffffffffffffffffffffffffffffffffff161415610800576040517f08c379a00000000000000000000000000000000000000000000000000000000081526004016107f79061292e565b60405180910390fd5b80915050919050565b6009805461081690612bc8565b80601f016020809104026020016040519081016040528092919081815260200182805461084290612bc8565b801561088f5780601f106108645761010080835404028352916020019161088f565b820191906000526020600020905b81548152906001019060200180831161087257829003601f168201915b505050505081565b60008073ffffffffffffffffffffffffffffffffffffffff168273ffffffffffffffffffffffffffffffffffffffff161415610908576040517f08c379a00000000000000000000000000000000000000000000000000000000081526004016108ff906128ae565b60405180910390fd5b600360008373ffffffffffffffffffffffffffffffffffffffff1673ffffffffffffffffffffffffffffffffffffffff168152602001908152602001600020549050919050565b610957610e91565b610961600061134f565b565b6000600660009054906101000a900473ffffffffffffffffffffffffffffffffffffffff16905090565b60606001805461099c90612bc8565b80601f01602080910402602001604051908101604052809291908181526020018280546109c890612bc8565b8015610a155780601f106109ea57610100808354040283529160200191610a15565b820191906000526020600020905b8154815290600101906020018083116109f857829003601f168201915b5050505050905090565b610a31610a2a610dd0565b8383611415565b5050565b610a46610a40610dd0565b83610f83565b610a85576040517f08c379a0000000000000000000000000000000000000000000000000000000008152600401610a7c906127ae565b60405180910390fd5b610a9184848484611582565b50505050565b610a9f610e91565b60006007549050610ab082826115de565b60076000815480929190610ac390612c2b565b91905055505050565b6060610ad7826115fc565b610b16576040517f08c379a0000000000000000000000000000000000000000000000000000000008152600401610b0d906127ce565b60405180910390fd5b6000600860008481526020019081526020016000208054610b3690612bc8565b80601f0160208091040260200160405190810160405280929190818152602001828054610b6290612bc8565b8015610baf5780601f10610b8457610100808354040283529160200191610baf565b820191906000526020600020905b815481529060010190602001808311610b9257829003601f168201915b50505050509050600081511115610bc95780915050610bf8565b6009610bd48461163d565b604051602001610be59291906126e6565b6040516020818303038152906040529150505b919050565b60075481565b6000600560008473ffffffffffffffffffffffffffffffffffffffff1673ffffffffffffffffffffffffffffffffffffffff16815260200190815260200160002060008373ffffffffffffffffffffffffffffffffffffffff1673ffffffffffffffffffffffffffffffffffffffff16815260200190815260200160002060009054906101000a900460ff16905092915050565b610c9f610e91565b600073ffffffffffffffffffffffffffffffffffffffff168173ffffffffffffffffffffffffffffffffffffffff161415610d0f576040517f08c379a0000000000000000000000000000000000000000000000000000000008152600401610d069061280e565b60405180910390fd5b610d188161134f565b50565b60007f01ffc9a7000000000000000000000000000000000000000000000000000000007bffffffffffffffffffffffffffffffffffffffffffffffffffffffff1916827bffffffffffffffffffffffffffffffffffffffffffffffffffffffff1916149050919050565b610d8e816115fc565b610dcd576040517f08c379a0000000000000000000000000000000000000000000000000000000008152600401610dc49061292e565b60405180910390fd5b50565b600033905090565b816004600083815260200190815260200160002060006101000a81548173ffffffffffffffffffffffffffffffffffffffff021916908373ffffffffffffffffffffffffffffffffffffffff160217905550808273ffffffffffffffffffffffffffffffffffffffff16610e4b83610782565b73ffffffffffffffffffffffffffffffffffffffff167f8c5be1e5ebec7d5bd14f71427d1e84f3dd0314c0f7b2291e5b200ac8c7c3b92560405160405180910390a45050565b610e99610dd0565b73ffffffffffffffffffffffffffffffffffffffff16610eb7610963565b73ffffffffffffffffffffffffffffffffffffffff1614610f0d576040517f08c379a0000000000000000000000000000000000000000000000000000000008152600401610f04906128ee565b60405180910390fd5b565b610f18826115fc565b610f57576040517f08c379a0000000000000000000000000000000000000000000000000000000008152600401610f4e9061290e565b60405180910390fd5b80600860008481526020019081526020016000209080519060200190610f7e929190611ef7565b505050565b600080610f8f83610782565b90508073ffffffffffffffffffffffffffffffffffffffff168473ffffffffffffffffffffffffffffffffffffffff161480610fd15750610fd08185610c03565b5b8061100f57508373ffffffffffffffffffffffffffffffffffffffff16610ff78461056c565b73ffffffffffffffffffffffffffffffffffffffff16145b91505092915050565b8273ffffffffffffffffffffffffffffffffffffffff1661103882610782565b73ffffffffffffffffffffffffffffffffffffffff161461108e576040517f08c379a00000000000000000000000000000000000000000000000000000000081526004016110859061282e565b60405180910390fd5b600073ffffffffffffffffffffffffffffffffffffffff168273ffffffffffffffffffffffffffffffffffffffff1614156110fe576040517f08c379a00000000000000000000000000000000000000000000000000000000081526004016110f59061286e565b60405180910390fd5b61110b8383836001611761565b8273ffffffffffffffffffffffffffffffffffffffff1661112b82610782565b73ffffffffffffffffffffffffffffffffffffffff1614611181576040517f08c379a00000000000000000000000000000000000000000000000000000000081526004016111789061282e565b60405180910390fd5b6004600082815260200190815260200160002060006101000a81549073ffffffffffffffffffffffffffffffffffffffff02191690556001600360008573ffffffffffffffffffffffffffffffffffffffff1673ffffffffffffffffffffffffffffffffffffffff168152602001908152602001600020600082825403925050819055506001600360008473ffffffffffffffffffffffffffffffffffffffff1673ffffffffffffffffffffffffffffffffffffffff16815260200190815260200160002060008282540192505081905550816002600083815260200190815260200160002060006101000a81548173ffffffffffffffffffffffffffffffffffffffff021916908373ffffffffffffffffffffffffffffffffffffffff160217905550808273ffffffffffffffffffffffffffffffffffffffff168473ffffffffffffffffffffffffffffffffffffffff167fddf252ad1be2c89b69c2b068fc378daa952ba7f163c4a11628f55a4df523b3ef60405160405180910390a461130d8383836001611887565b505050565b60006002600083815260200190815260200160002060009054906101000a900473ffffffffffffffffffffffffffffffffffffffff169050919050565b6000600660009054906101000a900473ffffffffffffffffffffffffffffffffffffffff16905081600660006101000a81548173ffffffffffffffffffffffffffffffffffffffff021916908373ffffffffffffffffffffffffffffffffffffffff1602179055508173ffffffffffffffffffffffffffffffffffffffff168173ffffffffffffffffffffffffffffffffffffffff167f8be0079c531659141344cd1fd0a4f28419497f9722a3daafe3b4186f6b6457e060405160405180910390a35050565b8173ffffffffffffffffffffffffffffffffffffffff168373ffffffffffffffffffffffffffffffffffffffff161415611484576040517f08c379a000000000000000000000000000000000000000000000000000000000815260040161147b9061288e565b60405180910390fd5b80600560008573ffffffffffffffffffffffffffffffffffffffff1673ffffffffffffffffffffffffffffffffffffffff16815260200190815260200160002060008473ffffffffffffffffffffffffffffffffffffffff1673ffffffffffffffffffffffffffffffffffffffff16815260200190815260200160002060006101000a81548160ff0219169083151502179055508173ffffffffffffffffffffffffffffffffffffffff168373ffffffffffffffffffffffffffffffffffffffff167f17307eab39ab6107e8899845ad3d59bd9653f200f220920489ca2b5937696c31836040516115759190612771565b60405180910390a3505050565b61158d848484611018565b6115998484848461188d565b6115d8576040517f08c379a00000000000000000000000000000000000000000000000000000000081526004016115cf906127ee565b60405180910390fd5b50505050565b6115f8828260405180602001604052806000815250611a24565b5050565b60008073ffffffffffffffffffffffffffffffffffffffff1661161e83611312565b73ffffffffffffffffffffffffffffffffffffffff1614159050919050565b60606000600161164c84611a7f565b01905060008167ffffffffffffffff811115611691577f4e487b7100000000000000000000000000000000000000000000000000000000600052604160045260246000fd5b6040519080825280601f01601f1916602001820160405280156116c35781602001600182028036833780820191505090505b509050600082602001820190505b600115611756578080600190039150507f3031323334353637383961626364656600000000000000000000000000000000600a86061a8153600a8581611740577f4e487b7100000000000000000000000000000000000000000000000000000000600052601260045260246000fd5b049450600085141561175157611756565b6116d1565b819350505050919050565b600181111561188157600073ffffffffffffffffffffffffffffffffffffffff168473ffffffffffffffffffffffffffffffffffffffff16146117f55780600360008673ffffffffffffffffffffffffffffffffffffffff1673ffffffffffffffffffffffffffffffffffffffff16815260200190815260200160002060008282546117ed9190612ade565b925050819055505b600073ffffffffffffffffffffffffffffffffffffffff168373ffffffffffffffffffffffffffffffffffffffff16146118805780600360008573ffffffffffffffffffffffffffffffffffffffff1673ffffffffffffffffffffffffffffffffffffffff16815260200190815260200160002060008282546118789190612a88565b925050819055505b5b50505050565b50505050565b60006118ae8473ffffffffffffffffffffffffffffffffffffffff16611cb6565b15611a17578373ffffffffffffffffffffffffffffffffffffffff1663150b7a026118d7610dd0565b8786866040518563ffffffff1660e01b81526004016118f99493929190612725565b602060405180830381600087803b15801561191357600080fd5b505af192505050801561194457506040513d601f19601f8201168201806040525081019061194191906122a3565b60015b6119c7573d8060008114611974576040519150601f19603f3d011682016040523d82523d6000602084013e611979565b606091505b506000815114156119bf576040517f08c379a00000000000000000000000000000000000000000000000000000000081526004016119b6906127ee565b60405180910390fd5b805181602001fd5b63150b7a0260e01b7bffffffffffffffffffffffffffffffffffffffffffffffffffffffff1916817bffffffffffffffffffffffffffffffffffffffffffffffffffffffff191614915050611a1c565b600190505b949350505050565b611a2e8383611cd9565b611a3b600084848461188d565b611a7a576040517f08c379a0000000000000000000000000000000000000000000000000000000008152600401611a71906127ee565b60405180910390fd5b505050565b600080600090507a184f03e93ff9f4daa797ed6e38ed64bf6a1f0100000000000000008310611b03577a184f03e93ff9f4daa797ed6e38ed64bf6a1f0100000000000000008381611af9577f4e487b7100000000000000000000000000000000000000000000000000000000600052601260045260246000fd5b0492506040810190505b6d04ee2d6d415b85acef81000000008310611b66576d04ee2d6d415b85acef81000000008381611b5c577f4e487b7100000000000000000000000000000000000000000000000000000000600052601260045260246000fd5b0492506020810190505b662386f26fc100008310611bbb57662386f26fc100008381611bb1577f4e487b7100000000000000000000000000000000000000000000000000000000600052601260045260246000fd5b0492506010810190505b6305f5e1008310611c0a576305f5e1008381611c00577f4e487b7100000000000000000000000000000000000000000000000000000000600052601260045260246000fd5b0492506008810190505b6127108310611c55576127108381611c4b577f4e487b7100000000000000000000000000000000000000000000000000000000600052601260045260246000fd5b0492506004810190505b60648310611c9e5760648381611c94577f4e487b7100000000000000000000000000000000000000000000000000000000600052601260045260246000fd5b0492506002810190505b600a8310611cad576001810190505b80915050919050565b6000808273ffffffffffffffffffffffffffffffffffffffff163b119050919050565b600073ffffffffffffffffffffffffffffffffffffffff168273ffffffffffffffffffffffffffffffffffffffff161415611d49576040517f08c379a0000000000000000000000000000000000000000000000000000000008152600401611d40906128ce565b60405180910390fd5b611d52816115fc565b15611d92576040517f08c379a0000000000000000000000000000000000000000000000000000000008152600401611d899061284e565b60405180910390fd5b611da0600083836001611761565b611da9816115fc565b15611de9576040517f08c379a0000000000000000000000000000000000000000000000000000000008152600401611de09061284e565b60405180910390fd5b6001600360008473ffffffffffffffffffffffffffffffffffffffff1673ffffffffffffffffffffffffffffffffffffffff16815260200190815260200160002060008282540192505081905550816002600083815260200190815260200160002060006101000a81548173ffffffffffffffffffffffffffffffffffffffff021916908373ffffffffffffffffffffffffffffffffffffffff160217905550808273ffffffffffffffffffffffffffffffffffffffff16600073ffffffffffffffffffffffffffffffffffffffff167fddf252ad1be2c89b69c2b068fc378daa952ba7f163c4a11628f55a4df523b3ef60405160405180910390a4611ef3600083836001611887565b5050565b828054611f0390612bc8565b90600052602060002090601f016020900481019282611f255760008555611f6c565b82601f10611f3e57805160ff1916838001178555611f6c565b82800160010185558215611f6c579182015b82811115611f6b578251825591602001919060010190611f50565b5b509050611f799190611f7d565b5090565b5b80821115611f96576000816000905550600101611f7e565b5090565b6000611fad611fa8846129ce565b6129a9565b905082815260208101848484011115611fc557600080fd5b611fd0848285612b86565b509392505050565b6000611feb611fe6846129ff565b6129a9565b90508281526020810184848401111561200357600080fd5b61200e848285612b86565b509392505050565b600081359050612025816130a9565b92915050565b60008135905061203a816130c0565b92915050565b60008135905061204f816130d7565b92915050565b600081519050612064816130d7565b92915050565b600082601f83011261207b57600080fd5b813561208b848260208601611f9a565b91505092915050565b600082601f8301126120a557600080fd5b81356120b5848260208601611fd8565b91505092915050565b6000813590506120cd816130ee565b92915050565b6000602082840312156120e557600080fd5b60006120f384828501612016565b91505092915050565b6000806040838503121561210f57600080fd5b600061211d85828601612016565b925050602061212e85828601612016565b9150509250929050565b60008060006060848603121561214d57600080fd5b600061215b86828701612016565b935050602061216c86828701612016565b925050604061217d868287016120be565b9150509250925092565b6000806000806080858703121561219d57600080fd5b60006121ab87828801612016565b94505060206121bc87828801612016565b93505060406121cd878288016120be565b925050606085013567ffffffffffffffff8111156121ea57600080fd5b6121f68782880161206a565b91505092959194509250565b6000806040838503121561221557600080fd5b600061222385828601612016565b92505060206122348582860161202b565b9150509250929050565b6000806040838503121561225157600080fd5b600061225f85828601612016565b9250506020612270858286016120be565b9150509250929050565b60006020828403121561228c57600080fd5b600061229a84828501612040565b91505092915050565b6000602082840312156122b557600080fd5b60006122c384828501612055565b91505092915050565b6000602082840312156122de57600080fd5b600082013567ffffffffffffffff8111156122f857600080fd5b61230484828501612094565b91505092915050565b60006020828403121561231f57600080fd5b600061232d848285016120be565b91505092915050565b6000806040838503121561234957600080fd5b6000612357858286016120be565b925050602083013567ffffffffffffffff81111561237457600080fd5b61238085828601612094565b9150509250929050565b61239381612b12565b82525050565b6123a281612b24565b82525050565b60006123b382612a45565b6123bd8185612a5b565b93506123cd818560208601612b95565b6123d681612d01565b840191505092915050565b60006123ec82612a50565b6123f68185612a6c565b9350612406818560208601612b95565b61240f81612d01565b840191505092915050565b600061242582612a50565b61242f8185612a7d565b935061243f818560208601612b95565b80840191505092915050565b6000815461245881612bc8565b6124628186612a7d565b9450600182166000811461247d576001811461248e576124c1565b60ff198316865281860193506124c1565b61249785612a30565b60005b838110156124b95781548189015260018201915060208101905061249a565b838801955050505b50505092915050565b60006124d7602d83612a6c565b91506124e282612d12565b604082019050919050565b60006124fa601f83612a6c565b915061250582612d61565b602082019050919050565b600061251d603283612a6c565b915061252882612d8a565b604082019050919050565b6000612540602683612a6c565b915061254b82612dd9565b604082019050919050565b6000612563602583612a6c565b915061256e82612e28565b604082019050919050565b6000612586601c83612a6c565b915061259182612e77565b602082019050919050565b60006125a9602483612a6c565b91506125b482612ea0565b604082019050919050565b60006125cc601983612a6c565b91506125d782612eef565b602082019050919050565b60006125ef602983612a6c565b91506125fa82612f18565b604082019050919050565b6000612612602083612a6c565b915061261d82612f67565b602082019050919050565b6000612635602083612a6c565b915061264082612f90565b602082019050919050565b6000612658601c83612a6c565b915061266382612fb9565b602082019050919050565b600061267b601883612a6c565b915061268682612fe2565b602082019050919050565b600061269e602183612a6c565b91506126a98261300b565b604082019050919050565b60006126c1603d83612a6c565b91506126cc8261305a565b604082019050919050565b6126e081612b7c565b82525050565b60006126f2828561244b565b91506126fe828461241a565b91508190509392505050565b600060208201905061271f600083018461238a565b92915050565b600060808201905061273a600083018761238a565b612747602083018661238a565b61275460408301856126d7565b818103606083015261276681846123a8565b905095945050505050565b60006020820190506127866000830184612399565b92915050565b600060208201905081810360008301526127a681846123e1565b905092915050565b600060208201905081810360008301526127c7816124ca565b9050919050565b600060208201905081810360008301526127e7816124ed565b9050919050565b6000602082019050818103600083015261280781612510565b9050919050565b6000602082019050818103600083015261282781612533565b9050919050565b6000602082019050818103600083015261284781612556565b9050919050565b6000602082019050818103600083015261286781612579565b9050919050565b600060208201905081810360008301526128878161259c565b9050919050565b600060208201905081810360008301526128a7816125bf565b9050919050565b600060208201905081810360008301526128c7816125e2565b9050919050565b600060208201905081810360008301526128e781612605565b9050919050565b6000602082019050818103600083015261290781612628565b9050919050565b600060208201905081810360008301526129278161264b565b9050919050565b600060208201905081810360008301526129478161266e565b9050919050565b6000602082019050818103600083015261296781612691565b9050919050565b60006020820190508181036000830152612987816126b4565b9050919050565b60006020820190506129a360008301846126d7565b92915050565b60006129b36129c4565b90506129bf8282612bfa565b919050565b6000604051905090565b600067ffffffffffffffff8211156129e9576129e8612cd2565b5b6129f282612d01565b9050602081019050919050565b600067ffffffffffffffff821115612a1a57612a19612cd2565b5b612a2382612d01565b9050602081019050919050565b60008190508160005260206000209050919050565b600081519050919050565b600081519050919050565b600082825260208201905092915050565b600082825260208201905092915050565b600081905092915050565b6000612a9382612b7c565b9150612a9e83612b7c565b9250827fffffffffffffffffffffffffffffffffffffffffffffffffffffffffffffffff03821115612ad357612ad2612c74565b5b828201905092915050565b6000612ae982612b7c565b9150612af483612b7c565b925082821015612b0757612b06612c74565b5b828203905092915050565b6000612b1d82612b5c565b9050919050565b60008115159050919050565b60007fffffffff0000000000000000000000000000000000000000000000000000000082169050919050565b600073ffffffffffffffffffffffffffffffffffffffff82169050919050565b6000819050919050565b82818337600083830152505050565b60005b83811015612bb3578082015181840152602081019050612b98565b83811115612bc2576000848401525b50505050565b60006002820490506001821680612be057607f821691505b60208210811415612bf457612bf3612ca3565b5b50919050565b612c0382612d01565b810181811067ffffffffffffffff82111715612c2257612c21612cd2565b5b80604052505050565b6000612c3682612b7c565b91507fffffffffffffffffffffffffffffffffffffffffffffffffffffffffffffffff821415612c6957612c68612c74565b5b600182019050919050565b7f4e487b7100000000000000000000000000000000000000000000000000000000600052601160045260246000fd5b7f4e487b7100000000000000000000000000000000000000000000000000000000600052602260045260246000fd5b7f4e487b7100000000000000000000000000000000000000000000000000000000600052604160045260246000fd5b6000601f19601f8301169050919050565b7f4552433732313a2063616c6c6572206973206e6f7420746f6b656e206f776e6560008201527f72206f7220617070726f76656400000000000000000000000000000000000000602082015250565b7f55524920717565727920666f72206e6f6e6578697374656e7420746f6b656e00600082015250565b7f4552433732313a207472616e7366657220746f206e6f6e20455243373231526560008201527f63656976657220696d706c656d656e7465720000000000000000000000000000602082015250565b7f4f776e61626c653a206e6577206f776e657220697320746865207a65726f206160008201527f6464726573730000000000000000000000000000000000000000000000000000602082015250565b7f4552433732313a207472616e736665722066726f6d20696e636f72726563742060008201527f6f776e6572000000000000000000000000000000000000000000000000000000602082015250565b7f4552433732313a20746f6b656e20616c7265616479206d696e74656400000000600082015250565b7f4552433732313a207472616e7366657220746f20746865207a65726f2061646460008201527f7265737300000000000000000000000000000000000000000000000000000000602082015250565b7f4552433732313a20617070726f766520746f2063616c6c657200000000000000600082015250565b7f4552433732313a2061646472657373207a65726f206973206e6f74206120766160008201527f6c6964206f776e65720000000000000000000000000000000000000000000000602082015250565b7f4552433732313a206d696e7420746f20746865207a65726f2061646472657373600082015250565b7f4f776e61626c653a2063616c6c6572206973206e6f7420746865206f776e6572600082015250565b7f55524920736574206f66206e6f6e6578697374656e7420746f6b656e00000000600082015250565b7f4552433732313a20696e76616c696420746f6b656e2049440000000000000000600082015250565b7f4552433732313a20617070726f76616c20746f2063757272656e74206f776e6560008201527f7200000000000000000000000000000000000000000000000000000000000000602082015250565b7f4552433732313a20617070726f76652063616c6c6572206973206e6f7420746f60008201527f6b656e206f776e6572206f7220617070726f76656420666f7220616c6c000000602082015250565b6130b281612b12565b81146130bd57600080fd5b50565b6130c981612b24565b81146130d457600080fd5b50565b6130e081612b30565b81146130eb57600080fd5b50565b6130f781612b7c565b811461310257600080fd5b5056fea26469706673582212200a70c9f3c5cb70e119c50f2c5a6f06c02ce208bef369475fb151bfeb42cfec6f64736f6c6343000801003368747470733a2f2f697066732e696f2f697066732f516d65536a53696e4870506e6d586d73704d6a776958794e367a533445397a63636172694752336a7863615774712f",
  "immutableReferences": {},
  "source": "// SPDX-License-Identifier: MIT\r\npragma solidity ^0.8.0;\r\n\r\nimport \"@openzeppelin/contracts/token/ERC721/ERC721.sol\";\r\nimport \"@openzeppelin/contracts/access/Ownable.sol\";\r\nimport \"@openzeppelin/contracts/utils/Strings.sol\";\r\n\r\ncontract NFTMinting is ERC721, Ownable {\r\n    using Strings for uint256;\r\n\r\n    uint256 public tokenCounter;\r\n    mapping(uint256 => string) private _tokenURIs;\r\n    \r\n    // Base URI for metadata\r\n    string public baseURI;\r\n\r\n    constructor() ERC721(\"BoredApeYachtClub\", \"BAYC\") {\r\n        tokenCounter = 0;\r\n        baseURI = \"https://ipfs.io/ipfs/QmeSjSinHpPnmXmspMjwiXyN6zS4E9zccariGR3jxcaWtq/\";\r\n    }\r\n\r\n    // Hm  ci t URI cho token\r\n    function _setTokenURI(uint256 tokenId, string memory _tokenURI) internal virtual {\r\n        require(_exists(tokenId), \"URI set of nonexistent token\");\r\n        _tokenURIs[tokenId] = _tokenURI;\r\n    }\r\n    \r\n    function setBaseURI(string memory newBaseURI) public onlyOwner {\r\n        baseURI = newBaseURI;\r\n    }\r\n    \r\n    // Add a public function that can be called from migration script\r\n    function setTokenURI(uint256 tokenId, string memory _tokenURI) public onlyOwner {\r\n        _setTokenURI(tokenId, _tokenURI);\r\n    }\r\n\r\n    // Ly URI ca token\r\n    function tokenURI(\r\n        uint256 tokenId\r\n    ) public view virtual override returns (string memory) {\r\n        require(_exists(tokenId), \"URI query for nonexistent token\");\r\n        \r\n        string memory _tokenURI = _tokenURIs[tokenId];\r\n        \r\n        // If token URI is set, return it\r\n        if (bytes(_tokenURI).length > 0) {\r\n            return _tokenURI;\r\n        }\r\n        \r\n        // If not, return the combination of base URI and token ID\r\n        return string(abi.encodePacked(baseURI, Strings.toString(tokenId)));\r\n    }\r\n    \r\n    // Test mint function for testing only\r\n    function testMint(address to) public onlyOwner {\r\n        uint256 newTokenId = tokenCounter;\r\n        _safeMint(to, newTokenId);\r\n        // Don't set URI here, let the migration script do it\r\n        tokenCounter++;\r\n    }\r\n}\r\n",
  "sourcePath": "D:\\Users\\trieunth\\Desktop\\Team_Work\\Blockchain\\blockchain-auction1\\blockchain-auction\\contracts\\NFTMinting.sol",
  "compiler": {
    "name": "solc",
    "version": "0.8.1+commit.df193b15.Emscripten.clang"
  },
  "schemaVersion": "3.4.16",
  "updatedAt": "2025-03-13T16:43:48.910Z",
  "networkType": "ethereum",
  "devdoc": {
    "kind": "dev",
    "methods": {
      "approve(address,uint256)": {
        "details": "See {IERC721-approve}."
      },
      "balanceOf(address)": {
        "details": "See {IERC721-balanceOf}."
      },
      "getApproved(uint256)": {
        "details": "See {IERC721-getApproved}."
      },
      "isApprovedForAll(address,address)": {
        "details": "See {IERC721-isApprovedForAll}."
      },
      "name()": {
        "details": "See {IERC721Metadata-name}."
      },
      "owner()": {
        "details": "Returns the address of the current owner."
      },
      "ownerOf(uint256)": {
        "details": "See {IERC721-ownerOf}."
      },
      "renounceOwnership()": {
        "details": "Leaves the contract without owner. It will not be possible to call `onlyOwner` functions anymore. Can only be called by the current owner. NOTE: Renouncing ownership will leave the contract without an owner, thereby removing any functionality that is only available to the owner."
      },
      "safeTransferFrom(address,address,uint256)": {
        "details": "See {IERC721-safeTransferFrom}."
      },
      "safeTransferFrom(address,address,uint256,bytes)": {
        "details": "See {IERC721-safeTransferFrom}."
      },
      "setApprovalForAll(address,bool)": {
        "details": "See {IERC721-setApprovalForAll}."
      },
      "supportsInterface(bytes4)": {
        "details": "See {IERC165-supportsInterface}."
      },
      "symbol()": {
        "details": "See {IERC721Metadata-symbol}."
      },
      "tokenURI(uint256)": {
        "details": "See {IERC721Metadata-tokenURI}."
      },
      "transferFrom(address,address,uint256)": {
        "details": "See {IERC721-transferFrom}."
      },
      "transferOwnership(address)": {
        "details": "Transfers ownership of the contract to a new account (`newOwner`). Can only be called by the current owner."
      }
    },
    "version": 1
  },
  "userdoc": {
    "kind": "user",
    "methods": {},
    "version": 1
  }
}