{
  "contractName": "NFTMinting",
  "abi": [
    {
      "inputs": [],
      "stateMutability": "nonpayable",
      "type": "constructor"
    },
    {
      "anonymous": false,
      "inputs": [
        {
          "indexed": true,
          "internalType": "address",
          "name": "owner",
          "type": "address"
        },
        {
          "indexed": true,
          "internalType": "address",
          "name": "approved",
          "type": "address"
        },
        {
          "indexed": true,
          "internalType": "uint256",
          "name": "tokenId",
          "type": "uint256"
        }
      ],
      "name": "Approval",
      "type": "event"
    },
    {
      "anonymous": false,
      "inputs": [
        {
          "indexed": true,
          "internalType": "address",
          "name": "owner",
          "type": "address"
        },
        {
          "indexed": true,
          "internalType": "address",
          "name": "operator",
          "type": "address"
        },
        {
          "indexed": false,
          "internalType": "bool",
          "name": "approved",
          "type": "bool"
        }
      ],
      "name": "ApprovalForAll",
      "type": "event"
    },
    {
      "anonymous": false,
      "inputs": [
        {
          "indexed": true,
          "internalType": "address",
          "name": "previousOwner",
          "type": "address"
        },
        {
          "indexed": true,
          "internalType": "address",
          "name": "newOwner",
          "type": "address"
        }
      ],
      "name": "OwnershipTransferred",
      "type": "event"
    },
    {
      "anonymous": false,
      "inputs": [
        {
          "indexed": true,
          "internalType": "address",
          "name": "from",
          "type": "address"
        },
        {
          "indexed": true,
          "internalType": "address",
          "name": "to",
          "type": "address"
        },
        {
          "indexed": true,
          "internalType": "uint256",
          "name": "tokenId",
          "type": "uint256"
        }
      ],
      "name": "Transfer",
      "type": "event"
    },
    {
      "inputs": [
        {
          "internalType": "address",
          "name": "to",
          "type": "address"
        },
        {
          "internalType": "uint256",
          "name": "tokenId",
          "type": "uint256"
        }
      ],
      "name": "approve",
      "outputs": [],
      "stateMutability": "nonpayable",
      "type": "function"
    },
    {
      "inputs": [
        {
          "internalType": "address",
          "name": "owner",
          "type": "address"
        }
      ],
      "name": "balanceOf",
      "outputs": [
        {
          "internalType": "uint256",
          "name": "",
          "type": "uint256"
        }
      ],
      "stateMutability": "view",
      "type": "function",
      "constant": true
    },
    {
      "inputs": [],
      "name": "baseURI",
      "outputs": [
        {
          "internalType": "string",
          "name": "",
          "type": "string"
        }
      ],
      "stateMutability": "view",
      "type": "function",
      "constant": true
    },
    {
      "inputs": [
        {
          "internalType": "uint256",
          "name": "tokenId",
          "type": "uint256"
        }
      ],
      "name": "getApproved",
      "outputs": [
        {
          "internalType": "address",
          "name": "",
          "type": "address"
        }
      ],
      "stateMutability": "view",
      "type": "function",
      "constant": true
    },
    {
      "inputs": [
        {
          "internalType": "address",
          "name": "owner",
          "type": "address"
        },
        {
          "internalType": "address",
          "name": "operator",
          "type": "address"
        }
      ],
      "name": "isApprovedForAll",
      "outputs": [
        {
          "internalType": "bool",
          "name": "",
          "type": "bool"
        }
      ],
      "stateMutability": "view",
      "type": "function",
      "constant": true
    },
    {
      "inputs": [],
      "name": "name",
      "outputs": [
        {
          "internalType": "string",
          "name": "",
          "type": "string"
        }
      ],
      "stateMutability": "view",
      "type": "function",
      "constant": true
    },
    {
      "inputs": [],
      "name": "owner",
      "outputs": [
        {
          "internalType": "address",
          "name": "",
          "type": "address"
        }
      ],
      "stateMutability": "view",
      "type": "function",
      "constant": true
    },
    {
      "inputs": [
        {
          "internalType": "uint256",
          "name": "tokenId",
          "type": "uint256"
        }
      ],
      "name": "ownerOf",
      "outputs": [
        {
          "internalType": "address",
          "name": "",
          "type": "address"
        }
      ],
      "stateMutability": "view",
      "type": "function",
      "constant": true
    },
    {
      "inputs": [],
      "name": "renounceOwnership",
      "outputs": [],
      "stateMutability": "nonpayable",
      "type": "function"
    },
    {
      "inputs": [
        {
          "internalType": "address",
          "name": "from",
          "type": "address"
        },
        {
          "internalType": "address",
          "name": "to",
          "type": "address"
        },
        {
          "internalType": "uint256",
          "name": "tokenId",
          "type": "uint256"
        }
      ],
      "name": "safeTransferFrom",
      "outputs": [],
      "stateMutability": "nonpayable",
      "type": "function"
    },
    {
      "inputs": [
        {
          "internalType": "address",
          "name": "from",
          "type": "address"
        },
        {
          "internalType": "address",
          "name": "to",
          "type": "address"
        },
        {
          "internalType": "uint256",
          "name": "tokenId",
          "type": "uint256"
        },
        {
          "internalType": "bytes",
          "name": "data",
          "type": "bytes"
        }
      ],
      "name": "safeTransferFrom",
      "outputs": [],
      "stateMutability": "nonpayable",
      "type": "function"
    },
    {
      "inputs": [
        {
          "internalType": "address",
          "name": "operator",
          "type": "address"
        },
        {
          "internalType": "bool",
          "name": "approved",
          "type": "bool"
        }
      ],
      "name": "setApprovalForAll",
      "outputs": [],
      "stateMutability": "nonpayable",
      "type": "function"
    },
    {
      "inputs": [
        {
          "internalType": "bytes4",
          "name": "interfaceId",
          "type": "bytes4"
        }
      ],
      "name": "supportsInterface",
      "outputs": [
        {
          "internalType": "bool",
          "name": "",
          "type": "bool"
        }
      ],
      "stateMutability": "view",
      "type": "function",
      "constant": true
    },
    {
      "inputs": [],
      "name": "symbol",
      "outputs": [
        {
          "internalType": "string",
          "name": "",
          "type": "string"
        }
      ],
      "stateMutability": "view",
      "type": "function",
      "constant": true
    },
    {
      "inputs": [],
      "name": "tokenCounter",
      "outputs": [
        {
          "internalType": "uint256",
          "name": "",
          "type": "uint256"
        }
      ],
      "stateMutability": "view",
      "type": "function",
      "constant": true
    },
    {
      "inputs": [
        {
          "internalType": "address",
          "name": "from",
          "type": "address"
        },
        {
          "internalType": "address",
          "name": "to",
          "type": "address"
        },
        {
          "internalType": "uint256",
          "name": "tokenId",
          "type": "uint256"
        }
      ],
      "name": "transferFrom",
      "outputs": [],
      "stateMutability": "nonpayable",
      "type": "function"
    },
    {
      "inputs": [
        {
          "internalType": "address",
          "name": "newOwner",
          "type": "address"
        }
      ],
      "name": "transferOwnership",
      "outputs": [],
      "stateMutability": "nonpayable",
      "type": "function"
    },
    {
      "inputs": [
        {
          "internalType": "string",
          "name": "newBaseURI",
          "type": "string"
        }
      ],
      "name": "setBaseURI",
      "outputs": [],
      "stateMutability": "nonpayable",
      "type": "function"
    },
    {
      "inputs": [
        {
          "internalType": "uint256",
          "name": "tokenId",
          "type": "uint256"
        },
        {
          "internalType": "string",
          "name": "_tokenURI",
          "type": "string"
        }
      ],
      "name": "setTokenURI",
      "outputs": [],
      "stateMutability": "nonpayable",
      "type": "function"
    },
    {
      "inputs": [
        {
          "internalType": "uint256",
          "name": "tokenId",
          "type": "uint256"
        }
      ],
      "name": "tokenURI",
      "outputs": [
        {
          "internalType": "string",
          "name": "",
          "type": "string"
        }
      ],
      "stateMutability": "view",
      "type": "function",
      "constant": true
    },
    {
      "inputs": [
        {
          "internalType": "address",
          "name": "to",
          "type": "address"
        }
      ],
      "name": "testMint",
      "outputs": [],
      "stateMutability": "nonpayable",
      "type": "function"
    }
  ],
  "bytecode": "0x60806040523480156200001157600080fd5b506040518060400160405280600b81526020017f41756374696f6e44656d6f0000000000000000000000000000000000000000008152506040518060400160405280600581526020017f4144454d4f000000000000000000000000000000000000000000000000000000815250816000908051906020019062000096929190620001e0565b508060019080519060200190620000af929190620001e0565b505050620000d2620000c66200011260201b60201c565b6200011a60201b60201c565b60006007819055506040518060800160405280604481526020016200329660449139600990805190602001906200010b929190620001e0565b50620002f5565b600033905090565b6000600660009054906101000a900473ffffffffffffffffffffffffffffffffffffffff16905081600660006101000a81548173ffffffffffffffffffffffffffffffffffffffff021916908373ffffffffffffffffffffffffffffffffffffffff1602179055508173ffffffffffffffffffffffffffffffffffffffff168173ffffffffffffffffffffffffffffffffffffffff167f8be0079c531659141344cd1fd0a4f28419497f9722a3daafe3b4186f6b6457e060405160405180910390a35050565b828054620001ee9062000290565b90600052602060002090601f0160209004810192826200021257600085556200025e565b82601f106200022d57805160ff19168380011785556200025e565b828001600101855582156200025e579182015b828111156200025d57825182559160200191906001019062000240565b5b5090506200026d919062000271565b5090565b5b808211156200028c57600081600090555060010162000272565b5090565b60006002820490506001821680620002a957607f821691505b60208210811415620002c057620002bf620002c6565b5b50919050565b7f4e487b7100000000000000000000000000000000000000000000000000000000600052602260045260246000fd5b612f9180620003056000396000f3fe608060405234801561001057600080fd5b50600436106101375760003560e01c806370a08231116100b8578063b88d4fde1161007c578063b88d4fde14610326578063c70c875a14610342578063c87b56dd1461035e578063d082e3811461038e578063e985e9c5146103ac578063f2fde38b146103dc57610137565b806370a0823114610294578063715018a6146102c45780638da5cb5b146102ce57806395d89b41146102ec578063a22cb4651461030a57610137565b806323b872dd116100ff57806323b872dd146101f257806342842e0e1461020e57806355f804b31461022a5780636352211e146102465780636c0360eb1461027657610137565b806301ffc9a71461013c57806306fdde031461016c578063081812fc1461018a578063095ea7b3146101ba578063162094c4146101d6575b600080fd5b6101566004803603810190610151919061215a565b6103f8565b6040516101639190612651565b60405180910390f35b6101746104da565b604051610181919061266c565b60405180910390f35b6101a4600480360381019061019f91906121ed565b61056c565b6040516101b191906125ea565b60405180910390f35b6101d460048036038101906101cf919061211e565b6105b2565b005b6101f060048036038101906101eb9190612216565b6106ca565b005b61020c60048036038101906102079190612018565b6106e0565b005b61022860048036038101906102239190612018565b610740565b005b610244600480360381019061023f91906121ac565b610760565b005b610260600480360381019061025b91906121ed565b610782565b60405161026d91906125ea565b60405180910390f35b61027e610809565b60405161028b919061266c565b60405180910390f35b6102ae60048036038101906102a99190611fb3565b610897565b6040516102bb919061286e565b60405180910390f35b6102cc61094f565b005b6102d6610963565b6040516102e391906125ea565b60405180910390f35b6102f461098d565b604051610301919061266c565b60405180910390f35b610324600480360381019061031f91906120e2565b610a1f565b005b610340600480360381019061033b9190612067565b610a35565b005b61035c60048036038101906103579190611fb3565b610a97565b005b610378600480360381019061037391906121ed565b610acc565b604051610385919061266c565b60405180910390f35b610396610bfd565b6040516103a3919061286e565b60405180910390f35b6103c660048036038101906103c19190611fdc565b610c03565b6040516103d39190612651565b60405180910390f35b6103f660048036038101906103f19190611fb3565b610c97565b005b60007f80ac58cd000000000000000000000000000000000000000000000000000000007bffffffffffffffffffffffffffffffffffffffffffffffffffffffff1916827bffffffffffffffffffffffffffffffffffffffffffffffffffffffff191614806104c357507f5b5e139f000000000000000000000000000000000000000000000000000000007bffffffffffffffffffffffffffffffffffffffffffffffffffffffff1916827bffffffffffffffffffffffffffffffffffffffffffffffffffffffff1916145b806104d357506104d282610d1b565b5b9050919050565b6060600080546104e990612a1e565b80601f016020809104026020016040519081016040528092919081815260200182805461051590612a1e565b80156105625780601f1061053757610100808354040283529160200191610562565b820191906000526020600020905b81548152906001019060200180831161054557829003601f168201915b5050505050905090565b600061057782610d85565b6004600083815260200190815260200160002060009054906101000a900473ffffffffffffffffffffffffffffffffffffffff169050919050565b60006105bd82610782565b90508073ffffffffffffffffffffffffffffffffffffffff168373ffffffffffffffffffffffffffffffffffffffff16141561062e576040517f08c379a00000000000000000000000000000000000000000000000000000000081526004016106259061282e565b60405180910390fd5b8073ffffffffffffffffffffffffffffffffffffffff1661064d610dd0565b73ffffffffffffffffffffffffffffffffffffffff16148061067c575061067b81610676610dd0565b610c03565b5b6106bb576040517f08c379a00000000000000000000000000000000000000000000000000000000081526004016106b29061284e565b60405180910390fd5b6106c58383610dd8565b505050565b6106d2610e91565b6106dc8282610f0f565b5050565b6106f16106eb610dd0565b82610f83565b610730576040517f08c379a00000000000000000000000000000000000000000000000000000000081526004016107279061268e565b60405180910390fd5b61073b838383611018565b505050565b61075b83838360405180602001604052806000815250610a35565b505050565b610768610e91565b806009908051906020019061077e929190611dd7565b5050565b60008061078e83611312565b9050600073ffffffffffffffffffffffffffffffffffffffff168173ffffffffffffffffffffffffffffffffffffffff161415610800576040517f08c379a00000000000000000000000000000000000000000000000000000000081526004016107f79061280e565b60405180910390fd5b80915050919050565b6009805461081690612a1e565b80601f016020809104026020016040519081016040528092919081815260200182805461084290612a1e565b801561088f5780601f106108645761010080835404028352916020019161088f565b820191906000526020600020905b81548152906001019060200180831161087257829003601f168201915b505050505081565b60008073ffffffffffffffffffffffffffffffffffffffff168273ffffffffffffffffffffffffffffffffffffffff161415610908576040517f08c379a00000000000000000000000000000000000000000000000000000000081526004016108ff9061278e565b60405180910390fd5b600360008373ffffffffffffffffffffffffffffffffffffffff1673ffffffffffffffffffffffffffffffffffffffff168152602001908152602001600020549050919050565b610957610e91565b610961600061134f565b565b6000600660009054906101000a900473ffffffffffffffffffffffffffffffffffffffff16905090565b60606001805461099c90612a1e565b80601f01602080910402602001604051908101604052809291908181526020018280546109c890612a1e565b8015610a155780601f106109ea57610100808354040283529160200191610a15565b820191906000526020600020905b8154815290600101906020018083116109f857829003601f168201915b5050505050905090565b610a31610a2a610dd0565b8383611415565b5050565b610a46610a40610dd0565b83610f83565b610a85576040517f08c379a0000000000000000000000000000000000000000000000000000000008152600401610a7c9061268e565b60405180910390fd5b610a9184848484611582565b50505050565b610a9f610e91565b60006007549050610ab082826115de565b60076000815480929190610ac390612a81565b91905055505050565b6060610ad7826115fc565b610b16576040517f08c379a0000000000000000000000000000000000000000000000000000000008152600401610b0d906126ae565b60405180910390fd5b6000600860008481526020019081526020016000208054610b3690612a1e565b80601f0160208091040260200160405190810160405280929190818152602001828054610b6290612a1e565b8015610baf5780601f10610b8457610100808354040283529160200191610baf565b820191906000526020600020905b815481529060010190602001808311610b9257829003601f168201915b50505050509050600081511115610bc95780915050610bf8565b6009610bd48461163d565b604051602001610be59291906125c6565b6040516020818303038152906040529150505b919050565b60075481565b6000600560008473ffffffffffffffffffffffffffffffffffffffff1673ffffffffffffffffffffffffffffffffffffffff16815260200190815260200160002060008373ffffffffffffffffffffffffffffffffffffffff1673ffffffffffffffffffffffffffffffffffffffff16815260200190815260200160002060009054906101000a900460ff16905092915050565b610c9f610e91565b600073ffffffffffffffffffffffffffffffffffffffff168173ffffffffffffffffffffffffffffffffffffffff161415610d0f576040517f08c379a0000000000000000000000000000000000000000000000000000000008152600401610d06906126ee565b60405180910390fd5b610d188161134f565b50565b60007f01ffc9a7000000000000000000000000000000000000000000000000000000007bffffffffffffffffffffffffffffffffffffffffffffffffffffffff1916827bffffffffffffffffffffffffffffffffffffffffffffffffffffffff1916149050919050565b610d8e816115fc565b610dcd576040517f08c379a0000000000000000000000000000000000000000000000000000000008152600401610dc49061280e565b60405180910390fd5b50565b600033905090565b816004600083815260200190815260200160002060006101000a81548173ffffffffffffffffffffffffffffffffffffffff021916908373ffffffffffffffffffffffffffffffffffffffff160217905550808273ffffffffffffffffffffffffffffffffffffffff16610e4b83610782565b73ffffffffffffffffffffffffffffffffffffffff167f8c5be1e5ebec7d5bd14f71427d1e84f3dd0314c0f7b2291e5b200ac8c7c3b92560405160405180910390a45050565b610e99610dd0565b73ffffffffffffffffffffffffffffffffffffffff16610eb7610963565b73ffffffffffffffffffffffffffffffffffffffff1614610f0d576040517f08c379a0000000000000000000000000000000000000000000000000000000008152600401610f04906127ce565b60405180910390fd5b565b610f18826115fc565b610f57576040517f08c379a0000000000000000000000000000000000000000000000000000000008152600401610f4e906127ee565b60405180910390fd5b80600860008481526020019081526020016000209080519060200190610f7e929190611dd7565b505050565b600080610f8f83610782565b90508073ffffffffffffffffffffffffffffffffffffffff168473ffffffffffffffffffffffffffffffffffffffff161480610fd15750610fd08185610c03565b5b8061100f57508373ffffffffffffffffffffffffffffffffffffffff16610ff78461056c565b73ffffffffffffffffffffffffffffffffffffffff16145b91505092915050565b8273ffffffffffffffffffffffffffffffffffffffff1661103882610782565b73ffffffffffffffffffffffffffffffffffffffff161461108e576040517f08c379a00000000000000000000000000000000000000000000000000000000081526004016110859061270e565b60405180910390fd5b600073ffffffffffffffffffffffffffffffffffffffff168273ffffffffffffffffffffffffffffffffffffffff1614156110fe576040517f08c379a00000000000000000000000000000000000000000000000000000000081526004016110f59061274e565b60405180910390fd5b61110b8383836001611761565b8273ffffffffffffffffffffffffffffffffffffffff1661112b82610782565b73ffffffffffffffffffffffffffffffffffffffff1614611181576040517f08c379a00000000000000000000000000000000000000000000000000000000081526004016111789061270e565b60405180910390fd5b6004600082815260200190815260200160002060006101000a81549073ffffffffffffffffffffffffffffffffffffffff02191690556001600360008573ffffffffffffffffffffffffffffffffffffffff1673ffffffffffffffffffffffffffffffffffffffff168152602001908152602001600020600082825403925050819055506001600360008473ffffffffffffffffffffffffffffffffffffffff1673ffffffffffffffffffffffffffffffffffffffff16815260200190815260200160002060008282540192505081905550816002600083815260200190815260200160002060006101000a81548173ffffffffffffffffffffffffffffffffffffffff021916908373ffffffffffffffffffffffffffffffffffffffff160217905550808273ffffffffffffffffffffffffffffffffffffffff168473ffffffffffffffffffffffffffffffffffffffff167fddf252ad1be2c89b69c2b068fc378daa952ba7f163c4a11628f55a4df523b3ef60405160405180910390a461130d8383836001611767565b505050565b60006002600083815260200190815260200160002060009054906101000a900473ffffffffffffffffffffffffffffffffffffffff169050919050565b6000600660009054906101000a900473ffffffffffffffffffffffffffffffffffffffff16905081600660006101000a81548173ffffffffffffffffffffffffffffffffffffffff021916908373ffffffffffffffffffffffffffffffffffffffff1602179055508173ffffffffffffffffffffffffffffffffffffffff168173ffffffffffffffffffffffffffffffffffffffff167f8be0079c531659141344cd1fd0a4f28419497f9722a3daafe3b4186f6b6457e060405160405180910390a35050565b8173ffffffffffffffffffffffffffffffffffffffff168373ffffffffffffffffffffffffffffffffffffffff161415611484576040517f08c379a000000000000000000000000000000000000000000000000000000000815260040161147b9061276e565b60405180910390fd5b80600560008573ffffffffffffffffffffffffffffffffffffffff1673ffffffffffffffffffffffffffffffffffffffff16815260200190815260200160002060008473ffffffffffffffffffffffffffffffffffffffff1673ffffffffffffffffffffffffffffffffffffffff16815260200190815260200160002060006101000a81548160ff0219169083151502179055508173ffffffffffffffffffffffffffffffffffffffff168373ffffffffffffffffffffffffffffffffffffffff167f17307eab39ab6107e8899845ad3d59bd9653f200f220920489ca2b5937696c31836040516115759190612651565b60405180910390a3505050565b61158d848484611018565b6115998484848461176d565b6115d8576040517f08c379a00000000000000000000000000000000000000000000000000000000081526004016115cf906126ce565b60405180910390fd5b50505050565b6115f8828260405180602001604052806000815250611904565b5050565b60008073ffffffffffffffffffffffffffffffffffffffff1661161e83611312565b73ffffffffffffffffffffffffffffffffffffffff1614159050919050565b60606000600161164c8461195f565b01905060008167ffffffffffffffff811115611691577f4e487b7100000000000000000000000000000000000000000000000000000000600052604160045260246000fd5b6040519080825280601f01601f1916602001820160405280156116c35781602001600182028036833780820191505090505b509050600082602001820190505b600115611756578080600190039150507f3031323334353637383961626364656600000000000000000000000000000000600a86061a8153600a8581611740577f4e487b7100000000000000000000000000000000000000000000000000000000600052601260045260246000fd5b049450600085141561175157611756565b6116d1565b819350505050919050565b50505050565b50505050565b600061178e8473ffffffffffffffffffffffffffffffffffffffff16611b96565b156118f7578373ffffffffffffffffffffffffffffffffffffffff1663150b7a026117b7610dd0565b8786866040518563ffffffff1660e01b81526004016117d99493929190612605565b602060405180830381600087803b1580156117f357600080fd5b505af192505050801561182457506040513d601f19601f820116820180604052508101906118219190612183565b60015b6118a7573d8060008114611854576040519150601f19603f3d011682016040523d82523d6000602084013e611859565b606091505b5060008151141561189f576040517f08c379a0000000000000000000000000000000000000000000000000000000008152600401611896906126ce565b60405180910390fd5b805181602001fd5b63150b7a0260e01b7bffffffffffffffffffffffffffffffffffffffffffffffffffffffff1916817bffffffffffffffffffffffffffffffffffffffffffffffffffffffff1916149150506118fc565b600190505b949350505050565b61190e8383611bb9565b61191b600084848461176d565b61195a576040517f08c379a0000000000000000000000000000000000000000000000000000000008152600401611951906126ce565b60405180910390fd5b505050565b600080600090507a184f03e93ff9f4daa797ed6e38ed64bf6a1f01000000000000000083106119e3577a184f03e93ff9f4daa797ed6e38ed64bf6a1f01000000000000000083816119d9577f4e487b7100000000000000000000000000000000000000000000000000000000600052601260045260246000fd5b0492506040810190505b6d04ee2d6d415b85acef81000000008310611a46576d04ee2d6d415b85acef81000000008381611a3c577f4e487b7100000000000000000000000000000000000000000000000000000000600052601260045260246000fd5b0492506020810190505b662386f26fc100008310611a9b57662386f26fc100008381611a91577f4e487b7100000000000000000000000000000000000000000000000000000000600052601260045260246000fd5b0492506010810190505b6305f5e1008310611aea576305f5e1008381611ae0577f4e487b7100000000000000000000000000000000000000000000000000000000600052601260045260246000fd5b0492506008810190505b6127108310611b35576127108381611b2b577f4e487b7100000000000000000000000000000000000000000000000000000000600052601260045260246000fd5b0492506004810190505b60648310611b7e5760648381611b74577f4e487b7100000000000000000000000000000000000000000000000000000000600052601260045260246000fd5b0492506002810190505b600a8310611b8d576001810190505b80915050919050565b6000808273ffffffffffffffffffffffffffffffffffffffff163b119050919050565b600073ffffffffffffffffffffffffffffffffffffffff168273ffffffffffffffffffffffffffffffffffffffff161415611c29576040517f08c379a0000000000000000000000000000000000000000000000000000000008152600401611c20906127ae565b60405180910390fd5b611c32816115fc565b15611c72576040517f08c379a0000000000000000000000000000000000000000000000000000000008152600401611c699061272e565b60405180910390fd5b611c80600083836001611761565b611c89816115fc565b15611cc9576040517f08c379a0000000000000000000000000000000000000000000000000000000008152600401611cc09061272e565b60405180910390fd5b6001600360008473ffffffffffffffffffffffffffffffffffffffff1673ffffffffffffffffffffffffffffffffffffffff16815260200190815260200160002060008282540192505081905550816002600083815260200190815260200160002060006101000a81548173ffffffffffffffffffffffffffffffffffffffff021916908373ffffffffffffffffffffffffffffffffffffffff160217905550808273ffffffffffffffffffffffffffffffffffffffff16600073ffffffffffffffffffffffffffffffffffffffff167fddf252ad1be2c89b69c2b068fc378daa952ba7f163c4a11628f55a4df523b3ef60405160405180910390a4611dd3600083836001611767565b5050565b828054611de390612a1e565b90600052602060002090601f016020900481019282611e055760008555611e4c565b82601f10611e1e57805160ff1916838001178555611e4c565b82800160010185558215611e4c579182015b82811115611e4b578251825591602001919060010190611e30565b5b509050611e599190611e5d565b5090565b5b80821115611e76576000816000905550600101611e5e565b5090565b6000611e8d611e88846128ae565b612889565b905082815260208101848484011115611ea557600080fd5b611eb08482856129dc565b509392505050565b6000611ecb611ec6846128df565b612889565b905082815260208101848484011115611ee357600080fd5b611eee8482856129dc565b509392505050565b600081359050611f0581612eff565b92915050565b600081359050611f1a81612f16565b92915050565b600081359050611f2f81612f2d565b92915050565b600081519050611f4481612f2d565b92915050565b600082601f830112611f5b57600080fd5b8135611f6b848260208601611e7a565b91505092915050565b600082601f830112611f8557600080fd5b8135611f95848260208601611eb8565b91505092915050565b600081359050611fad81612f44565b92915050565b600060208284031215611fc557600080fd5b6000611fd384828501611ef6565b91505092915050565b60008060408385031215611fef57600080fd5b6000611ffd85828601611ef6565b925050602061200e85828601611ef6565b9150509250929050565b60008060006060848603121561202d57600080fd5b600061203b86828701611ef6565b935050602061204c86828701611ef6565b925050604061205d86828701611f9e565b9150509250925092565b6000806000806080858703121561207d57600080fd5b600061208b87828801611ef6565b945050602061209c87828801611ef6565b93505060406120ad87828801611f9e565b925050606085013567ffffffffffffffff8111156120ca57600080fd5b6120d687828801611f4a565b91505092959194509250565b600080604083850312156120f557600080fd5b600061210385828601611ef6565b925050602061211485828601611f0b565b9150509250929050565b6000806040838503121561213157600080fd5b600061213f85828601611ef6565b925050602061215085828601611f9e565b9150509250929050565b60006020828403121561216c57600080fd5b600061217a84828501611f20565b91505092915050565b60006020828403121561219557600080fd5b60006121a384828501611f35565b91505092915050565b6000602082840312156121be57600080fd5b600082013567ffffffffffffffff8111156121d857600080fd5b6121e484828501611f74565b91505092915050565b6000602082840312156121ff57600080fd5b600061220d84828501611f9e565b91505092915050565b6000806040838503121561222957600080fd5b600061223785828601611f9e565b925050602083013567ffffffffffffffff81111561225457600080fd5b61226085828601611f74565b9150509250929050565b61227381612968565b82525050565b6122828161297a565b82525050565b600061229382612925565b61229d818561293b565b93506122ad8185602086016129eb565b6122b681612b57565b840191505092915050565b60006122cc82612930565b6122d6818561294c565b93506122e68185602086016129eb565b6122ef81612b57565b840191505092915050565b600061230582612930565b61230f818561295d565b935061231f8185602086016129eb565b80840191505092915050565b6000815461233881612a1e565b612342818661295d565b9450600182166000811461235d576001811461236e576123a1565b60ff198316865281860193506123a1565b61237785612910565b60005b838110156123995781548189015260018201915060208101905061237a565b838801955050505b50505092915050565b60006123b7602d8361294c565b91506123c282612b68565b604082019050919050565b60006123da601f8361294c565b91506123e582612bb7565b602082019050919050565b60006123fd60328361294c565b915061240882612be0565b604082019050919050565b600061242060268361294c565b915061242b82612c2f565b604082019050919050565b600061244360258361294c565b915061244e82612c7e565b604082019050919050565b6000612466601c8361294c565b915061247182612ccd565b602082019050919050565b600061248960248361294c565b915061249482612cf6565b604082019050919050565b60006124ac60198361294c565b91506124b782612d45565b602082019050919050565b60006124cf60298361294c565b91506124da82612d6e565b604082019050919050565b60006124f260208361294c565b91506124fd82612dbd565b602082019050919050565b600061251560208361294c565b915061252082612de6565b602082019050919050565b6000612538601c8361294c565b915061254382612e0f565b602082019050919050565b600061255b60188361294c565b915061256682612e38565b602082019050919050565b600061257e60218361294c565b915061258982612e61565b604082019050919050565b60006125a1603d8361294c565b91506125ac82612eb0565b604082019050919050565b6125c0816129d2565b82525050565b60006125d2828561232b565b91506125de82846122fa565b91508190509392505050565b60006020820190506125ff600083018461226a565b92915050565b600060808201905061261a600083018761226a565b612627602083018661226a565b61263460408301856125b7565b81810360608301526126468184612288565b905095945050505050565b60006020820190506126666000830184612279565b92915050565b6000602082019050818103600083015261268681846122c1565b905092915050565b600060208201905081810360008301526126a7816123aa565b9050919050565b600060208201905081810360008301526126c7816123cd565b9050919050565b600060208201905081810360008301526126e7816123f0565b9050919050565b6000602082019050818103600083015261270781612413565b9050919050565b6000602082019050818103600083015261272781612436565b9050919050565b6000602082019050818103600083015261274781612459565b9050919050565b600060208201905081810360008301526127678161247c565b9050919050565b600060208201905081810360008301526127878161249f565b9050919050565b600060208201905081810360008301526127a7816124c2565b9050919050565b600060208201905081810360008301526127c7816124e5565b9050919050565b600060208201905081810360008301526127e781612508565b9050919050565b600060208201905081810360008301526128078161252b565b9050919050565b600060208201905081810360008301526128278161254e565b9050919050565b6000602082019050818103600083015261284781612571565b9050919050565b6000602082019050818103600083015261286781612594565b9050919050565b600060208201905061288360008301846125b7565b92915050565b60006128936128a4565b905061289f8282612a50565b919050565b6000604051905090565b600067ffffffffffffffff8211156128c9576128c8612b28565b5b6128d282612b57565b9050602081019050919050565b600067ffffffffffffffff8211156128fa576128f9612b28565b5b61290382612b57565b9050602081019050919050565b60008190508160005260206000209050919050565b600081519050919050565b600081519050919050565b600082825260208201905092915050565b600082825260208201905092915050565b600081905092915050565b6000612973826129b2565b9050919050565b60008115159050919050565b60007fffffffff0000000000000000000000000000000000000000000000000000000082169050919050565b600073ffffffffffffffffffffffffffffffffffffffff82169050919050565b6000819050919050565b82818337600083830152505050565b60005b83811015612a095780820151818401526020810190506129ee565b83811115612a18576000848401525b50505050565b60006002820490506001821680612a3657607f821691505b60208210811415612a4a57612a49612af9565b5b50919050565b612a5982612b57565b810181811067ffffffffffffffff82111715612a7857612a77612b28565b5b80604052505050565b6000612a8c826129d2565b91507fffffffffffffffffffffffffffffffffffffffffffffffffffffffffffffffff821415612abf57612abe612aca565b5b600182019050919050565b7f4e487b7100000000000000000000000000000000000000000000000000000000600052601160045260246000fd5b7f4e487b7100000000000000000000000000000000000000000000000000000000600052602260045260246000fd5b7f4e487b7100000000000000000000000000000000000000000000000000000000600052604160045260246000fd5b6000601f19601f8301169050919050565b7f4552433732313a2063616c6c6572206973206e6f7420746f6b656e206f776e6560008201527f72206f7220617070726f76656400000000000000000000000000000000000000602082015250565b7f55524920717565727920666f72206e6f6e6578697374656e7420746f6b656e00600082015250565b7f4552433732313a207472616e7366657220746f206e6f6e20455243373231526560008201527f63656976657220696d706c656d656e7465720000000000000000000000000000602082015250565b7f4f776e61626c653a206e6577206f776e657220697320746865207a65726f206160008201527f6464726573730000000000000000000000000000000000000000000000000000602082015250565b7f4552433732313a207472616e736665722066726f6d20696e636f72726563742060008201527f6f776e6572000000000000000000000000000000000000000000000000000000602082015250565b7f4552433732313a20746f6b656e20616c7265616479206d696e74656400000000600082015250565b7f4552433732313a207472616e7366657220746f20746865207a65726f2061646460008201527f7265737300000000000000000000000000000000000000000000000000000000602082015250565b7f4552433732313a20617070726f766520746f2063616c6c657200000000000000600082015250565b7f4552433732313a2061646472657373207a65726f206973206e6f74206120766160008201527f6c6964206f776e65720000000000000000000000000000000000000000000000602082015250565b7f4552433732313a206d696e7420746f20746865207a65726f2061646472657373600082015250565b7f4f776e61626c653a2063616c6c6572206973206e6f7420746865206f776e6572600082015250565b7f55524920736574206f66206e6f6e6578697374656e7420746f6b656e00000000600082015250565b7f4552433732313a20696e76616c696420746f6b656e2049440000000000000000600082015250565b7f4552433732313a20617070726f76616c20746f2063757272656e74206f776e6560008201527f7200000000000000000000000000000000000000000000000000000000000000602082015250565b7f4552433732313a20617070726f76652063616c6c6572206973206e6f7420746f60008201527f6b656e206f776e6572206f7220617070726f76656420666f7220616c6c000000602082015250565b612f0881612968565b8114612f1357600080fd5b50565b612f1f8161297a565b8114612f2a57600080fd5b50565b612f3681612986565b8114612f4157600080fd5b50565b612f4d816129d2565b8114612f5857600080fd5b5056fea2646970667358221220932cc0c3f19aafa19a4df06d375e4a43d7398364b468f253a8e53d0029826c1164736f6c6343000801003368747470733a2f2f697066732e696f2f697066732f516d554e4c4c73504143437a31764c7851566b5871714c5835523158333435717166486273663637687641334e6e2f",
  "immutableReferences": {},
  "source": "// SPDX-License-Identifier: MIT\r\npragma solidity ^0.8.0;\r\n\r\nimport \"@openzeppelin/contracts/token/ERC721/ERC721.sol\";\r\nimport \"@openzeppelin/contracts/access/Ownable.sol\";\r\nimport \"@openzeppelin/contracts/utils/Strings.sol\";\r\n\r\ncontract NFTMinting is ERC721, Ownable {\r\n    using Strings for uint256;\r\n\r\n    uint256 public tokenCounter;\r\n    mapping(uint256 => string) private _tokenURIs;\r\n    \r\n    // Base URI for metadata\r\n    string public baseURI;\r\n\r\n    constructor() ERC721(\"AuctionDemo\", \"ADEMO\") {\r\n        tokenCounter = 0;\r\n        baseURI = \"https://ipfs.io/ipfs/QmUNLLsPACCz1vLxQVkXqqLX5R1X345qqfHbsf67hvA3Nn/\";\r\n    }\r\n\r\n    // Hm  ci t URI cho token\r\n    function _setTokenURI(uint256 tokenId, string memory _tokenURI) internal virtual {\r\n        require(_exists(tokenId), \"URI set of nonexistent token\");\r\n        _tokenURIs[tokenId] = _tokenURI;\r\n    }\r\n    \r\n    function setBaseURI(string memory newBaseURI) public onlyOwner {\r\n        baseURI = newBaseURI;\r\n    }\r\n    \r\n    // Add a public function that can be called from migration script\r\n    function setTokenURI(uint256 tokenId, string memory _tokenURI) public onlyOwner {\r\n        _setTokenURI(tokenId, _tokenURI);\r\n    }\r\n\r\n    // Ly URI ca token\r\n    function tokenURI(\r\n        uint256 tokenId\r\n    ) public view virtual override returns (string memory) {\r\n        require(_exists(tokenId), \"URI query for nonexistent token\");\r\n        \r\n        string memory _tokenURI = _tokenURIs[tokenId];\r\n        \r\n        // If token URI is set, return it\r\n        if (bytes(_tokenURI).length > 0) {\r\n            return _tokenURI;\r\n        }\r\n        \r\n        // If not, return the combination of base URI and token ID\r\n        return string(abi.encodePacked(baseURI, Strings.toString(tokenId)));\r\n    }\r\n    \r\n    // Test mint function for testing only\r\n    function testMint(address to) public onlyOwner {\r\n        uint256 newTokenId = tokenCounter;\r\n        _safeMint(to, newTokenId);\r\n        // Don't set URI here, let the migration script do it\r\n        tokenCounter++;\r\n    }\r\n}\r\n",
  "sourcePath": "D:\\Users\\trieunth\\Desktop\\Team_Work\\BlockchainBTL\\blockchain-auction\\contracts\\NFTMinting.sol",
  "compiler": {
    "name": "solc",
    "version": "0.8.1+commit.df193b15.Emscripten.clang"
  },
  "schemaVersion": "3.4.16",
  "updatedAt": "2025-03-20T19:52:21.604Z",
  "networkType": "ethereum",
  "devdoc": {
    "kind": "dev",
    "methods": {
      "approve(address,uint256)": {
        "details": "See {IERC721-approve}."
      },
      "balanceOf(address)": {
        "details": "See {IERC721-balanceOf}."
      },
      "getApproved(uint256)": {
        "details": "See {IERC721-getApproved}."
      },
      "isApprovedForAll(address,address)": {
        "details": "See {IERC721-isApprovedForAll}."
      },
      "name()": {
        "details": "See {IERC721Metadata-name}."
      },
      "owner()": {
        "details": "Returns the address of the current owner."
      },
      "ownerOf(uint256)": {
        "details": "See {IERC721-ownerOf}."
      },
      "renounceOwnership()": {
        "details": "Leaves the contract without owner. It will not be possible to call `onlyOwner` functions. Can only be called by the current owner. NOTE: Renouncing ownership will leave the contract without an owner, thereby disabling any functionality that is only available to the owner."
      },
      "safeTransferFrom(address,address,uint256)": {
        "details": "See {IERC721-safeTransferFrom}."
      },
      "safeTransferFrom(address,address,uint256,bytes)": {
        "details": "See {IERC721-safeTransferFrom}."
      },
      "setApprovalForAll(address,bool)": {
        "details": "See {IERC721-setApprovalForAll}."
      },
      "supportsInterface(bytes4)": {
        "details": "See {IERC165-supportsInterface}."
      },
      "symbol()": {
        "details": "See {IERC721Metadata-symbol}."
      },
      "tokenURI(uint256)": {
        "details": "See {IERC721Metadata-tokenURI}."
      },
      "transferFrom(address,address,uint256)": {
        "details": "See {IERC721-transferFrom}."
      },
      "transferOwnership(address)": {
        "details": "Transfers ownership of the contract to a new account (`newOwner`). Can only be called by the current owner."
      }
    },
    "version": 1
  },
  "userdoc": {
    "kind": "user",
    "methods": {},
    "version": 1
  }
}