{
  "contractName": "NFTVerifier",
  "abi": [
    {
      "inputs": [],
      "stateMutability": "nonpayable",
      "type": "constructor"
    },
    {
      "anonymous": false,
      "inputs": [
        {
          "indexed": false,
          "internalType": "uint256",
          "name": "tokenId",
          "type": "uint256"
        },
        {
          "indexed": false,
          "internalType": "address",
          "name": "verifier",
          "type": "address"
        },
        {
          "indexed": false,
          "internalType": "string",
          "name": "reason",
          "type": "string"
        }
      ],
      "name": "NFTRejected",
      "type": "event"
    },
    {
      "anonymous": false,
      "inputs": [
        {
          "indexed": false,
          "internalType": "uint256",
          "name": "tokenId",
          "type": "uint256"
        },
        {
          "indexed": false,
          "internalType": "address",
          "name": "verifier",
          "type": "address"
        },
        {
          "indexed": false,
          "internalType": "string",
          "name": "reason",
          "type": "string"
        }
      ],
      "name": "NFTVerified",
      "type": "event"
    },
    {
      "anonymous": false,
      "inputs": [
        {
          "indexed": false,
          "internalType": "uint256",
          "name": "tokenId",
          "type": "uint256"
        },
        {
          "indexed": false,
          "internalType": "address",
          "name": "requester",
          "type": "address"
        }
      ],
      "name": "VerificationRequested",
      "type": "event"
    },
    {
      "anonymous": false,
      "inputs": [
        {
          "indexed": false,
          "internalType": "address",
          "name": "verifier",
          "type": "address"
        }
      ],
      "name": "VerifierAdded",
      "type": "event"
    },
    {
      "anonymous": false,
      "inputs": [
        {
          "indexed": false,
          "internalType": "address",
          "name": "verifier",
          "type": "address"
        }
      ],
      "name": "VerifierRemoved",
      "type": "event"
    },
    {
      "inputs": [],
      "name": "owner",
      "outputs": [
        {
          "internalType": "address",
          "name": "",
          "type": "address"
        }
      ],
      "stateMutability": "view",
      "type": "function",
      "constant": true
    },
    {
      "inputs": [
        {
          "internalType": "uint256",
          "name": "",
          "type": "uint256"
        }
      ],
      "name": "pendingRequests",
      "outputs": [
        {
          "internalType": "uint256",
          "name": "",
          "type": "uint256"
        }
      ],
      "stateMutability": "view",
      "type": "function",
      "constant": true
    },
    {
      "inputs": [
        {
          "internalType": "uint256",
          "name": "",
          "type": "uint256"
        }
      ],
      "name": "verificationReasons",
      "outputs": [
        {
          "internalType": "string",
          "name": "",
          "type": "string"
        }
      ],
      "stateMutability": "view",
      "type": "function",
      "constant": true
    },
    {
      "inputs": [
        {
          "internalType": "uint256",
          "name": "",
          "type": "uint256"
        }
      ],
      "name": "verificationRequests",
      "outputs": [
        {
          "internalType": "address",
          "name": "requester",
          "type": "address"
        },
        {
          "internalType": "uint256",
          "name": "tokenId",
          "type": "uint256"
        },
        {
          "internalType": "enum NFTVerifier.VerificationStatus",
          "name": "status",
          "type": "uint8"
        },
        {
          "internalType": "string",
          "name": "reason",
          "type": "string"
        },
        {
          "internalType": "uint256",
          "name": "requestTime",
          "type": "uint256"
        }
      ],
      "stateMutability": "view",
      "type": "function",
      "constant": true
    },
    {
      "inputs": [
        {
          "internalType": "uint256",
          "name": "",
          "type": "uint256"
        }
      ],
      "name": "verifiedNFTs",
      "outputs": [
        {
          "internalType": "bool",
          "name": "",
          "type": "bool"
        }
      ],
      "stateMutability": "view",
      "type": "function",
      "constant": true
    },
    {
      "inputs": [
        {
          "internalType": "address",
          "name": "",
          "type": "address"
        }
      ],
      "name": "verifiers",
      "outputs": [
        {
          "internalType": "bool",
          "name": "",
          "type": "bool"
        }
      ],
      "stateMutability": "view",
      "type": "function",
      "constant": true
    },
    {
      "inputs": [
        {
          "internalType": "address",
          "name": "_verifier",
          "type": "address"
        }
      ],
      "name": "addVerifier",
      "outputs": [],
      "stateMutability": "nonpayable",
      "type": "function"
    },
    {
      "inputs": [
        {
          "internalType": "address",
          "name": "_verifier",
          "type": "address"
        }
      ],
      "name": "removeVerifier",
      "outputs": [],
      "stateMutability": "nonpayable",
      "type": "function"
    },
    {
      "inputs": [
        {
          "internalType": "uint256",
          "name": "_tokenId",
          "type": "uint256"
        }
      ],
      "name": "requestVerification",
      "outputs": [],
      "stateMutability": "nonpayable",
      "type": "function"
    },
    {
      "inputs": [
        {
          "internalType": "uint256",
          "name": "_tokenId",
          "type": "uint256"
        },
        {
          "internalType": "string",
          "name": "_reason",
          "type": "string"
        }
      ],
      "name": "verifyNFT",
      "outputs": [],
      "stateMutability": "nonpayable",
      "type": "function"
    },
    {
      "inputs": [
        {
          "internalType": "uint256",
          "name": "_tokenId",
          "type": "uint256"
        },
        {
          "internalType": "string",
          "name": "_reason",
          "type": "string"
        }
      ],
      "name": "rejectNFT",
      "outputs": [],
      "stateMutability": "nonpayable",
      "type": "function"
    },
    {
      "inputs": [
        {
          "internalType": "uint256",
          "name": "_tokenId",
          "type": "uint256"
        }
      ],
      "name": "isNFTVerified",
      "outputs": [
        {
          "internalType": "bool",
          "name": "",
          "type": "bool"
        }
      ],
      "stateMutability": "view",
      "type": "function",
      "constant": true
    },
    {
      "inputs": [
        {
          "internalType": "uint256",
          "name": "_tokenId",
          "type": "uint256"
        }
      ],
      "name": "getVerificationReason",
      "outputs": [
        {
          "internalType": "string",
          "name": "",
          "type": "string"
        }
      ],
      "stateMutability": "view",
      "type": "function",
      "constant": true
    },
    {
      "inputs": [],
      "name": "getPendingRequests",
      "outputs": [
        {
          "internalType": "uint256[]",
          "name": "",
          "type": "uint256[]"
        }
      ],
      "stateMutability": "view",
      "type": "function",
      "constant": true
    },
    {
      "inputs": [
        {
          "internalType": "uint256",
          "name": "_tokenId",
          "type": "uint256"
        }
      ],
      "name": "getVerificationRequest",
      "outputs": [
        {
          "internalType": "address",
          "name": "requester",
          "type": "address"
        },
        {
          "internalType": "uint256",
          "name": "tokenId",
          "type": "uint256"
        },
        {
          "internalType": "enum NFTVerifier.VerificationStatus",
          "name": "status",
          "type": "uint8"
        },
        {
          "internalType": "string",
          "name": "reason",
          "type": "string"
        },
        {
          "internalType": "uint256",
          "name": "requestTime",
          "type": "uint256"
        }
      ],
      "stateMutability": "view",
      "type": "function",
      "constant": true
    },
    {
      "inputs": [
        {
          "internalType": "uint256",
          "name": "_tokenId",
          "type": "uint256"
        }
      ],
      "name": "getVerificationStatus",
      "outputs": [
        {
          "internalType": "enum NFTVerifier.VerificationStatus",
          "name": "",
          "type": "uint8"
        }
      ],
      "stateMutability": "view",
      "type": "function",
      "constant": true
    },
    {
      "inputs": [
        {
          "internalType": "address",
          "name": "_address",
          "type": "address"
        }
      ],
      "name": "isVerifier",
      "outputs": [
        {
          "internalType": "bool",
          "name": "",
          "type": "bool"
        }
      ],
      "stateMutability": "view",
      "type": "function",
      "constant": true
    },
    {
      "inputs": [],
      "name": "getAllVerifiers",
      "outputs": [
        {
          "internalType": "address[]",
          "name": "",
          "type": "address[]"
        }
      ],
      "stateMutability": "view",
      "type": "function",
      "constant": true
    }
  ],
  "bytecode": "0x608060405234801561001057600080fd5b50336000806101000a81548173ffffffffffffffffffffffffffffffffffffffff021916908373ffffffffffffffffffffffffffffffffffffffff16021790555060018060003373ffffffffffffffffffffffffffffffffffffffff1673ffffffffffffffffffffffffffffffffffffffff16815260200190815260200160002060006101000a81548160ff0219169083151502179055506125e8806100b76000396000f3fe608060405234801561001057600080fd5b50600436106101165760003560e01c80636c824487116100a2578063af8d155511610071578063af8d155514610333578063ca2dfd0a14610351578063d7a3100e1461036d578063eb2ea1f11461039d578063fdb3b213146103b957610116565b80636c824487146102ab57806380a1f712146102db5780638da5cb5b146102f95780639000b3d61461031757610116565b80632c2b54f4116100e95780632c2b54f4146101cb57806333105218146101fb5780633c652a9a1461022b5780634089d49f1461025b5780636bc2bfa91461028f57610116565b80630c020f081461011b578063164314b4146101375780631d9425ca1461016757806322ccb47414610197575b600080fd5b61013560048036038101906101309190611acf565b6103e9565b005b610151600480360381019061014c9190611acf565b6106f9565b60405161015e9190611ed2565b60405180910390f35b610181600480360381019061017c9190611acf565b61079e565b60405161018e9190611eb7565b60405180910390f35b6101b160048036038101906101ac9190611acf565b6107cb565b6040516101c2959493929190611dfe565b60405180910390f35b6101e560048036038101906101e09190611acf565b6109a5565b6040516101f29190611e9c565b60405180910390f35b61021560048036038101906102109190611aa6565b6109cf565b6040516102229190611e9c565b60405180910390f35b61024560048036038101906102409190611acf565b610a25565b6040516102529190611ff4565b60405180910390f35b61027560048036038101906102709190611acf565b610a49565b604051610286959493929190611dfe565b60405180910390f35b6102a960048036038101906102a49190611af8565b610b34565b005b6102c560048036038101906102c09190611aa6565b610dc2565b6040516102d29190611e9c565b60405180910390f35b6102e3610de2565b6040516102f09190611e7a565b60405180910390f35b610301610e3a565b60405161030e9190611de3565b60405180910390f35b610331600480360381019061032c9190611aa6565b610e5e565b005b61033b61107a565b6040516103489190611e58565b60405180910390f35b61036b60048036038101906103669190611aa6565b611284565b005b61038760048036038101906103829190611acf565b6114bf565b6040516103949190611e9c565b60405180910390f35b6103b760048036038101906103b29190611af8565b6114df565b005b6103d360048036038101906103ce9190611acf565b61176d565b6040516103e09190611ed2565b60405180910390f35b600073ffffffffffffffffffffffffffffffffffffffff166004600083815260200190815260200160002060000160009054906101000a900473ffffffffffffffffffffffffffffffffffffffff1673ffffffffffffffffffffffffffffffffffffffff161461052b576000600281111561048d577f4e487b7100000000000000000000000000000000000000000000000000000000600052602160045260246000fd5b6004600083815260200190815260200160002060020160009054906101000a900460ff1660028111156104e9577f4e487b7100000000000000000000000000000000000000000000000000000000600052602160045260246000fd5b141561052a576040517f08c379a000000000000000000000000000000000000000000000000000000000815260040161052190611f74565b60405180910390fd5b5b6040518060a001604052803373ffffffffffffffffffffffffffffffffffffffff16815260200182815260200160006002811115610592577f4e487b7100000000000000000000000000000000000000000000000000000000600052602160045260246000fd5b8152602001604051806020016040528060008152508152602001428152506004600083815260200190815260200160002060008201518160000160006101000a81548173ffffffffffffffffffffffffffffffffffffffff021916908373ffffffffffffffffffffffffffffffffffffffff1602179055506020820151816001015560408201518160020160006101000a81548160ff02191690836002811115610665577f4e487b7100000000000000000000000000000000000000000000000000000000600052602160045260246000fd5b02179055506060820151816003019080519060200190610686929190611971565b506080820151816004015590505060058190806001815401808255809150506001900390600052602060002001600090919091909150557fa3cac7c72dca9bd0861f2c164c8f3b00e8a9db7c0539ea939c9db9bbda01afc681336040516106ee92919061200f565b60405180910390a150565b60606003600083815260200190815260200160002080546107199061223d565b80601f01602080910402602001604051908101604052809291908181526020018280546107459061223d565b80156107925780601f1061076757610100808354040283529160200191610792565b820191906000526020600020905b81548152906001019060200180831161077557829003601f168201915b50505050509050919050565b60006004600083815260200190815260200160002060020160009054906101000a900460ff169050919050565b60008060006060600080600460008881526020019081526020016000206040518060a00160405290816000820160009054906101000a900473ffffffffffffffffffffffffffffffffffffffff1673ffffffffffffffffffffffffffffffffffffffff1673ffffffffffffffffffffffffffffffffffffffff168152602001600182015481526020016002820160009054906101000a900460ff16600281111561089e577f4e487b7100000000000000000000000000000000000000000000000000000000600052602160045260246000fd5b60028111156108d6577f4e487b7100000000000000000000000000000000000000000000000000000000600052602160045260246000fd5b81526020016003820180546108ea9061223d565b80601f01602080910402602001604051908101604052809291908181526020018280546109169061223d565b80156109635780601f1061093857610100808354040283529160200191610963565b820191906000526020600020905b81548152906001019060200180831161094657829003601f168201915b50505050508152602001600482015481525050905080600001518160200151826040015183606001518460800151955095509550955095505091939590929450565b60006002600083815260200190815260200160002060009054906101000a900460ff169050919050565b6000600160008373ffffffffffffffffffffffffffffffffffffffff1673ffffffffffffffffffffffffffffffffffffffff16815260200190815260200160002060009054906101000a900460ff169050919050565b60058181548110610a3557600080fd5b906000526020600020016000915090505481565b60046020528060005260406000206000915090508060000160009054906101000a900473ffffffffffffffffffffffffffffffffffffffff16908060010154908060020160009054906101000a900460ff1690806003018054610aab9061223d565b80601f0160208091040260200160405190810160405280929190818152602001828054610ad79061223d565b8015610b245780601f10610af957610100808354040283529160200191610b24565b820191906000526020600020905b815481529060010190602001808311610b0757829003601f168201915b5050505050908060040154905085565b600160003373ffffffffffffffffffffffffffffffffffffffff1673ffffffffffffffffffffffffffffffffffffffff16815260200190815260200160002060009054906101000a900460ff16610bc0576040517f08c379a0000000000000000000000000000000000000000000000000000000008152600401610bb790611f34565b60405180910390fd5b60006002811115610bfa577f4e487b7100000000000000000000000000000000000000000000000000000000600052602160045260246000fd5b6004600084815260200190815260200160002060020160009054906101000a900460ff166002811115610c56577f4e487b7100000000000000000000000000000000000000000000000000000000600052602160045260246000fd5b14610c96576040517f08c379a0000000000000000000000000000000000000000000000000000000008152600401610c8d90611fb4565b60405180910390fd5b60006002600084815260200190815260200160002060006101000a81548160ff02191690831515021790555080600360008481526020019081526020016000209080519060200190610ce9929190611971565b5060026004600084815260200190815260200160002060020160006101000a81548160ff02191690836002811115610d4a577f4e487b7100000000000000000000000000000000000000000000000000000000600052602160045260246000fd5b021790555080600460008481526020019081526020016000206003019080519060200190610d79929190611971565b50610d838261180d565b7f8f3cb6748aa5acd076bb665087df80196776af41df13ba603d94c25adcff3fea823383604051610db693929190612038565b60405180910390a15050565b60016020528060005260406000206000915054906101000a900460ff1681565b60606005805480602002602001604051908101604052809291908181526020018280548015610e3057602002820191906000526020600020905b815481526020019060010190808311610e1c575b5050505050905090565b60008054906101000a900473ffffffffffffffffffffffffffffffffffffffff1681565b60008054906101000a900473ffffffffffffffffffffffffffffffffffffffff1673ffffffffffffffffffffffffffffffffffffffff163373ffffffffffffffffffffffffffffffffffffffff1614610eec576040517f08c379a0000000000000000000000000000000000000000000000000000000008152600401610ee390611f14565b60405180910390fd5b600073ffffffffffffffffffffffffffffffffffffffff168173ffffffffffffffffffffffffffffffffffffffff161415610f5c576040517f08c379a0000000000000000000000000000000000000000000000000000000008152600401610f5390611ef4565b60405180910390fd5b600160008273ffffffffffffffffffffffffffffffffffffffff1673ffffffffffffffffffffffffffffffffffffffff16815260200190815260200160002060009054906101000a900460ff1615610fe9576040517f08c379a0000000000000000000000000000000000000000000000000000000008152600401610fe090611f54565b60405180910390fd5b60018060008373ffffffffffffffffffffffffffffffffffffffff1673ffffffffffffffffffffffffffffffffffffffff16815260200190815260200160002060006101000a81548160ff0219169083151502179055507f6d05492139c5ea989514a5d2150c028041e5c087e2a39967f67dc7d2655adb818160405161106f9190611de3565b60405180910390a150565b6060600080600190505b60648111611106576000819050600160008273ffffffffffffffffffffffffffffffffffffffff1673ffffffffffffffffffffffffffffffffffffffff16815260200190815260200160002060009054906101000a900460ff16156110f25782806110ee906122a0565b9350505b5080806110fe906122a0565b915050611084565b5060008167ffffffffffffffff811115611149577f4e487b7100000000000000000000000000000000000000000000000000000000600052604160045260246000fd5b6040519080825280602002602001820160405280156111775781602001602082028036833780820191505090505b509050600091506000600190505b6064811161127b576000819050600160008273ffffffffffffffffffffffffffffffffffffffff1673ffffffffffffffffffffffffffffffffffffffff16815260200190815260200160002060009054906101000a900460ff1615611267578083858151811061121e577f4e487b7100000000000000000000000000000000000000000000000000000000600052603260045260246000fd5b602002602001019073ffffffffffffffffffffffffffffffffffffffff16908173ffffffffffffffffffffffffffffffffffffffff16815250508380611263906122a0565b9450505b508080611273906122a0565b915050611185565b50809250505090565b60008054906101000a900473ffffffffffffffffffffffffffffffffffffffff1673ffffffffffffffffffffffffffffffffffffffff163373ffffffffffffffffffffffffffffffffffffffff1614611312576040517f08c379a000000000000000000000000000000000000000000000000000000000815260040161130990611f14565b60405180910390fd5b600160008273ffffffffffffffffffffffffffffffffffffffff1673ffffffffffffffffffffffffffffffffffffffff16815260200190815260200160002060009054906101000a900460ff1661139e576040517f08c379a000000000000000000000000000000000000000000000000000000000815260040161139590611f94565b60405180910390fd5b60008054906101000a900473ffffffffffffffffffffffffffffffffffffffff1673ffffffffffffffffffffffffffffffffffffffff168173ffffffffffffffffffffffffffffffffffffffff16141561142d576040517f08c379a000000000000000000000000000000000000000000000000000000000815260040161142490611fd4565b60405180910390fd5b6000600160008373ffffffffffffffffffffffffffffffffffffffff1673ffffffffffffffffffffffffffffffffffffffff16815260200190815260200160002060006101000a81548160ff0219169083151502179055507f44a3cd4eb5cc5748f6169df057b1cb2ae4c383e87cd94663c430e095d4cba424816040516114b49190611de3565b60405180910390a150565b60026020528060005260406000206000915054906101000a900460ff1681565b600160003373ffffffffffffffffffffffffffffffffffffffff1673ffffffffffffffffffffffffffffffffffffffff16815260200190815260200160002060009054906101000a900460ff1661156b576040517f08c379a000000000000000000000000000000000000000000000000000000000815260040161156290611f34565b60405180910390fd5b600060028111156115a5577f4e487b7100000000000000000000000000000000000000000000000000000000600052602160045260246000fd5b6004600084815260200190815260200160002060020160009054906101000a900460ff166002811115611601577f4e487b7100000000000000000000000000000000000000000000000000000000600052602160045260246000fd5b14611641576040517f08c379a000000000000000000000000000000000000000000000000000000000815260040161163890611fb4565b60405180910390fd5b60016002600084815260200190815260200160002060006101000a81548160ff02191690831515021790555080600360008481526020019081526020016000209080519060200190611694929190611971565b5060016004600084815260200190815260200160002060020160006101000a81548160ff021916908360028111156116f5577f4e487b7100000000000000000000000000000000000000000000000000000000600052602160045260246000fd5b021790555080600460008481526020019081526020016000206003019080519060200190611724929190611971565b5061172e8261180d565b7f5e3daee0f72af82c4482cde60f4ea974f2679e67d898426d88685713cefd81b382338360405161176193929190612038565b60405180910390a15050565b6003602052806000526040600020600091509050805461178c9061223d565b80601f01602080910402602001604051908101604052809291908181526020018280546117b89061223d565b80156118055780601f106117da57610100808354040283529160200191611805565b820191906000526020600020905b8154815290600101906020018083116117e857829003601f168201915b505050505081565b60005b60058054905081101561196d578160058281548110611858577f4e487b7100000000000000000000000000000000000000000000000000000000600052603260045260246000fd5b9060005260206000200154141561195a576005600160058054905061187d919061215a565b815481106118b4577f4e487b7100000000000000000000000000000000000000000000000000000000600052603260045260246000fd5b9060005260206000200154600582815481106118f9577f4e487b7100000000000000000000000000000000000000000000000000000000600052603260045260246000fd5b9060005260206000200181905550600580548061193f577f4e487b7100000000000000000000000000000000000000000000000000000000600052603160045260246000fd5b6001900381819060005260206000200160009055905561196d565b8080611965906122a0565b915050611810565b5050565b82805461197d9061223d565b90600052602060002090601f01602090048101928261199f57600085556119e6565b82601f106119b857805160ff19168380011785556119e6565b828001600101855582156119e6579182015b828111156119e55782518255916020019190600101906119ca565b5b5090506119f391906119f7565b5090565b5b80821115611a105760008160009055506001016119f8565b5090565b6000611a27611a228461209b565b612076565b905082815260208101848484011115611a3f57600080fd5b611a4a8482856121fb565b509392505050565b600081359050611a6181612584565b92915050565b600082601f830112611a7857600080fd5b8135611a88848260208601611a14565b91505092915050565b600081359050611aa08161259b565b92915050565b600060208284031215611ab857600080fd5b6000611ac684828501611a52565b91505092915050565b600060208284031215611ae157600080fd5b6000611aef84828501611a91565b91505092915050565b60008060408385031215611b0b57600080fd5b6000611b1985828601611a91565b925050602083013567ffffffffffffffff811115611b3657600080fd5b611b4285828601611a67565b9150509250929050565b6000611b588383611b7c565b60208301905092915050565b6000611b708383611dc5565b60208301905092915050565b611b858161218e565b82525050565b611b948161218e565b82525050565b6000611ba5826120ec565b611baf8185612127565b9350611bba836120cc565b8060005b83811015611beb578151611bd28882611b4c565b9750611bdd8361210d565b925050600181019050611bbe565b5085935050505092915050565b6000611c03826120f7565b611c0d8185612138565b9350611c18836120dc565b8060005b83811015611c49578151611c308882611b64565b9750611c3b8361211a565b925050600181019050611c1c565b5085935050505092915050565b611c5f816121a0565b82525050565b611c6e816121e9565b82525050565b6000611c7f82612102565b611c898185612149565b9350611c9981856020860161220a565b611ca2816123a5565b840191505092915050565b6000611cba600f83612149565b9150611cc5826123b6565b602082019050919050565b6000611cdd602183612149565b9150611ce8826123df565b604082019050919050565b6000611d00603083612149565b9150611d0b8261242e565b604082019050919050565b6000611d23601d83612149565b9150611d2e8261247d565b602082019050919050565b6000611d46601e83612149565b9150611d51826124a6565b602082019050919050565b6000611d69601983612149565b9150611d74826124cf565b602082019050919050565b6000611d8c601f83612149565b9150611d97826124f8565b602082019050919050565b6000611daf602283612149565b9150611dba82612521565b604082019050919050565b611dce816121df565b82525050565b611ddd816121df565b82525050565b6000602082019050611df86000830184611b8b565b92915050565b600060a082019050611e136000830188611b8b565b611e206020830187611dd4565b611e2d6040830186611c65565b8181036060830152611e3f8185611c74565b9050611e4e6080830184611dd4565b9695505050505050565b60006020820190508181036000830152611e728184611b9a565b905092915050565b60006020820190508181036000830152611e948184611bf8565b905092915050565b6000602082019050611eb16000830184611c56565b92915050565b6000602082019050611ecc6000830184611c65565b92915050565b60006020820190508181036000830152611eec8184611c74565b905092915050565b60006020820190508181036000830152611f0d81611cad565b9050919050565b60006020820190508181036000830152611f2d81611cd0565b9050919050565b60006020820190508181036000830152611f4d81611cf3565b9050919050565b60006020820190508181036000830152611f6d81611d16565b9050919050565b60006020820190508181036000830152611f8d81611d39565b9050919050565b60006020820190508181036000830152611fad81611d5c565b9050919050565b60006020820190508181036000830152611fcd81611d7f565b9050919050565b60006020820190508181036000830152611fed81611da2565b9050919050565b60006020820190506120096000830184611dd4565b92915050565b60006040820190506120246000830185611dd4565b6120316020830184611b8b565b9392505050565b600060608201905061204d6000830186611dd4565b61205a6020830185611b8b565b818103604083015261206c8184611c74565b9050949350505050565b6000612080612091565b905061208c828261226f565b919050565b6000604051905090565b600067ffffffffffffffff8211156120b6576120b5612376565b5b6120bf826123a5565b9050602081019050919050565b6000819050602082019050919050565b6000819050602082019050919050565b600081519050919050565b600081519050919050565b600081519050919050565b6000602082019050919050565b6000602082019050919050565b600082825260208201905092915050565b600082825260208201905092915050565b600082825260208201905092915050565b6000612165826121df565b9150612170836121df565b925082821015612183576121826122e9565b5b828203905092915050565b6000612199826121bf565b9050919050565b60008115159050919050565b60008190506121ba82612570565b919050565b600073ffffffffffffffffffffffffffffffffffffffff82169050919050565b6000819050919050565b60006121f4826121ac565b9050919050565b82818337600083830152505050565b60005b8381101561222857808201518184015260208101905061220d565b83811115612237576000848401525b50505050565b6000600282049050600182168061225557607f821691505b6020821081141561226957612268612347565b5b50919050565b612278826123a5565b810181811067ffffffffffffffff8211171561229757612296612376565b5b80604052505050565b60006122ab826121df565b91507fffffffffffffffffffffffffffffffffffffffffffffffffffffffffffffffff8214156122de576122dd6122e9565b5b600182019050919050565b7f4e487b7100000000000000000000000000000000000000000000000000000000600052601160045260246000fd5b7f4e487b7100000000000000000000000000000000000000000000000000000000600052602160045260246000fd5b7f4e487b7100000000000000000000000000000000000000000000000000000000600052602260045260246000fd5b7f4e487b7100000000000000000000000000000000000000000000000000000000600052604160045260246000fd5b6000601f19601f8301169050919050565b7f496e76616c696420616464726573730000000000000000000000000000000000600082015250565b7f4f6e6c79206f776e65722063616e2063616c6c20746869732066756e6374696f60008201527f6e00000000000000000000000000000000000000000000000000000000000000602082015250565b7f4f6e6c7920617574686f72697a6564207665726966696572732063616e20636160008201527f6c6c20746869732066756e6374696f6e00000000000000000000000000000000602082015250565b7f4164647265737320697320616c72656164792061207665726966696572000000600082015250565b7f566572696669636174696f6e20616c7265616479207265717565737465640000600082015250565b7f41646472657373206973206e6f74206120766572696669657200000000000000600082015250565b7f4e6f2070656e64696e6720766572696669636174696f6e207265717565737400600082015250565b7f43616e6e6f742072656d6f7665206f776e65722066726f6d207665726966696560008201527f7273000000000000000000000000000000000000000000000000000000000000602082015250565b6003811061258157612580612318565b5b50565b61258d8161218e565b811461259857600080fd5b50565b6125a4816121df565b81146125af57600080fd5b5056fea26469706673582212202164555c71dfbed534fb646b250adeb5fe727483be73b8ed8c4ffe2dd936280164736f6c63430008010033",
  "immutableReferences": {},
  "source": "// SPDX-License-Identifier: MIT\r\npragma solidity ^0.8.0;\r\n\r\ncontract NFTVerifier {\r\n    address public owner;\r\n    mapping(address => bool) public verifiers;\r\n    mapping(uint256 => bool) public verifiedNFTs;\r\n    mapping(uint256 => string) public verificationReasons;\r\n\r\n    enum VerificationStatus { Pending, Approved, Rejected }\r\n    \r\n    struct VerificationRequest {\r\n        address requester;\r\n        uint256 tokenId;\r\n        VerificationStatus status;\r\n        string reason;\r\n        uint256 requestTime;\r\n    }\r\n\r\n    mapping(uint256 => VerificationRequest) public verificationRequests;\r\n    uint256[] public pendingRequests;\r\n\r\n    event NFTVerified(uint256 tokenId, address verifier, string reason);\r\n    event NFTRejected(uint256 tokenId, address verifier, string reason);\r\n    event VerificationRequested(uint256 tokenId, address requester);\r\n    event VerifierAdded(address verifier);\r\n    event VerifierRemoved(address verifier);\r\n    \r\n    constructor() {\r\n        owner = msg.sender;\r\n        verifiers[msg.sender] = true;\r\n    }\r\n    \r\n    modifier onlyOwner() {\r\n        require(msg.sender == owner, \"Only owner can call this function\");\r\n        _;\r\n    }\r\n    \r\n    modifier onlyVerifier() {\r\n        require(verifiers[msg.sender], \"Only authorized verifiers can call this function\");\r\n        _;\r\n    }\r\n    \r\n    function addVerifier(address _verifier) external onlyOwner {\r\n        require(_verifier != address(0), \"Invalid address\");\r\n        require(!verifiers[_verifier], \"Address is already a verifier\");\r\n        verifiers[_verifier] = true;\r\n        emit VerifierAdded(_verifier);\r\n    }\r\n    \r\n    function removeVerifier(address _verifier) external onlyOwner {\r\n        require(verifiers[_verifier], \"Address is not a verifier\");\r\n        require(_verifier != owner, \"Cannot remove owner from verifiers\");\r\n        verifiers[_verifier] = false;\r\n        emit VerifierRemoved(_verifier);\r\n    }\r\n    \r\n    function requestVerification(uint256 _tokenId) external {\r\n        // Kim tra xem yu cu  tn ti cha\r\n        // Nu yu cu khng tn ti hoc  b t chi, cho php yu cu mi\r\n        if (verificationRequests[_tokenId].requester != address(0)) {\r\n            // Nu yu cu ang pending, khng cho php yu cu mi\r\n            require(verificationRequests[_tokenId].status != VerificationStatus.Pending, \r\n                    \"Verification already requested\");\r\n        }\r\n        \r\n        // To yu cu mi\r\n        verificationRequests[_tokenId] = VerificationRequest({\r\n            requester: msg.sender,\r\n            tokenId: _tokenId,\r\n            status: VerificationStatus.Pending,\r\n            reason: \"\",\r\n            requestTime: block.timestamp\r\n        });\r\n        \r\n        pendingRequests.push(_tokenId);\r\n        emit VerificationRequested(_tokenId, msg.sender);\r\n    }\r\n    \r\n    function verifyNFT(uint256 _tokenId, string memory _reason) external onlyVerifier {\r\n        require(verificationRequests[_tokenId].status == VerificationStatus.Pending, \"No pending verification request\");\r\n        \r\n        verifiedNFTs[_tokenId] = true;\r\n        verificationReasons[_tokenId] = _reason;\r\n        verificationRequests[_tokenId].status = VerificationStatus.Approved;\r\n        verificationRequests[_tokenId].reason = _reason;\r\n        \r\n        _removePendingRequest(_tokenId);\r\n        emit NFTVerified(_tokenId, msg.sender, _reason);\r\n    }\r\n    \r\n    function rejectNFT(uint256 _tokenId, string memory _reason) external onlyVerifier {\r\n        require(verificationRequests[_tokenId].status == VerificationStatus.Pending, \"No pending verification request\");\r\n        \r\n        verifiedNFTs[_tokenId] = false;\r\n        verificationReasons[_tokenId] = _reason;\r\n        verificationRequests[_tokenId].status = VerificationStatus.Rejected;\r\n        verificationRequests[_tokenId].reason = _reason;\r\n        \r\n        _removePendingRequest(_tokenId);\r\n        emit NFTRejected(_tokenId, msg.sender, _reason);\r\n    }\r\n    \r\n    function _removePendingRequest(uint256 _tokenId) private {\r\n    for (uint i = 0; i < pendingRequests.length; i++) {\r\n        if (pendingRequests[i] == _tokenId) {\r\n            // Thay th bng phn t cui cng v pop\r\n            pendingRequests[i] = pendingRequests[pendingRequests.length - 1];\r\n            pendingRequests.pop();\r\n            break;\r\n        }\r\n    }\r\n}\r\n    \r\n    function isNFTVerified(uint256 _tokenId) external view returns (bool) {\r\n        return verifiedNFTs[_tokenId];\r\n    }\r\n    \r\n    function getVerificationReason(uint256 _tokenId) external view returns (string memory) {\r\n        return verificationReasons[_tokenId];\r\n    }\r\n    \r\n    function getPendingRequests() external view returns (uint256[] memory) {\r\n        return pendingRequests;\r\n    }\r\n    \r\n    function getVerificationRequest(uint256 _tokenId) external view returns (\r\n        address requester,\r\n        uint256 tokenId,\r\n        VerificationStatus status,\r\n        string memory reason,\r\n        uint256 requestTime\r\n    ) {\r\n        VerificationRequest memory request = verificationRequests[_tokenId];\r\n        return (\r\n            request.requester,\r\n            request.tokenId,\r\n            request.status,\r\n            request.reason,\r\n            request.requestTime\r\n        );\r\n    }\r\n    \r\n    function getVerificationStatus(uint256 _tokenId) external view returns (VerificationStatus) {\r\n        return verificationRequests[_tokenId].status;\r\n    }\r\n    \r\n    function isVerifier(address _address) external view returns (bool) {\r\n        return verifiers[_address];\r\n    }\r\n    \r\n    function getAllVerifiers() external view returns (address[] memory) {\r\n        uint count = 0;\r\n        \r\n        // Count verifiers first\r\n        for (uint i = 1; i <= 100; i++) { // Limiting to 100 to prevent DOS\r\n            address addr = address(uint160(i));\r\n            if (verifiers[addr]) {\r\n                count++;\r\n            }\r\n        }\r\n        \r\n        address[] memory result = new address[](count);\r\n        count = 0;\r\n        \r\n        // Fill the array\r\n        for (uint i = 1; i <= 100; i++) {\r\n            address addr = address(uint160(i));\r\n            if (verifiers[addr]) {\r\n                result[count] = addr;\r\n                count++;\r\n            }\r\n        }\r\n        \r\n        return result;\r\n    }\r\n}",
  "sourcePath": "D:\\Users\\trieunth\\Desktop\\Team_Work\\BlockchainBTL\\blockchain-auction\\contracts\\NFTVerifier.sol",
  "compiler": {
    "name": "solc",
    "version": "0.8.1+commit.df193b15.Emscripten.clang"
  },
  "schemaVersion": "3.4.16",
  "updatedAt": "2025-03-21T11:59:52.350Z",
  "networkType": "ethereum",
  "devdoc": {
    "kind": "dev",
    "methods": {},
    "version": 1
  },
  "userdoc": {
    "kind": "user",
    "methods": {},
    "version": 1
  }
}