{
  "contractName": "NFTVerifier",
  "abi": [
    {
      "inputs": [],
      "stateMutability": "nonpayable",
      "type": "constructor"
    },
    {
      "anonymous": false,
      "inputs": [
        {
          "indexed": false,
          "internalType": "uint256",
          "name": "tokenId",
          "type": "uint256"
        },
        {
          "indexed": false,
          "internalType": "address",
          "name": "verifier",
          "type": "address"
        },
        {
          "indexed": false,
          "internalType": "string",
          "name": "reason",
          "type": "string"
        }
      ],
      "name": "NFTRejected",
      "type": "event"
    },
    {
      "anonymous": false,
      "inputs": [
        {
          "indexed": false,
          "internalType": "uint256",
          "name": "tokenId",
          "type": "uint256"
        },
        {
          "indexed": false,
          "internalType": "address",
          "name": "verifier",
          "type": "address"
        },
        {
          "indexed": false,
          "internalType": "string",
          "name": "reason",
          "type": "string"
        }
      ],
      "name": "NFTVerified",
      "type": "event"
    },
    {
      "anonymous": false,
      "inputs": [
        {
          "indexed": false,
          "internalType": "uint256",
          "name": "tokenId",
          "type": "uint256"
        },
        {
          "indexed": false,
          "internalType": "address",
          "name": "requester",
          "type": "address"
        }
      ],
      "name": "VerificationRequested",
      "type": "event"
    },
    {
      "inputs": [],
      "name": "owner",
      "outputs": [
        {
          "internalType": "address",
          "name": "",
          "type": "address"
        }
      ],
      "stateMutability": "view",
      "type": "function",
      "constant": true
    },
    {
      "inputs": [
        {
          "internalType": "uint256",
          "name": "",
          "type": "uint256"
        }
      ],
      "name": "pendingTokens",
      "outputs": [
        {
          "internalType": "uint256",
          "name": "",
          "type": "uint256"
        }
      ],
      "stateMutability": "view",
      "type": "function",
      "constant": true
    },
    {
      "inputs": [
        {
          "internalType": "uint256",
          "name": "",
          "type": "uint256"
        }
      ],
      "name": "verificationReasons",
      "outputs": [
        {
          "internalType": "string",
          "name": "",
          "type": "string"
        }
      ],
      "stateMutability": "view",
      "type": "function",
      "constant": true
    },
    {
      "inputs": [
        {
          "internalType": "uint256",
          "name": "",
          "type": "uint256"
        }
      ],
      "name": "verificationRequests",
      "outputs": [
        {
          "internalType": "address",
          "name": "requester",
          "type": "address"
        },
        {
          "internalType": "uint256",
          "name": "tokenId",
          "type": "uint256"
        },
        {
          "internalType": "enum NFTVerifier.VerificationStatus",
          "name": "status",
          "type": "uint8"
        },
        {
          "internalType": "string",
          "name": "reason",
          "type": "string"
        },
        {
          "internalType": "uint256",
          "name": "requestTime",
          "type": "uint256"
        }
      ],
      "stateMutability": "view",
      "type": "function",
      "constant": true
    },
    {
      "inputs": [
        {
          "internalType": "uint256",
          "name": "",
          "type": "uint256"
        }
      ],
      "name": "verifiedNFTs",
      "outputs": [
        {
          "internalType": "bool",
          "name": "",
          "type": "bool"
        }
      ],
      "stateMutability": "view",
      "type": "function",
      "constant": true
    },
    {
      "inputs": [
        {
          "internalType": "address",
          "name": "",
          "type": "address"
        }
      ],
      "name": "verifiers",
      "outputs": [
        {
          "internalType": "bool",
          "name": "",
          "type": "bool"
        }
      ],
      "stateMutability": "view",
      "type": "function",
      "constant": true
    },
    {
      "inputs": [
        {
          "internalType": "address",
          "name": "_verifier",
          "type": "address"
        }
      ],
      "name": "addVerifier",
      "outputs": [],
      "stateMutability": "nonpayable",
      "type": "function"
    },
    {
      "inputs": [
        {
          "internalType": "address",
          "name": "_verifier",
          "type": "address"
        }
      ],
      "name": "removeVerifier",
      "outputs": [],
      "stateMutability": "nonpayable",
      "type": "function"
    },
    {
      "inputs": [
        {
          "internalType": "uint256",
          "name": "_tokenId",
          "type": "uint256"
        }
      ],
      "name": "requestVerification",
      "outputs": [],
      "stateMutability": "nonpayable",
      "type": "function"
    },
    {
      "inputs": [
        {
          "internalType": "uint256",
          "name": "_tokenId",
          "type": "uint256"
        },
        {
          "internalType": "string",
          "name": "_reason",
          "type": "string"
        }
      ],
      "name": "verifyNFT",
      "outputs": [],
      "stateMutability": "nonpayable",
      "type": "function"
    },
    {
      "inputs": [
        {
          "internalType": "uint256",
          "name": "_tokenId",
          "type": "uint256"
        },
        {
          "internalType": "string",
          "name": "_reason",
          "type": "string"
        }
      ],
      "name": "rejectNFT",
      "outputs": [],
      "stateMutability": "nonpayable",
      "type": "function"
    },
    {
      "inputs": [
        {
          "internalType": "uint256",
          "name": "_tokenId",
          "type": "uint256"
        }
      ],
      "name": "isNFTVerified",
      "outputs": [
        {
          "internalType": "bool",
          "name": "",
          "type": "bool"
        }
      ],
      "stateMutability": "view",
      "type": "function",
      "constant": true
    },
    {
      "inputs": [
        {
          "internalType": "uint256",
          "name": "_tokenId",
          "type": "uint256"
        }
      ],
      "name": "getVerificationStatus",
      "outputs": [
        {
          "internalType": "enum NFTVerifier.VerificationStatus",
          "name": "",
          "type": "uint8"
        }
      ],
      "stateMutability": "view",
      "type": "function",
      "constant": true
    },
    {
      "inputs": [
        {
          "internalType": "uint256",
          "name": "_tokenId",
          "type": "uint256"
        }
      ],
      "name": "getVerificationRequest",
      "outputs": [
        {
          "internalType": "address",
          "name": "requester",
          "type": "address"
        },
        {
          "internalType": "uint256",
          "name": "tokenId",
          "type": "uint256"
        },
        {
          "internalType": "enum NFTVerifier.VerificationStatus",
          "name": "status",
          "type": "uint8"
        },
        {
          "internalType": "string",
          "name": "reason",
          "type": "string"
        },
        {
          "internalType": "uint256",
          "name": "requestTime",
          "type": "uint256"
        }
      ],
      "stateMutability": "view",
      "type": "function",
      "constant": true
    },
    {
      "inputs": [],
      "name": "getPendingTokens",
      "outputs": [
        {
          "internalType": "uint256[]",
          "name": "",
          "type": "uint256[]"
        }
      ],
      "stateMutability": "view",
      "type": "function",
      "constant": true
    }
  ],
  "bytecode": "0x608060405234801561001057600080fd5b50336000806101000a81548173ffffffffffffffffffffffffffffffffffffffff021916908373ffffffffffffffffffffffffffffffffffffffff16021790555060018060003373ffffffffffffffffffffffffffffffffffffffff1673ffffffffffffffffffffffffffffffffffffffff16815260200190815260200160002060006101000a81548160ff021916908315150217905550611f7d806100b76000396000f3fe608060405234801561001057600080fd5b50600436106100f55760003560e01c80636c82448711610097578063ca2dfd0a11610066578063ca2dfd0a146102b2578063d7a3100e146102ce578063eb2ea1f1146102fe578063fdb3b2131461031a576100f5565b80636c8244871461022a5780638da5cb5b1461025a5780639000b3d614610278578063b56b893114610294576100f5565b80632c2b54f4116100d35780632c2b54f41461017a578063352fc85f146101aa5780634089d49f146101da5780636bc2bfa91461020e576100f5565b80630c020f08146100fa5780631d9425ca1461011657806322ccb47414610146575b600080fd5b610114600480360381019061010f9190611659565b61034a565b005b610130600480360381019061012b9190611659565b6105cf565b60405161013d91906119a8565b60405180910390f35b610160600480360381019061015b9190611659565b6105fc565b604051610171959493929190611911565b60405180910390f35b610194600480360381019061018f9190611659565b6107d6565b6040516101a1919061198d565b60405180910390f35b6101c460048036038101906101bf9190611659565b610800565b6040516101d19190611ac5565b60405180910390f35b6101f460048036038101906101ef9190611659565b610824565b604051610205959493929190611911565b60405180910390f35b61022860048036038101906102239190611682565b61090f565b005b610244600480360381019061023f9190611630565b610b73565b604051610251919061198d565b60405180910390f35b610262610b93565b60405161026f91906118f6565b60405180910390f35b610292600480360381019061028d9190611630565b610bb7565b005b61029c610d0f565b6040516102a9919061196b565b60405180910390f35b6102cc60048036038101906102c79190611630565b610d67565b005b6102e860048036038101906102e39190611659565b610f6b565b6040516102f5919061198d565b60405180910390f35b61031860048036038101906103139190611682565b610f8b565b005b610334600480360381019061032f9190611659565b6111ec565b60405161034191906119c3565b60405180910390f35b60016003811115610384577f4e487b7100000000000000000000000000000000000000000000000000000000600052602160045260246000fd5b6004600083815260200190815260200160002060020160009054906101000a900460ff1660038111156103e0577f4e487b7100000000000000000000000000000000000000000000000000000000600052602160045260246000fd5b1415610421576040517f08c379a000000000000000000000000000000000000000000000000000000000815260040161041890611a45565b60405180910390fd5b6040518060a001604052803373ffffffffffffffffffffffffffffffffffffffff16815260200182815260200160016003811115610488577f4e487b7100000000000000000000000000000000000000000000000000000000600052602160045260246000fd5b8152602001604051806020016040528060008152508152602001428152506004600083815260200190815260200160002060008201518160000160006101000a81548173ffffffffffffffffffffffffffffffffffffffff021916908373ffffffffffffffffffffffffffffffffffffffff1602179055506020820151816001015560408201518160020160006101000a81548160ff0219169083600381111561055b577f4e487b7100000000000000000000000000000000000000000000000000000000600052602160045260246000fd5b0217905550606082015181600301908051906020019061057c929190611493565b50608082015181600401559050506105938161128c565b7fa3cac7c72dca9bd0861f2c164c8f3b00e8a9db7c0539ea939c9db9bbda01afc681336040516105c4929190611ae0565b60405180910390a150565b60006004600083815260200190815260200160002060020160009054906101000a900460ff169050919050565b60008060006060600080600460008881526020019081526020016000206040518060a00160405290816000820160009054906101000a900473ffffffffffffffffffffffffffffffffffffffff1673ffffffffffffffffffffffffffffffffffffffff1673ffffffffffffffffffffffffffffffffffffffff168152602001600182015481526020016002820160009054906101000a900460ff1660038111156106cf577f4e487b7100000000000000000000000000000000000000000000000000000000600052602160045260246000fd5b6003811115610707577f4e487b7100000000000000000000000000000000000000000000000000000000600052602160045260246000fd5b815260200160038201805461071b90611c81565b80601f016020809104026020016040519081016040528092919081815260200182805461074790611c81565b80156107945780601f1061076957610100808354040283529160200191610794565b820191906000526020600020905b81548152906001019060200180831161077757829003601f168201915b50505050508152602001600482015481525050905080600001518160200151826040015183606001518460800151955095509550955095505091939590929450565b60006002600083815260200190815260200160002060009054906101000a900460ff169050919050565b6005818154811061081057600080fd5b906000526020600020016000915090505481565b60046020528060005260406000206000915090508060000160009054906101000a900473ffffffffffffffffffffffffffffffffffffffff16908060010154908060020160009054906101000a900460ff169080600301805461088690611c81565b80601f01602080910402602001604051908101604052809291908181526020018280546108b290611c81565b80156108ff5780601f106108d4576101008083540402835291602001916108ff565b820191906000526020600020905b8154815290600101906020018083116108e257829003601f168201915b5050505050908060040154905085565b600160003373ffffffffffffffffffffffffffffffffffffffff1673ffffffffffffffffffffffffffffffffffffffff16815260200190815260200160002060009054906101000a900460ff1661099b576040517f08c379a000000000000000000000000000000000000000000000000000000000815260040161099290611a25565b60405180910390fd5b600160038111156109d5577f4e487b7100000000000000000000000000000000000000000000000000000000600052602160045260246000fd5b6004600085815260200190815260200160002060020160009054906101000a900460ff166003811115610a31577f4e487b7100000000000000000000000000000000000000000000000000000000600052602160045260246000fd5b14610a71576040517f08c379a0000000000000000000000000000000000000000000000000000000008152600401610a6890611a85565b60405180910390fd5b60006002600085815260200190815260200160002060006101000a81548160ff02191690831515021790555060036004600085815260200190815260200160002060020160006101000a81548160ff02191690836003811115610afd577f4e487b7100000000000000000000000000000000000000000000000000000000600052602160045260246000fd5b02179055508181600460008681526020019081526020016000206003019190610b27929190611519565b50610b318361132f565b7f8f3cb6748aa5acd076bb665087df80196776af41df13ba603d94c25adcff3fea83338484604051610b669493929190611b09565b60405180910390a1505050565b60016020528060005260406000206000915054906101000a900460ff1681565b60008054906101000a900473ffffffffffffffffffffffffffffffffffffffff1681565b60008054906101000a900473ffffffffffffffffffffffffffffffffffffffff1673ffffffffffffffffffffffffffffffffffffffff163373ffffffffffffffffffffffffffffffffffffffff1614610c45576040517f08c379a0000000000000000000000000000000000000000000000000000000008152600401610c3c90611a05565b60405180910390fd5b600073ffffffffffffffffffffffffffffffffffffffff168173ffffffffffffffffffffffffffffffffffffffff161415610cb5576040517f08c379a0000000000000000000000000000000000000000000000000000000008152600401610cac906119e5565b60405180910390fd5b60018060008373ffffffffffffffffffffffffffffffffffffffff1673ffffffffffffffffffffffffffffffffffffffff16815260200190815260200160002060006101000a81548160ff02191690831515021790555050565b60606005805480602002602001604051908101604052809291908181526020018280548015610d5d57602002820191906000526020600020905b815481526020019060010190808311610d49575b5050505050905090565b60008054906101000a900473ffffffffffffffffffffffffffffffffffffffff1673ffffffffffffffffffffffffffffffffffffffff163373ffffffffffffffffffffffffffffffffffffffff1614610df5576040517f08c379a0000000000000000000000000000000000000000000000000000000008152600401610dec90611a05565b60405180910390fd5b60008054906101000a900473ffffffffffffffffffffffffffffffffffffffff1673ffffffffffffffffffffffffffffffffffffffff168173ffffffffffffffffffffffffffffffffffffffff161415610e84576040517f08c379a0000000000000000000000000000000000000000000000000000000008152600401610e7b90611aa5565b60405180910390fd5b600160008273ffffffffffffffffffffffffffffffffffffffff1673ffffffffffffffffffffffffffffffffffffffff16815260200190815260200160002060009054906101000a900460ff16610f10576040517f08c379a0000000000000000000000000000000000000000000000000000000008152600401610f0790611a65565b60405180910390fd5b6000600160008373ffffffffffffffffffffffffffffffffffffffff1673ffffffffffffffffffffffffffffffffffffffff16815260200190815260200160002060006101000a81548160ff02191690831515021790555050565b60026020528060005260406000206000915054906101000a900460ff1681565b600160003373ffffffffffffffffffffffffffffffffffffffff1673ffffffffffffffffffffffffffffffffffffffff16815260200190815260200160002060009054906101000a900460ff16611017576040517f08c379a000000000000000000000000000000000000000000000000000000000815260040161100e90611a25565b60405180910390fd5b60016003811115611051577f4e487b7100000000000000000000000000000000000000000000000000000000600052602160045260246000fd5b6004600085815260200190815260200160002060020160009054906101000a900460ff1660038111156110ad577f4e487b7100000000000000000000000000000000000000000000000000000000600052602160045260246000fd5b146110ed576040517f08c379a00000000000000000000000000000000000000000000000000000000081526004016110e490611a85565b60405180910390fd5b60016002600085815260200190815260200160002060006101000a81548160ff021916908315150217905550818160036000868152602001908152602001600020919061113b929190611519565b5060026004600085815260200190815260200160002060020160006101000a81548160ff0219169083600381111561119c577f4e487b7100000000000000000000000000000000000000000000000000000000600052602160045260246000fd5b02179055506111aa8361132f565b7f5e3daee0f72af82c4482cde60f4ea974f2679e67d898426d88685713cefd81b3833384846040516111df9493929190611b09565b60405180910390a1505050565b6003602052806000526040600020600091509050805461120b90611c81565b80601f016020809104026020016040519081016040528092919081815260200182805461123790611c81565b80156112845780601f1061125957610100808354040283529160200191611284565b820191906000526020600020905b81548152906001019060200180831161126757829003601f168201915b505050505081565b60005b6005805490508110156113015781600582815481106112d7577f4e487b7100000000000000000000000000000000000000000000000000000000600052603260045260246000fd5b906000526020600020015414156112ee575061132c565b80806112f990611cb3565b91505061128f565b5060058190806001815401808255809150506001900390600052602060002001600090919091909150555b50565b60005b60058054905081101561148f57816005828154811061137a577f4e487b7100000000000000000000000000000000000000000000000000000000600052603260045260246000fd5b9060005260206000200154141561147c576005600160058054905061139f9190611b9e565b815481106113d6577f4e487b7100000000000000000000000000000000000000000000000000000000600052603260045260246000fd5b90600052602060002001546005828154811061141b577f4e487b7100000000000000000000000000000000000000000000000000000000600052603260045260246000fd5b90600052602060002001819055506005805480611461577f4e487b7100000000000000000000000000000000000000000000000000000000600052603160045260246000fd5b6001900381819060005260206000200160009055905561148f565b808061148790611cb3565b915050611332565b5050565b82805461149f90611c81565b90600052602060002090601f0160209004810192826114c15760008555611508565b82601f106114da57805160ff1916838001178555611508565b82800160010185558215611508579182015b828111156115075782518255916020019190600101906114ec565b5b509050611515919061159f565b5090565b82805461152590611c81565b90600052602060002090601f016020900481019282611547576000855561158e565b82601f1061156057803560ff191683800117855561158e565b8280016001018555821561158e579182015b8281111561158d578235825591602001919060010190611572565b5b50905061159b919061159f565b5090565b5b808211156115b85760008160009055506001016115a0565b5090565b6000813590506115cb81611f19565b92915050565b60008083601f8401126115e357600080fd5b8235905067ffffffffffffffff8111156115fc57600080fd5b60208301915083600182028301111561161457600080fd5b9250929050565b60008135905061162a81611f30565b92915050565b60006020828403121561164257600080fd5b6000611650848285016115bc565b91505092915050565b60006020828403121561166b57600080fd5b60006116798482850161161b565b91505092915050565b60008060006040848603121561169757600080fd5b60006116a58682870161161b565b935050602084013567ffffffffffffffff8111156116c257600080fd5b6116ce868287016115d1565b92509250509250925092565b60006116e683836118d8565b60208301905092915050565b6116fb81611bd2565b82525050565b600061170c82611b59565b6117168185611b7c565b935061172183611b49565b8060005b8381101561175257815161173988826116da565b975061174483611b6f565b925050600181019050611725565b5085935050505092915050565b61176881611be4565b82525050565b61177781611c2d565b82525050565b60006117898385611b8d565b9350611796838584611c3f565b61179f83611d89565b840190509392505050565b60006117b582611b64565b6117bf8185611b8d565b93506117cf818560208601611c4e565b6117d881611d89565b840191505092915050565b60006117f0600f83611b8d565b91506117fb82611d9a565b602082019050919050565b6000611813602183611b8d565b915061181e82611dc3565b604082019050919050565b6000611836603083611b8d565b915061184182611e12565b604082019050919050565b6000611859601e83611b8d565b915061186482611e61565b602082019050919050565b600061187c601983611b8d565b915061188782611e8a565b602082019050919050565b600061189f601f83611b8d565b91506118aa82611eb3565b602082019050919050565b60006118c2601383611b8d565b91506118cd82611edc565b602082019050919050565b6118e181611c23565b82525050565b6118f081611c23565b82525050565b600060208201905061190b60008301846116f2565b92915050565b600060a08201905061192660008301886116f2565b61193360208301876118e7565b611940604083018661176e565b818103606083015261195281856117aa565b905061196160808301846118e7565b9695505050505050565b600060208201905081810360008301526119858184611701565b905092915050565b60006020820190506119a2600083018461175f565b92915050565b60006020820190506119bd600083018461176e565b92915050565b600060208201905081810360008301526119dd81846117aa565b905092915050565b600060208201905081810360008301526119fe816117e3565b9050919050565b60006020820190508181036000830152611a1e81611806565b9050919050565b60006020820190508181036000830152611a3e81611829565b9050919050565b60006020820190508181036000830152611a5e8161184c565b9050919050565b60006020820190508181036000830152611a7e8161186f565b9050919050565b60006020820190508181036000830152611a9e81611892565b9050919050565b60006020820190508181036000830152611abe816118b5565b9050919050565b6000602082019050611ada60008301846118e7565b92915050565b6000604082019050611af560008301856118e7565b611b0260208301846116f2565b9392505050565b6000606082019050611b1e60008301876118e7565b611b2b60208301866116f2565b8181036040830152611b3e81848661177d565b905095945050505050565b6000819050602082019050919050565b600081519050919050565b600081519050919050565b6000602082019050919050565b600082825260208201905092915050565b600082825260208201905092915050565b6000611ba982611c23565b9150611bb483611c23565b925082821015611bc757611bc6611cfc565b5b828203905092915050565b6000611bdd82611c03565b9050919050565b60008115159050919050565b6000819050611bfe82611f05565b919050565b600073ffffffffffffffffffffffffffffffffffffffff82169050919050565b6000819050919050565b6000611c3882611bf0565b9050919050565b82818337600083830152505050565b60005b83811015611c6c578082015181840152602081019050611c51565b83811115611c7b576000848401525b50505050565b60006002820490506001821680611c9957607f821691505b60208210811415611cad57611cac611d5a565b5b50919050565b6000611cbe82611c23565b91507fffffffffffffffffffffffffffffffffffffffffffffffffffffffffffffffff821415611cf157611cf0611cfc565b5b600182019050919050565b7f4e487b7100000000000000000000000000000000000000000000000000000000600052601160045260246000fd5b7f4e487b7100000000000000000000000000000000000000000000000000000000600052602160045260246000fd5b7f4e487b7100000000000000000000000000000000000000000000000000000000600052602260045260246000fd5b6000601f19601f8301169050919050565b7f496e76616c696420616464726573730000000000000000000000000000000000600082015250565b7f4f6e6c79206f776e65722063616e2063616c6c20746869732066756e6374696f60008201527f6e00000000000000000000000000000000000000000000000000000000000000602082015250565b7f4f6e6c7920617574686f72697a6564207665726966696572732063616e20636160008201527f6c6c20746869732066756e6374696f6e00000000000000000000000000000000602082015250565b7f566572696669636174696f6e20616c7265616479207265717565737465640000600082015250565b7f41646472657373206973206e6f74206120766572696669657200000000000000600082015250565b7f4e6f2070656e64696e6720766572696669636174696f6e207265717565737400600082015250565b7f43616e6e6f742072656d6f7665206f776e657200000000000000000000000000600082015250565b60048110611f1657611f15611d2b565b5b50565b611f2281611bd2565b8114611f2d57600080fd5b50565b611f3981611c23565b8114611f4457600080fd5b5056fea2646970667358221220856da1fb624483ee94a5843287d773433774ef66c92b64fd259d31ea3d456c7364736f6c63430008010033",
  "immutableReferences": {},
  "source": "// SPDX-License-Identifier: MIT\r\npragma solidity ^0.8.0;\r\n\r\ncontract NFTVerifier {\r\n    address public owner;\r\n    mapping(address => bool) public verifiers;\r\n    mapping(uint256 => bool) public verifiedNFTs;\r\n    mapping(uint256 => string) public verificationReasons;\r\n\r\n    // Trng thi xc minh\r\n    enum VerificationStatus { NotRequested, Pending, Verified, Rejected }\r\n    \r\n    // Thng tin yu cu xc minh\r\n    struct VerificationRequest {\r\n        address requester;\r\n        uint256 tokenId;\r\n        VerificationStatus status;\r\n        string reason;\r\n        uint256 requestTime;\r\n    }\r\n\r\n    // Lu tr yu cu xc minh theo tokenId\r\n    mapping(uint256 => VerificationRequest) public verificationRequests;\r\n    \r\n    // Danh sch tokenId ang ch xc minh\r\n    uint256[] public pendingTokens;\r\n    \r\n    // Cc s kin\r\n    event NFTVerified(uint256 tokenId, address verifier, string reason);\r\n    event NFTRejected(uint256 tokenId, address verifier, string reason);\r\n    event VerificationRequested(uint256 tokenId, address requester);\r\n    \r\n    constructor() {\r\n        owner = msg.sender;\r\n        verifiers[msg.sender] = true;\r\n    }\r\n    \r\n    modifier onlyOwner() {\r\n        require(msg.sender == owner, \"Only owner can call this function\");\r\n        _;\r\n    }\r\n    \r\n    modifier onlyVerifier() {\r\n        require(verifiers[msg.sender], \"Only authorized verifiers can call this function\");\r\n        _;\r\n    }\r\n    \r\n    function addVerifier(address _verifier) external onlyOwner {\r\n        require(_verifier != address(0), \"Invalid address\");\r\n        verifiers[_verifier] = true;\r\n    }\r\n    \r\n    function removeVerifier(address _verifier) external onlyOwner {\r\n        require(_verifier != owner, \"Cannot remove owner\");\r\n        require(verifiers[_verifier], \"Address is not a verifier\");\r\n        verifiers[_verifier] = false;\r\n    }\r\n    \r\n    // Yu cu xc minh NFT\r\n    function requestVerification(uint256 _tokenId) external {\r\n        // Khng cho php yu cu mi nu  ang ch xc minh\r\n        require(\r\n            verificationRequests[_tokenId].status != VerificationStatus.Pending,\r\n            \"Verification already requested\"\r\n        );\r\n        \r\n        // To yu cu mi\r\n        verificationRequests[_tokenId] = VerificationRequest({\r\n            requester: msg.sender,\r\n            tokenId: _tokenId,\r\n            status: VerificationStatus.Pending,\r\n            reason: \"\",\r\n            requestTime: block.timestamp\r\n        });\r\n        \r\n        // Thm vo danh sch ch\r\n        _addToPendingList(_tokenId);\r\n        \r\n        emit VerificationRequested(_tokenId, msg.sender);\r\n    }\r\n    \r\n    // Xc minh NFT\r\n    function verifyNFT(uint256 _tokenId, string calldata _reason) external onlyVerifier {\r\n        require(verificationRequests[_tokenId].status == VerificationStatus.Pending, \r\n                \"No pending verification request\");\r\n        \r\n        // Cp nht trng thi\r\n        verifiedNFTs[_tokenId] = true;\r\n        verificationReasons[_tokenId] = _reason;\r\n        verificationRequests[_tokenId].status = VerificationStatus.Verified;\r\n        \r\n        // Xa khi danh sch ch\r\n        _removeFromPendingList(_tokenId);\r\n        \r\n        emit NFTVerified(_tokenId, msg.sender, _reason);\r\n    }\r\n    \r\n    // T chi xc minh NFT\r\n    function rejectNFT(uint256 _tokenId, string calldata _reason) external onlyVerifier {\r\n        require(verificationRequests[_tokenId].status == VerificationStatus.Pending,\r\n                \"No pending verification request\");\r\n        \r\n        // Cp nht trng thi\r\n        verifiedNFTs[_tokenId] = false;\r\n        verificationRequests[_tokenId].status = VerificationStatus.Rejected;\r\n        verificationRequests[_tokenId].reason = _reason;\r\n        \r\n        // Xa khi danh sch ch\r\n        _removeFromPendingList(_tokenId);\r\n        \r\n        emit NFTRejected(_tokenId, msg.sender, _reason);\r\n    }\r\n    \r\n    // Kim tra NFT  c xc minh cha\r\n    function isNFTVerified(uint256 _tokenId) external view returns (bool) {\r\n        return verifiedNFTs[_tokenId];\r\n    }\r\n    \r\n    // Ly trng thi xc minh hin ti\r\n    function getVerificationStatus(uint256 _tokenId) external view returns (VerificationStatus) {\r\n        return verificationRequests[_tokenId].status;\r\n    }\r\n\r\n    // Ly thng tin yu cu xc minh\r\n    function getVerificationRequest(uint256 _tokenId) external view returns (\r\n        address requester,\r\n        uint256 tokenId,\r\n        VerificationStatus status,\r\n        string memory reason,\r\n        uint256 requestTime\r\n    ) {\r\n        VerificationRequest memory request = verificationRequests[_tokenId];\r\n        return (\r\n            request.requester,\r\n            request.tokenId,\r\n            request.status,\r\n            request.reason,\r\n            request.requestTime\r\n        );\r\n    }\r\n    \r\n    // Ly danh sch tokenId ang ch xc minh\r\n    function getPendingTokens() external view returns (uint256[] memory) {\r\n        return pendingTokens;\r\n    }\r\n    \r\n    // Thm tokenId vo danh sch ch\r\n    function _addToPendingList(uint256 _tokenId) private {\r\n        for (uint i = 0; i < pendingTokens.length; i++) {\r\n            if (pendingTokens[i] == _tokenId) {\r\n                return; //  c trong danh sch\r\n            }\r\n        }\r\n        pendingTokens.push(_tokenId);\r\n    }\r\n    \r\n    // Xa tokenId khi danh sch ch\r\n    function _removeFromPendingList(uint256 _tokenId) private {\r\n        for (uint i = 0; i < pendingTokens.length; i++) {\r\n            if (pendingTokens[i] == _tokenId) {\r\n                pendingTokens[i] = pendingTokens[pendingTokens.length - 1];\r\n                pendingTokens.pop();\r\n                break;\r\n            }\r\n        }\r\n    }\r\n}",
  "sourcePath": "D:\\Users\\trieunth\\Desktop\\Team_Work\\BlockchainBTL\\New folder\\contracts\\NFTVerifier.sol",
  "compiler": {
    "name": "solc",
    "version": "0.8.1+commit.df193b15.Emscripten.clang"
  },
  "schemaVersion": "3.4.16",
  "updatedAt": "2025-03-23T08:18:10.677Z",
  "networkType": "ethereum",
  "devdoc": {
    "kind": "dev",
    "methods": {},
    "version": 1
  },
  "userdoc": {
    "kind": "user",
    "methods": {},
    "version": 1
  }
}